:02000002D0002C
:1040000000400D00B4920D00000006000C000501F8
:084010000401BD0B00000000DB
:04401800DC870D0034
:1040200009480A49884208B505D0094A824202D0A7
:10403000121A02F0CBFC0748074A0021121A02F0BC
:10404000EDFC014808BD00BF3CE30320B4900D0027
:1040500014E5032014E50320F0E7032070B5074EB4
:10406000074C01F01BF9A41BA4080025A54200D1B0
:1040700070BD56F8043B98470135F7E78C900D006A
:10408000B0900D0000F05AB808B500F0DFF8BDE8B8
:10409000084001F0C5B800F015BF00F01BBF0000DC
:1040A00008B5034A00210C2000F068FEFEE700BFBF
:1040B000AD4B0D000078B0FA80F040097047012345
:1040C000037070477047000038B584690A4B03607D
:1040D00005467CB16368013B63605BB92368204699
:1040E0009B689847A368013BA3601BB923682046DF
:1040F000DB689847284638BD6C8C0D0010B5044627
:10410000006808B100F0E6FE204610BD0EB403B50D
:1041100003AB002153F8042B019300F0FEFF02B023
:104120005DF804EB03B0704710B50446FFF7CCFF11
:1041300020461C2101F03FFE204610BD2DE9F8432A
:1041400001F0CCF94FF4165101F0B8F9002000F05D
:104150003DFD4FF00009804643F6972600270020DA
:1041600000F034FDB0EB080461EB0905AF4208BF75
:10417000A64207D301F0B2F901F0A4F910B900F09A
:1041800091FEECE701F0AAF90D4C0E4D01F09AF901
:10419000002360681A46194600F024FE0022606879
:1041A000114600F027FE28B101F098F92946FFF7E3
:1041B000ADFFF3E7BDE8F8430349044800F08EBAC9
:1041C000DCE70320A38A0D0028E6032048E503204E
:1041D0002DE9F041184800F027F958BB01F07EF9AD
:1041E0001649154EDFF86080154F00F05BFF12484E
:1041F00000F035FC0446C0B101F070F921460546D7
:10420000304600F049FA414602462846FFF77EFF55
:1042100001F064F93946FFF779FF304600F04AFAB9
:1042200041F2883000F0C2FFE1E701F057F905499B
:10423000FFF76CFFBDE8F08148E50320F0870D0033
:104240000B880D0034880D0007880D00F8B5384C38
:10425000FFF7BEFF00F0B2FC2268801A354A904298
:1042600014D901F03BF93449FFF750FF33480121DD
:1042700000F0C6FA38B901F031F93149FFF746FFCD
:104280002E4800F017FA00F099FC2060642100200D
:1042900001F0D7F907EE900A2A4E2B4DF8EEE77A97
:1042A000C6ED007A00F08AFC2A68801A47F2305284
:1042B00090421BD9214800F035F9A0B1306801F0D7
:1042C000F3FF41EC100B0221204800F025FC01F027
:1042D00005F90446306801F0E7FF02460B46204628
:1042E0001B49FFF713FF00F069FC2860134F194EBC
:1042F0004FF47A71384600F00CFAB8B1B042F7D1F9
:10430000701D02F051FB51EC100B02F0DFFA124D60
:10431000286001F0E3F80446286801F0C5FF024672
:104320000B4620460D49FFF7F1FEE1E7F8BD00BF5F
:1043300040E50320C0D4010045880D0048E5032076
:1043400054880D0060E6032044E503201CE60320AA
:1043500064880D0028E6032064E6032077880D00BA
:1043600010B5D421044601F026FD204610BD000002
:1043700073B51E4E1E4D1F4C304601F097FB2A466A
:104380001D49304601F012FD1C4B00931C491D4B8A
:1043900040F25B72204600F0F9F81B4B2360C4F832
:1043A000D0602A461949204601F000FD2146184AEE
:1043B0001848002300F0AAFB2146174A174C18485A
:1043C000002300F0C5FB00232360A380A371A3F5A5
:1043D0008033A360022000F0E1FC12492A46204607
:1043E00002B0BDE8704001F0E1BC00BF24E503204D
:1043F00014E5032048E50320C9400D00C3880D00E3
:10440000B3880D00A8880D0008890D00C5400D0077
:10441000C9880D001CE60320E5880D0018E503207F
:1044200028E60320FD400D0008B5D0F8D000036851
:104430001B6B9847003818BF012008BDF8B5064629
:104440000F461446C4B1D6F8D00003681B6B9847DA
:1044500008B90020F8BDD6F8D000FA2C036825462C
:10446000A8BFFA25DB682A463946984783B2E41A82
:104470009D42A4B2E6D0ECE70120EBE72DE9F8433A
:104480000646884691461F461D460024D6F8D000B1
:1044900003681B6B9847D0B1002D18DBD6F8D0000D
:1044A00003681B69984760B1D6F8D00003685B6960
:1044B000984708F804000134A4B24C4507D03D46A3
:1044C000ECE70A3D0A202DB200F070FEDEE7204640
:1044D000BDE8F88370B5044600F12205962200215C
:1044E000284602F09BFA6168284602F001FBD4F8E6
:1044F000D0002289036829465E6A0023B04700384D
:1045000018BF012070BD10B50446D0F8D000036874
:104510001B6B984720B1D4F8D0000368DB6A98473A
:10452000012010BD70B503689B6804469847C8B960
:10453000204600F094FA042570B1013D15F0FF0506
:104540000AD0204600F0B6F841F2883000F02EFE86
:10455000204600F084FAEFE7236820469B68BDE818
:104560007040184770BD37B504460846019102F007
:10457000C7FA03122370607085B2023401992A468B
:10458000204602F0F9FA601903B030BD30B502815F
:104590000A4A0B4DC0E90323039B43610023C0E992
:1045A0000051C0E92F33C0E93133C0E90633C0F808
:1045B000CC300384A0F8B83030BD00BFA7880D0010
:1045C000148B0D002DE9F74F164602681BB2976950
:1045D0000193012205460C46B847C7B2012F019B43
:1045E00003D0002003B0BDE8F08F04F1010804F10E
:1045F000040A4FF000092A680193D2F818B0414626
:1046000001222846D847C0B20128EAD1C2454FEA64
:10461000C710E6D018F8012B019B02F07F0112F0C1
:10462000800F01FB079916D1A8EB0404A7B2341B35
:104630002A68013C4C45D2F818A03DBF06F1FF3274
:10464000D21B92B21FFA89F241462846D047C0B227
:10465000384480B2C6E70746CDE700002DE9F041B7
:10466000DFF8308005460C4616461F463B4696222C
:1046700021462846FFF7A6FF48B12378B6EB131F63
:1046800005D000F02BFF414600F01FFDEEE7BDE82E
:10469000F08100BF24890D000231C9B209299ABFF7
:1046A000024B53F821000248704700BF308B0D00C9
:1046B00035890D0010B5E02380F822300146002333
:1046C00080F8233051F8223B04465B690222984768
:1046D000236820461B69BDE81040184700F1BC0262
:1046E00030B5134600F1D00453F8045B8D4209D075
:1046F000A342F9D1002352F8044B2CB900EB8300FC
:10470000C0F8BC10012003E00133052BF3D10020D9
:1047100030BD2DE9F04F00F122098BB285B0962211
:1047200049460546FFF74EFF0646F0B195F825705D
:10473000009705F1BC0A4FF0000805F1260B5AF866
:10474000044B6CB121680191084602F0D9F9B842D6
:1047500006D101993A46584602F0DAF9002845D0C8
:1047600008F10108B8F1050FE9D100203BE0EA1992
:1047700092F8260092F827A04AEA002A1422002183
:10478000601D02F04BF9009BC3F57F44FC342644C6
:1047900005EB8808A6EB0B06B6B2152ED8F8BC00C0
:1047A00007F1040128BF1326594432464944053015
:1047B00002F01AF9D8F8BC305E8395F8223003F085
:1047C0000603022B0DD14FF41073ADF80C302B689B
:1047D0009AFA9AFA5B69ADF80EA0042203A928465A
:1047E0009847D8F8BC0005B0BDE8F08F95F822B026
:1047F0000BF0060BBBF1020FB9D082468346BDE732
:104800002DE9F84304460D464FF0000800F1220759
:104810004FF0C009E5B1236884F8229084F8238022
:104820005B690222394620469847064668B14FF434
:10483000FA730D2239462046FFF710FF94F8223014
:10484000D02B02D13046BDE8F883013DEDB2E1E75F
:104850002E46F7E738B505460846102300F8023B18
:104860000C462949FFF77FFE04230370022343709F
:10487000AB698BB11B787BB10623437095F8203070
:10488000012B39D10E23437095F82130012B02BF43
:10489000437843F0200343702B691B781BB14378A6
:1048A00063F07F0343706B691B781BB1437843F05F
:1048B00040034370012383702C23C370E9680B7895
:1048C000F3B10430FFF74FFEA96931B10B7823B182
:1048D000FFF749FEE969FFF746FE29690B780BB13E
:1048E000FFF741FE69690B780BB1FFF73CFE001B37
:1048F000C0B2831E637038BD022BC5D11E23C2E730
:10490000037143710630DFE743890D002DE9F7435A
:10491000054610460E469846019202F0F1F89DF8C1
:104920002C90BDF82870019984B2B9F1000F35D1EF
:1049300002344FEA49033046A4B243F030033C440A
:1049400000F8013BA4B2224604F07F037F2A88BF0F
:1049500043F080037F2A00F8013B4FEAD414F2D8D9
:10496000FFF701FE0346B9F1000F0CD0B5F8B820EF
:10497000120A0270B5F8B8204270B5F8B8200132BA
:104980000233A5F8B8203A464146184602F02CF802
:104990003844801B80B203B0BDE8F0830434C8E71C
:1049A00073B59DF8186000F122050446CDE9003684
:1049B00013460A462946FFF7A9FF236802465B69AA
:1049C00029462046984710B9002002B070BD002E3D
:1049D000FBD04FF4FA73962229462046FFF7F2FDEA
:1049E0000428F1D194F822301B11042BECD1A38CB4
:1049F000B4F8B8005BBA01339BB2C31A58425841AD
:104A0000E3E730B585B0044610461D460391029297
:104A100002F076F8DDE9022183B200952046FFF727
:104A2000BFFF05B030BD38B51D4682230B70B0F80E
:104A3000B8301B0A8B70B0F8B830CB70B0F8B83013
:104A40000C460133A0F8B8301146201DFFF78BFD4E
:104A500000F8015B001BC0B2831E637038BD2DE9F6
:104A6000F0410368DB680446984700284BD004F106
:104A7000220529462046FFF7EDFE236882B25B69D6
:104A800029462046984700283DD041F2707396226F
:104A900029462046FFF796FDC0B2042833D1638C27
:104AA000B3F5087F2FD194F8250010B140B2BDE8CE
:104AB000F08104F1BC0704F1D00857F8043BF3B1CE
:104AC000032657F8042C2946137912682046FFF76D
:104AD000AAFF236882B25B6929462046984790B1B5
:104AE0004FF4FA73092229462046FFF7B7FD30B983
:104AF000013E16F0FF06E4D16FF00100D7E7B8459C
:104B0000DBD10020D3E74FF0FF30D0E710B5C0E98C
:104B10000012037210BD0000D0B557EC106B90B0BE
:104B200004460B4600220949684600F0DBF932468C
:104B30003B46694605A800F0D5F9D4E90001237A7F
:104B400005AAFFF75EFF10B0D0BD00BF48890D0079
:104B500010B503710023C0E90833C0E90A3341638B
:104B600002604383C361036310BD000008B5024BBC
:104B70001B689B68019308BD6802030008B5024BDF
:104B80001B68DB68019308BD6802030008B5024B8F
:104B90001B685B69019308BD6C02030008B5024BFA
:104BA0001B685B68019308BD1802030008B5024B3F
:104BB0001B68DB68019308BD1802030008B5024BAF
:104BC0001B685B69019308BD1802030008B5024B1E
:104BD0001B68DB6D019308BD1802030008B5024B8A
:104BE0001B685B6C019308BD4802030008B5024BCB
:104BF0001B689B6C019308BD4802030008B5024B7B
:104C00001B685B69019308BD6402030008B5024B91
:104C10001B681B6A019308BD6402030008B5024BC0
:104C20001B689B6A019308BD6402030008B5024B30
:104C30001B681B68019308BD3C02030008B5024BCA
:104C40001B68DB68019308BD3C02030008B5024BFA
:104C50001B681B69019308BD3C02030008B5024BA9
:104C60001B685B69019308BD3C02030008B5024B59
:104C70001B689B69019308BD3C02030008B5024B09
:104C80001B68DB69019308BD3C02030008B5024BB9
:104C90001B689B6A019308BD3C02030008B5024BE8
:104CA0001B689B69019308BD3802030008B5024BDD
:104CB0001B68DB69019308BD3802030008B5024B8D
:104CC0001B681B6A019308BD3802030008B5024B3C
:104CD0001B689B6A019308BD3802030008B5024BAC
:104CE0001B681B6B019308BD3802030008B5024B1B
:104CF0001B689B6B019308BD3802030008B5024B8B
:104D00001B681B68019308BD4C02030008B5024BE9
:104D10001B685B68019308BD4C02030008B5024B99
:104D20001B681B69019308BD4C02030008B5024BC8
:104D30001B685B69019308BD4C02030008B5024B78
:104D40001B689B69019308BD4C02030008B5024B28
:104D50001B68DB69019308BD4C02030008B5024BD8
:104D60001B681B6A019308BD4C02030008B5024B87
:104D70001B689B6A019308BD4C02030008B5024BF7
:104D80001B685B6B019308BD6002030008B5024B12
:104D90001B681B6D019308BD6002030008B5024B40
:104DA0001B685B68019308BD2002030008B5024B35
:104DB0001B685B69019308BD2002030008B5034B23
:104DC0001B68D3F88830019308BD0000200203005F
:104DD00008B5034B1B68D3F89430019308BD00005D
:104DE0002002030008B5024B1B685B68019308BDF5
:104DF0004002030008B5024B1B689B68019308BD85
:104E00004002030008B5024B1B68DB68019308BD34
:104E10004002030008B5024B1B681B69019308BDE3
:104E20004002030008B5024B1B685B69019308BD93
:104E30004002030008B5024B1B689B69019308BD43
:104E40004002030008B5024B1B68DB69019308BDF3
:104E50004002030008B5024B1B681B6A019308BDA2
:104E60004002030008B5024B1B681B6B019308BD91
:104E70004002030008B5024B1B685B6B019308BD41
:104E80004002030008B5024B1B681B6C019308BD70
:104E90004002030008B5024B1B685B6C019308BD20
:104EA0004002030008B5024B1B689B68019308BDD4
:104EB0004402030008B5024B1B68DB6B019308BD7D
:104EC0004402030008B5024B1B681B68019308BD30
:104ED0001C02030008B5024B1B685B68019308BD08
:104EE0001C02030008B5024B1B68DB68019308BD78
:104EF0001C02030008B5024B1B685B6A019308BDE6
:104F00001C02030008B5024B1B681B6B019308BD14
:104F10001C02030008B5024B1B68DB6B019308BD44
:104F20001C02030008B5024B1B685B6C019308BDB3
:104F30001C020300002240681146FFF78BBF0022CD
:104F400040681146FFF796BF40680022FFF78ABF0E
:104F50004068002281F00101FFF774BF0023406820
:104F60001A461946FFF766BF002340681A461946DD
:104F7000FFF758BF002240681146FFF74BBF0022E1
:104F800040681146FFF736BF406800220221FFF754
:104F900039BF002340681A46FFF724BF024B0322A3
:104FA0005A60024A1A60704768E60320608B0D0061
:104FB00010B5094B094C022200201A60084B2060F2
:104FC000A080A071A360FFF7E9FE2046054A0649CC
:104FD000BDE8104000F0EABE7CE6032070E6032046
:104FE0000000FFFF14E50320FD400D0070B586B002
:104FF000064601AD684600F001FA0FCD341D0FC41E
:105000002B682370304606B070BD10B504460068AA
:1050100008B1FFF7EBFD204610BD10B583680446CC
:1050200013B1032201469847204610BD10B5064C27
:10503000002320462360FFF7D1FD2046034A0449A0
:10504000BDE8104000F0B2BE80E6032014E5032066
:105050000B500D00F8B506460D468F180024BD42D2
:105060000CD0336815F8011B9B6830469847031E27
:1050700001DB1C44F3E7002C08BF1C462046F8BDAA
:1050800013B50446084659B1019101F039FD236872
:105090000199DB680246204602B0BDE8104018477F
:1050A00002B010BD08B5FFF7EBFF08BD03689B68B1
:1050B000184738B50D210546FFF7F8FF0A210446C9
:1050C0002846FFF7F3FF204438BD38B50546FFF703
:1050D000D7FF04462846FFF7ECFF204438BD30B523
:1050E0008BB000238DF82430012A98BF0A2209AC26
:1050F0000D46B1FBF2F101FB125303F0FF03092B44
:1051000094BF30333733DBB2AA4204F8013DEFD904
:105110002146FFF7B5FF0BB030BD2DE9F04186B059
:1051200000AF05460E46381D142114463B60FFF7BC
:10513000E1FE13280ED8391D2846FFF7A1FF0446CB
:105140001EB12846FFF7B5FF044420461837BD4678
:10515000BDE8F08100F1080323F00703E846ADEB5A
:10516000030D2246411C3B686846FFF7C3FE6946B3
:105170002846FFF785FF0446C546E1E7002340685F
:105180001A461946FFF74EBE014B024A1A60704795
:1051900084E603209C8B0D00024B1A68024B1A60B8
:1051A000704700BF3CE3032088E603200021FFF79F
:1051B000FDBD10B50446FFF730FF204610BD0000CE
:1051C0000348044A04490023836000F0EFBD00BF98
:1051D0008CE6032014E50320B3510D00014B186049
:1051E000704700BF40E3032008B50B4B43B100F00C
:1051F00075F903681B699847002801DDAFF300804B
:10520000064B43B100F0E8F903681B699847002892
:1052100001DDAFF3008008BD0000000000000000C9
:1052200008B5FFF7E1FFFFF7C9FC014B186008BDA7
:10523000ECE703200248034A0349121A01F0C6BBF7
:1052400000F4032004F40320B0900D0007B5002300
:1052500000931A466FF07701FFF7BAFD03B05DF8CF
:1052600004FB000007B543880A2B08D0502B0BD154
:10527000094B1B684BB103B05DF804EB1847FFF70F
:10528000E5FF03B05DF804FB002300931A466FF0BE
:105290007701FFF79DFDF4E7A0E6032038B5124C37
:1052A0001248134D0021FFF73DFE2368AB42114B1E
:1052B0000CBF012200221A7002D0FFF7BBFF25604D
:1052C000FFF76CFC044601F0B1FB0B4B13B1204619
:1052D000AFF3008000210848FFF7ECFDBDE838403F
:1052E00006480021FFF76ABD00F40320DD510D00E0
:1052F0001E1C279A9CE603200000000065520D004A
:10530000704710B51821044600F055FD204610BD29
:10531000F0B5037D062B8DB00E4600F104074FF06B
:10532000000412D000F1080515F8011D0A223046CC
:10533000FFF7D5FEAF42044419D0002CF4D02E2143
:105340003046FFF7B3FE0444EEE72F236A463946A2
:105350000A208DF80040FFF751FC684601F0D0FBB1
:1053600033680246DB686946304698470446204663
:105370000DB0F0BD10B5054B0446112240F8043BBA
:10538000002101F04BFB204610BD00BFC48B0D0077
:105390000346074A10B543F8042B01F1100251F8F7
:1053A000044B43F8044B9142F9D10A781A7010BDAE
:1053B000C48B0D00037D042B04D14068003818BF56
:1053C00001207047062B07D143683BB983682BB98E
:1053D000C3681BB90069F1E70020704701207047DE
:1053E00010B59DF8084044EA032343EA024242EA2A
:1053F000016104234160037510BD000013B5054B26
:105400000360CB7800938B784A780978FFF7E8FF40
:1054100002B010BDC48B0D0041747047704708B5D1
:105420000021007CFFF78AFC40EAE07008BD08B567
:105430000121007CFFF782FC40EAE07008BD08B55E
:10544000007CFFF773FC20EAE07008BD08B5007C23
:10545000FFF764FC20EAE07008BD13B50446007C49
:105460000191FFF763FC0028019901DC607C20B109
:10547000207CFFF76BFC20EAE07002B010BD007CDE
:10548000FFF76CBC10B51421044600F094FC2046D4
:1054900010BD000010B54FF47A7304460846002191
:1054A000C4E90113044B2360012320746374114683
:1054B000FFF724FC204610BDD88B0D00007C002295
:1054C000FFF724BC007CFFF751BC10B51422044642
:1054D000002101F0A3FA204610BD000010B5104CC9
:1054E00088B003A8FFF7F1FF2178BFF35B8F11F0BD
:1054F000010111D120460191FEF7DCFD019958B15F
:1055000003AA0848FFF7C6FF2046FEF7D8FD064A63
:105510000649044800F04AFC024808B010BD00BF2C
:10552000A4E60320A8E6032014E503201D540D0083
:1055300070474174704708B5007CFFF7A7FB20EA6D
:10554000E07008BD08B5007CFFF780FB20EAE07042
:1055500008BD08B5007CFFF789FB40EAE07008BD94
:1055600008B5007CFFF77AFB40EAE07008BD007CDC
:10557000FFF784BB37B5457C04462DB1207C03B0D2
:10558000BDE83040FFF75ABB007C0191FFF77EFB7E
:1055900000280199F2DC284603B030BD10B5142173
:1055A000044600F008FC204610BD000010B54FF086
:1055B000000C0446084611464FF47A72C4E901C251
:1055C000044A22600122207462741A46FFF72EFBFF
:1055D000204610BD088C0D0013B50E4C2178BFF38A
:1055E0005B8F11F0010112D120460191FEF762FD9F
:1055F000019960B1084A094B0948FFF7D7FF2046D7
:10560000FEF75DFD074A0849054800F0CFFB044856
:1056100002B010BDBCE60320C0E6032044E703202F
:10562000C8E7032014E5032031550D0010B50446EA
:1056300028B101F01FFA90FBF4F303FB1404204699
:1056400010BD884210B5044603DA081AFFF7EEFFD2
:105650000444204610BD13B503688DF80710DC6BB9
:1056600001224FF0FF330DF10701A04702B010BD3A
:1056700010B40368DC6B4FF0FF33A4465DF8044BB5
:10568000604713B5134602688DF80710D46B0DF10F
:1056900007010122A04702B010BD704738B5436929
:1056A0001A68002A054610DAB3F88620B3F8843069
:1056B0009A420AD103681B699847044628B92B68A7
:1056C0002846DB6A9847204638BD0120FCE743693D
:1056D0001868C043C00F704770470000064B9942DE
:1056E00010B500F10C0405D0084600F067FB002857
:1056F00008BF0024204610BD948B0D0010B5AC21CE
:10570000044600F058FB204610BDFEF7C6BC2DE94C
:10571000F0414FF0000886B01D46C0F804800446F2
:105720000E4617464146102202A801F077F96B1C7D
:1057300009D04FF47A70B5FBF0F3CDE9023800FBE5
:10574000135358430490606910230093006802AB20
:1057500041F2050240F6FF71FFF7A0FA002807DAD0
:10576000FFF7D8FB03686360002006B0BDE8F08156
:105770006069002300683A463146FFF7AFFA031E1E
:10578000EEDB1846F1E7000070B54D69054B0446A5
:105790008C3544F8043B06460FCD0FC42B682370AC
:1057A000304670BDC48B0D0010B54369B3F8862038
:1057B000B3F884309A42044605D06369B3F8842074
:1057C0001344187910BD03681B6998470028F4D169
:1057D0004FF0FF30F6E710B54369B3F88620B3F811
:1057E00084309A42044608D06369B3F88420511C7F
:1057F000A3F884101344187910BD03681B699847F7
:105800000028F1D14FF0FF30F6E7F8B543691746AD
:10581000B3F88620B3F884309A4205460E4616D077
:105820006969B1F88430B1F88640E41ABC4228BFF7
:105830003C46043322461944304601F0C7F86A69F1
:10584000B2F884302344A2F884302046F8BD0368BF
:105850001B6998470028E3D14FF0FF34F5E7426910
:105860000023A2F884304269A2F8863070472DE9FF
:10587000F0411F4603680C46DB6A8AB005461646AF
:105880009847237DD5F81480042B0CBF02200A20F2
:1058900006220121FFF72AFAC8F800006B691B688D
:1058A000002B08DA2B682846DB6A0024984720463C
:1058B0000AB0BDE8F0812846FFF7D1FFB7B1002359
:1058C00003A9F8B20393ADF81030FFF75FF9002891
:1058D000E8D1686906230093006803AB41F20B022C
:1058E00040F6FF71FFF7DAF90028DBD11C22002116
:1058F00003A801F093F8237D042B1DD14FF4077307
:105900003046ADF80C30FFF789F9ADF80E0060684D
:10591000FFF77CF904906B691C22186803A9FFF754
:10592000CDF90028BED104340FCC6D698C350FC57C
:1059300023682B700124BAE740F61C233046ADF8EB
:105940000C30FFF76BF905AEADF80E00231D04F126
:10595000140718685968324603C20833BB4216461A
:10596000F7D1D8E730B54269B2F886308BB004463B
:105970002BB1B2F884209A4201D1FFF770FF616920
:105980000868002818DBB1F886507F2D14D8043140
:105990000823C5F180022944FFF798F9002813DD98
:1059A0006369B3F886200AB9A3F884206369B3F861
:1059B00086201044A3F886006369B3F88600B3F824
:1059C0008430C01A0BB030BDFFF7A4FA03680B2B6C
:1059D000F2D0FFF79FFA03680B2BEDD020230025B0
:1059E000CDE90235FFF796FA03680193084B0949A0
:1059F000009302AA2B463220FFF7C8F963691868A2
:105A0000FFF754F963694FF0FF321A60D4E700BF23
:105A1000378C0D00308C0D0010B5436904461868B2
:105A2000002801DBFFF742F963694FF0FF321A608B
:105A30006069112200218C3000F0F0FF2046BDE8A3
:105A40001040FFF70CBF10B5002304460160C0F8FA
:105A500084308830FFF78EFC204610BD73B50023DC
:105A60004FF47A72C0E901320E4A03610260436169
:105A70000446AC200191FEF70EFB051E05F10C0655
:105A800008D00123C5E90133074B01992B6030464B
:105A9000FFF7D9FF2046C4E90565FFF7E0FE02B035
:105AA00070BD00BF6C8C0D00508C0D0010B54FF018
:105AB000FF310446FFF7D2FF204610BD10B5044663
:105AC0000068002801DBFFF7F1F8204610BD0C301C
:105AD000FFF7F4BF2DE9F0439846036893B00D46F5
:105AE0000024DB6A06461746984728466B4622463E
:105AF00021460094FFF742F80546002863D1009B39
:105B0000002B4BD05B69002B48D006A8FFF732FC76
:105B1000009B5C696378022B04D1211D06A8FFF766
:105B200065FA26E00A2B24D11122294601A800F0AB
:105B300075FFA368002B38D004F108030DF1040CA5
:105B4000183418685968624603C20833A342944661
:105B5000F7D1062301A90CA88DF81430FFF718FC23
:105B60000DF1340CBCE80F0007AC0FC4DCF80030BA
:105B7000237006A8FFF71EFC80B1336807ADD3F889
:105B80002090124B0C930FCD0DAC0FC42B682370DB
:105B90003A4643460CA93046C84705460098FEF7EA
:105BA000E5FF284613B0BDE8F083E368002BC3D1BE
:105BB0004FF6FF70D4F81090FFF728F88145BBD15D
:105BC00004F11401AAE72546E8E700BFC48B0D00E5
:105BD000002240681146FFF71DB9002240681146B7
:105BE000FFF738B9002240681146FFF743B9406813
:105BF0000022FFF737B94068002281F00101FFF76A
:105C000021B9002340681A461946FFF713B900224C
:105C100040681146FFF7EEB8406800220221FFF706
:105C2000F1B8002340681A46FFF7DCB8024B0422A3
:105C30005A60024A1A607047DCE70320B88C0D00F6
:105C4000002340681A46FFF7CDB8406800220221C1
:105C5000FFF7D8B8002240681146FFF7CBB8002202
:105C600040681146FFF7D6B8002340681A46194627
:105C7000FFF7D8B8002340681A461946FFF7DAB88C
:105C800040680021FFF7FEB840680021FFF702B925
:105C90004068002281F00101FFF7D4B8406800227B
:105CA000FFF7E0B8002240681146FFF7E3B8002292
:105CB00040681146FFF7CEB82DE9F043002495B0B7
:105CC00016460D460746FFF755FB214618220EA83B
:105CD000009400F0A3FE4023CDE90C3421466B462E
:105CE0000CAA3046FEF74AFF044600284CD1024673
:105CF00001216868FFF78EF8022180462246686815
:105D0000FFF788F8009E81462146002E3CD00029EE
:105D10003AD17368022B03D00A2B11D0F669F4E74D
:105D2000B8F1000F0AD0716906A8043107ADFFF77A
:105D300065FB0FCD3C1D0FC42B6823704146EDE77A
:105D4000B9F1000F01D14946E8E77469102201A8B2
:105D500000F064FE06238DF8143001AD04F1080351
:105D60001834186859682A4603C20833A3421546F6
:105D7000F7D101A906A807ADFFF70AFB0FCD3C1D1F
:105D80000FC42B682370DEE70098FEF7EFFE38465D
:105D900015B0BDE8F0830000024B034A1A600022F0
:105DA0005A607047E4E70320F48C0D000B4601466F
:105DB000184600F0FDBDFEF770B90000014900F083
:105DC000F9B800BF408D0D007FB500241023CDE948
:105DD0000234036800949E698DF8044015466B46B2
:105DE0001268B0479DF8043003F00603062B03BF8A
:105DF000009B2B600120204604B070BD00989042AB
:105E000014BF01200620704710B5034B0360044601
:105E100000F0CDF8204610BD808D0D0010B5044671
:105E2000FFF7F2FF20460821FFF7C5FF204610BD0F
:105E30002DE9F0411F46DDE90834DDF8188098456A
:105E40000646154607D1079900F0B4F818B16571F8
:105E50000020BDE8F0813946304600F0ABF800285C
:105E6000F6D00123C4F800802571A371F0E738B59E
:105E700015461C4600F09EF820B10823E360062377
:105E80002560237138BD73B505460C4601921E4648
:105E900000F090F850B9032E08D82368019A5B6986
:105EA0002946204602B0BDE87040184702B070BDD8
:105EB00010B5034B03600446FFF7A6FF204610BD54
:105EC000E08D0D0010B50446FFF7F2FF20460C21CF
:105ED000FFF771FF204610BDF7B5089F97420546B2
:105EE0000E4614460AD0A86802680897156A31461B
:105EF0002246AC4603B0BDE8F04060471946019326
:105F000000F058F8019B0028EDD0062003B0F0BD4A
:105F10002DE9F14F0D461946DDE90A4BDDE90CA6E6
:105F200081461746984600F045F890B1002D346040
:105F3000377109DB61198A450CBF06210121B17156
:105F4000002001B0BDE8F08F0235F9D10123B37113
:105F5000F6E7544506D15946484600F02BF808B1FB
:105F60007771EDE7D9F808000368CDE90CA6CDE913
:105F70000A4BDC693A4643462946A44601B0BDE8CF
:105F8000F04F60472DE9F04107460C4615461E4686
:105F9000FFF76DFF48B9B86803689F692A46334622
:105FA0002146BC46BDE8F0416047BDE8F08170473E
:105FB00000207047814208B50ED0406803782A2B34
:105FC0000CD049680B782A2B08BF013100F086FD00
:105FD000B0FA80F0400908BD0120FCE70020FAE794
:105FE00081F0004102E000BF83F0004330B54FEA8A
:105FF00041044FEA430594EA050F08BF90EA020FF7
:106000001FBF54EA000C55EA020C7FEA645C7FEA89
:10601000655C00F0E2804FEA5454D4EB5555B8BFAC
:106020006D420CDD2C4480EA020281EA030382EA1D
:10603000000083EA010180EA020281EA0303362DAF
:1060400088BF30BD11F0004F4FEA01314FF4801C82
:106050004CEA113102D0404261EB410113F0004F94
:106060004FEA03334CEA133302D0524263EB43034B
:1060700094EA050F00F0A780A4F10104D5F1200EE9
:106080000DDB02FA0EFC22FA05F2801841F1000144
:1060900003FA0EF2801843FA05F359410EE0A5F118
:1060A00020050EF1200E012A03FA0EFC28BF4CF049
:1060B000020C43FA05F3C01851EBE37101F00045FF
:1060C00007D54FF0000EDCF1000C7EEB00006EEB0C
:1060D0000101B1F5801F1BD3B1F5001F0CD3490896
:1060E0005FEA30004FEA3C0C04F101044FEA4452ED
:1060F00012F5800F80F09A80BCF1004F08BF5FEA74
:10610000500C50F1000041EB045141EA050130BD53
:106110005FEA4C0C404141EB0101013C28BFB1F565
:10612000801FE9D291F0000F04BF01460020B1FAB0
:1061300081F308BF2033A3F10B03B3F120020CDA83
:106140000C3208DD02F1140CC2F10C0201FA0CF061
:1061500021FA02F10CE002F11402D8BFC2F1200CC6
:1061600001FA02F120FA0CFCDCBF41EA0C0190407C
:10617000E41AA2BF01EB0451294330BD6FEA0404C5
:106180001F3C1CDA0C340EDC04F11404C4F12002B0
:1061900020FA04F001FA02F340EA030021FA04F3C2
:1061A00045EA030130BDC4F10C04C4F1200220FA19
:1061B00002F001FA04F340EA0300294630BD21FA57
:1061C00004F0294630BD94F0000F83F4801306BF1D
:1061D00081F480110134013D4EE77FEA645C18BF11
:1061E0007FEA655C29D094EA050F08BF90EA020FA8
:1061F00005D054EA000C04BF1946104630BD91EAA0
:10620000030F1EBF0021002030BD5FEA545C05D1A2
:106210004000494128BF41F0004130BD14F58004E1
:106220003CBF01F5801130BD01F0004545F0FE4155
:1062300041F470014FF0000030BD7FEA645C1ABF8A
:10624000194610467FEA655C1CBF0B46024650EAC1
:10625000013406BF52EA033591EA030F41F40021ED
:1062600030BD00BF90F0000F04BF0021704730B573
:106270004FF4806404F132044FF000054FF0000148
:1062800050E700BF90F0000F04BF0021704730B509
:106290004FF4806404F1320410F0004548BF4042DE
:1062A0004FF000013EE700BF42004FEAE2014FEA33
:1062B00031014FEA02701FBF12F07F4393F07F4F0E
:1062C00081F06051704732F07F4208BF704793F011
:1062D0007F4F04BF41F40021704730B54FF4607424
:1062E00001F0004521F000411CE700BF50EA010227
:1062F00008BF704730B54FF000050AE050EA0102D0
:1063000008BF704730B511F0004502D5404261EB3F
:1063100041014FF4806404F132045FEA915C3FF480
:10632000D8AE4FF003025FEADC0C18BF03325FEA1D
:10633000DC0C18BF033202EBDC02C2F1200300FACE
:1063400003FC20FA02F001FA03FE40EA0E0021FAF3
:1063500002F11444BDE600BF70B54FF0FF0C4CF4E1
:10636000E06C1CEA11541DBF1CEA135594EA0C0F93
:1063700095EA0C0F00F0DEF82C4481EA030621EACE
:106380004C5123EA4C5350EA013518BF52EA033509
:1063900041F4801143F4801338D0A0FB02CE4FF0BB
:1063A0000005E1FB02E506F00042E0FB03E54FF0EB
:1063B0000006E1FB03569CF0000F18BF4EF0010EE3
:1063C000A4F1FF04B6F5007F64F5407404D25FEADF
:1063D0004E0E6D4146EB060642EAC62141EA555192
:1063E0004FEAC52040EA5E504FEACE2EB4F1FD0CD4
:1063F00088BFBCF5E06F1ED8BEF1004F08BF5FEA52
:10640000500E50F1000041EB045170BD06F0004603
:1064100046EA010140EA020081EA0301B4EB5C04B0
:10642000C2BFD4EB0C0541EA045170BD41F48011A8
:106430004FF0000E013C00F3AB8014F1360FDEBFCD
:10644000002001F0004170BDC4F10004203C35DAA9
:106450000C341BDC04F11404C4F1200500FA05F32C
:1064600020FA04F001FA05F240EA020001F00042CD
:1064700021F0004110EBD37021FA04F642EB060143
:106480005EEA430E08BF20EAD37070BDC4F10C046D
:10649000C4F1200500FA04F320FA05F001FA04F231
:1064A00040EA020001F0004110EBD37041F100011D
:1064B0005EEA430E08BF20EAD37070BDC4F1200528
:1064C00000FA05F24EEA020E20FA04F301FA05F290
:1064D00043EA020321FA04F001F0004121FA04F238
:1064E00020EA020000EBD3705EEA430E08BF20EA08
:1064F000D37070BD94F0000F0FD101F00046400042
:1065000041EB010111F4801F08BF013CF7D041EAC3
:10651000060195F0000F18BF704703F000465200C7
:1065200043EB030313F4801F08BF013DF7D043EA98
:106530000603704794EA0C0F0CEA135518BF95EA4E
:106540000C0F0CD050EA410618BF52EA4306D1D1D5
:1065500081EA030101F000414FF0000070BD50EAF4
:10656000410606BF1046194652EA430619D094EA7E
:106570000C0F02D150EA013613D195EA0C0F05D168
:1065800052EA03361CBF104619460AD181EA0301BC
:1065900001F0004141F0FE4141F470014FF0000074
:1065A00070BD41F0FE4141F4780170BD70B54FF00F
:1065B000FF0C4CF4E06C1CEA11541DBF1CEA13558F
:1065C00094EA0C0F95EA0C0F00F0A7F8A4EB050471
:1065D00081EA030E52EA03354FEA013100F0888068
:1065E0004FEA03334FF0805545EA131343EA126331
:1065F0004FEA022245EA111545EA10654FEA0026E6
:106600000EF000419D4208BF964244F1FD0404F59E
:10661000407402D25B084FEA3202B61A65EB0305FA
:106620005B084FEA32024FF480104FF4002CB6EBB7
:10663000020E75EB030E22BFB61A754640EA0C0037
:106640005B084FEA3202B6EB020E75EB030E22BF77
:10665000B61A754640EA5C005B084FEA3202B6EBB8
:10666000020E75EB030E22BFB61A754640EA9C0077
:106670005B084FEA3202B6EB020E75EB030E22BF47
:10668000B61A754640EADC0055EA060E18D04FEA05
:10669000051545EA16754FEA06164FEAC30343EAA5
:1066A00052734FEAC2025FEA1C1CC0D111F4801F72
:1066B0000BD141EA00014FF000004FF0004CB6E76B
:1066C00011F4801F04BF01430020B4F1FD0C88BF0A
:1066D000BCF5E06F3FF6AFAEB5EB030C04BFB6EB15
:1066E000020C5FEA500C50F1000041EB045170BD08
:1066F0000EF0004E4EEA113114EB5C04C2BFD4EB35
:106700000C0541EA045170BD41F480114FF0000EB8
:10671000013C90E645EA060E8DE60CEA135594EA34
:106720000C0F08BF95EA0C0F3FF43BAF94EA0C0F37
:106730000AD150EA01347FF434AF95EA0C0F7FF4AC
:1067400025AF104619462CE795EA0C0F06D152EA00
:1067500003353FF4FDAE1046194622E750EA4106E4
:1067600018BF52EA43067FF4C5AE50EA41047FF4F5
:106770000DAF52EA43057FF4EBAE12E74FF0FF3C5A
:1067800006E000BF4FF0010C02E000BF4FF0010C2B
:106790004DF804CD4FEA410C7FEA6C5C4FEA430CA4
:1067A00018BF7FEA6C5C1BD001B050EA410C0CBFF3
:1067B00052EA430C91EA030F02BF90EA020F002055
:1067C000704710F1000F91EA030F58BF994208BFBC
:1067D00090422CBFD8176FEAE37040F00100704779
:1067E0004FEA410C7FEA6C5C02D150EA013C07D1D0
:1067F0004FEA430C7FEA6C5CD6D152EA033CD3D01B
:106800005DF8040B704700BF8446104662468C4614
:106810001946634600E000BF01B5FFF7B7FF002847
:1068200048BF10F1000F01BD4DF808EDFFF7F4FF70
:106830000CBF012000205DF808FB00BF4DF808EDFB
:10684000FFF7EAFF34BF012000205DF808FB00BF1E
:106850004DF808EDFFF7E0FF94BF012000205DF840
:1068600008FB00BF4DF808EDFFF7CEFF94BF0120F5
:1068700000205DF808FB00BF4DF808EDFFF7C4FFEE
:1068800034BF012000205DF808FB00BF4A0011D290
:1068900012F5001211D20DD56FF47873B3EB62527A
:1068A0000ED44FEAC12343F0004343EA505323FA86
:1068B00002F070474FF00000704750EA013002D1FB
:1068C0004FF0FF3070474FF0000070474FEA410231
:1068D000B2F1E04324BFB3F5001CDCF1FE5C0DD93E
:1068E00001F0004C4FEAC0024CEA5070B2F1004F88
:1068F00040EB830008BF20F00100704711F0804F8B
:1069000021D113F13872BCBF01F00040704741F44F
:1069100080114FEA5252C2F11802C2F1200C10FA53
:106920000CF320FA02F018BF40F001004FEAC12337
:106930004FEAD32303FA0CFC40EA0C0023FA02F3DB
:106940004FEA4303CCE77FEA625307D150EA0133B1
:106950001EBF4FF0FE4040F44000704701F0004081
:1069600040F0FE4040F40000704700BFD0B50C4B33
:10697000002206460F46FFF7EFFCFFF787FF0446AD
:10698000FFF770FC074B0022FFF7E6FC02460B46C0
:1069900030463946FFF728FBFFF778FF2146D0BD88
:1069A0000000F03D0000F041002100F01FBF00009A
:1069B00010B5054C13462CB10A4601460220AFF330
:1069C000008010BD2046FCE7000000000A44914210
:1069D00000F1FF3300D1704710B511F8014B03F8F7
:1069E000014F9142F9D110BD884210B501EB02046C
:1069F00002D98442234607D8431EA14208D011F889
:106A0000012B03F8012FF8E7024401468A4200D126
:106A100010BD13F8014D02F8014DF7E7024403469B
:106A2000934200D1704703F8011BF9E738B50D4BCD
:106A30001D68AB6B04467BB91820FEF743FA0A4A7F
:106A40000A4BA863C0E90023094B83600B238381B1
:106A500001220023C0E90423AB6B00221C615A61B0
:106A600038BD00BF40E303200E33CDAB34126DE6DA
:106A7000ECDE0500134B10B51C68A36B7BB9182026
:106A8000FEF720FA104A114BA063C0E90023104B17
:106A900083600B23838101220023C0E90423A16BBF
:106AA0000C480A694B690C4C504304FB0300A2FBE1
:106AB00004345A1C044444F10000C1E9042020F0CD
:106AC000004010BD40E303200E33CDAB34126DE621
:106AD000ECDE05002DF451582D7F954C10F8012B5C
:106AE00011F8013B012A28BF9A42F7D0D01A70470B
:106AF000034611F8012B03F8012B002AF9D1704746
:106B0000034613F8012B002AFBD1181A01387047ED
:106B100070B50F4E04460A448A4201D1002013E0AA
:106B200014F8013B985D00F00300012811F8010BF7
:106B3000355C05F0030508BF2033012D08BF203068
:106B40001B1A02D10028E7D170BD1846FCE700BF30
:106B5000798E0D0010B56AB10139841810F8013B27
:106B600011F8012F934203D1A04201D0002BF5D19F
:106B7000981A10BD1046FCE710B50139034632B132
:106B800011F8014F03F8014B013A002CF7D11A44D8
:106B90000021934200D110BD03F8011BF9E770B545
:106BA00004460D4645EC104B164601F097FC51EC9F
:106BB000100B7EB1C5F30A53C3F16B03002B09DD43
:106BC0001B0503F17F55002405F5401522462B4691
:106BD000FFF7C2FB70BD00002DE9F04FA3B01F46C8
:106BE00000231E93A44B19921B6807930446184672
:106BF0008846FFF785FF4FF0000A05464FF0000B6F
:106C0000CDF874801D9B1A782B2A4CD039D80D2AC8
:106C100032D8082A32D8002A3CD000230E931D9E79
:106C20003378302B40F0B480737803F0DF03582BB7
:106C30006CD10E9B01931EAB029700938F4A1FAB42
:106C40001DA9204600F046FE10F00707054605D0B6
:106C5000062F2AD1013600231D960E93199B002B77
:106C600040F096850E9BDBB152460BF1004343EC9E
:106C7000102B23B0BDE8F08F202ACED101331D9315
:106C8000C0E72D2AC9D101220E925A1C1D925B78B1
:106C9000002BC4D1199BCDF87480002B40F0768571
:106CA00052465B46E3E70022EEE71E9A3AB13521F1
:106CB00020A801F012FD1E99204601F047F9013F7E
:106CC000052F07D8DFE807F00E0B181D0E034FF055
:106CD000000BDA462807C1D54BF0004BBEE7DDE9D3
:106CE00020ABF7E7DDE920A31F9A23F4801302F21B
:106CF000334243EA025BEDE7DFF884B14FF0000A6C
:106D0000E8E76FF0004B4FF0FF3AE3E71D9B5A1C9A
:106D10001D925B78302BF9D0002B9FD001234FF0D0
:106D2000000904931D9B0A93CDF824904F460A2234
:106D30001D980678A6F13003D9B209292AD90799F6
:106D40002A46FFF707FF98B3002033463D460790D9
:106D50000246652B01D0452B18D11DB9049B034376
:106D600098D00025DDF8748008F101031D9398F890
:106D700001302B2B75D02D2B7BD04FF0000CA3F1C5
:106D80003001092940F28280CDF8748000269DE010
:106D90000023C4E7082FD8BF099900F10100DABF2A
:106DA00002FB0133099302FB093901371D90BFE74C
:106DB0001D9B5A191D925B5D002F37D007903D46F1
:106DC000A3F13002092A12D90122C2E71D9B5A1CE5
:106DD0001D925B780130302BF8D0A3F13102082AE4
:106DE00000F2DB841D9A079000200A920546303B92
:106DF00000F1010214D00799114407912A4600EBD3
:106E0000050E0A21724513D12A18082A05F1010539
:106E100005441CDC09990A2202FB01330993002274
:106E20001D9B591C1D915B781046C9E73846D2E777
:106E3000082A04DC099E4E4309960132E2E702F17A
:106E4000010CBCF1100FD8BF01FB09F9F5E7102DBB
:106E5000DCBF0A2202FB0939E1E700230793012284
:106E60007CE74FF0000C08F102031D9398F8023004
:106E700085E74FF0010CF6E77C8F0D00288E0D00A2
:106E80000000F07F1D9B591C1D915B78302BF9D0C1
:106E9000A3F1310108293FF679AFA3F1300E1D9B14
:106EA00008931D9B591C1D915B78A3F13006092E98
:106EB00037D9089E891B082944F61F6602DC7645EF
:106EC000A8BF7646BCF1000F00D07642002D4FD10E
:106ED000049901437FF4C2AE002A7FF4DBAE692B34
:106EE00027D024DC492B24D04E2B7FF4D3AE9E49EF
:106EF0001DA800F035FF00283FF4CCAE1D9B1B7889
:106F0000282B2DD1994920AA1DA800F03DFF052866
:106F100026D1219BDDF880A043F0FF4B4BF4E00B22
:106F20009CE60A2101FB0E3EAEF1300EB9E76E2B56
:106F3000DBE78F491DA800F013FF00283FF4AAAE3D
:106F40001D9B8C49013B1DA81D9300F009FF10B942
:106F50001D9B01331D93DFF82CB24FF0000A7DE634
:106F6000854801F00DFC8DED040BDDE904AB75E601
:106F7000079B0998F31A002F08BF2F46102D08937E
:106F8000A846A8BF4FF01008FFF76CF9092D8246FC
:106F90008B4613DD794B03EBC80353E91223FFF74C
:106FA000DBF9824648468B46FFF75CF902460B4602
:106FB00050465946FFF71AF882468B460F2D38DCAB
:106FC000089B002B3FF44AAE24DD162B0BDC6B4DE7
:106FD00005EBC305D5E9000152465B46FFF7BCF956
:106FE00082468B463AE6089AC5F12503934220DB98
:106FF000624CC5F10F0504EBC50152465B46D1E971
:107000000001FFF7A9F9089B5D1B04EBC504D4E957
:107010000023E3E7089B16330BDB079B574A9E1BB5
:1070200002EBC606D6E9002350465946FFF7BEFAE2
:10703000D6E7089BA5EB08089844B8F1000F71DD6E
:1070400018F00F030AD04D4901EBC30152465B46CD
:10705000D1E90001FFF780F982468B4638F00F082E
:107060004DD0B8F59A7F22DD00252E46099507956B
:107070002223DFF810B123604FF0000A099B002B98
:107080003FF4ECAD1E99204600F060FF07992046C2
:1070900000F05CFF3146204600F058FF0999204679
:1070A00000F054FF2946204600F050FFD6E50023AB
:1070B0004FEA2818504659469946B8F1010F21DC8D
:1070C0000BB182468B462E4BABF1547B03EBC909C7
:1070D00052465B46D9E90001FFF73EF9294B0A46C3
:1070E0000B4029498B428246BED8A1F580118B42C4
:1070F00086BFDFF898B04FF0FF3A02F1547B0023CF
:10710000049381E018F0010F07D01D4B03EBC90376
:10711000D3E90023FFF720F9012309F101094FEA20
:107120006808CAE7EBD0C8F1000818F00F020AD0CF
:10713000124B03EBC20350465946D3E90023FFF735
:1071400035FA82468B465FEA2818D8D0B8F11F0F6F
:107150001EDD00252E460995079522234FF0000AD3
:107160004FF0000B236089E7228E0D003C8E0D004E
:10717000198E0D001C8E0D00A7880D00B88F0D0014
:10718000908F0D000000F07F0000A07CFFFFEF7FDC
:1071900018F0100318BF6A23DFF8B4930493504625
:1071A0005946002318F0010F04D0D9E90023FFF756
:1071B000D3F801235FEA680809F10809F2D10BB19D
:1071C00082468B46049BBBB1CBF30A53C3F16B03DE
:1071D000002B594610DD1F2B40F32881342BDEBFD6
:1071E000203B4FF0FF3202FA03F34FF0000ACCBF0E
:1071F0004FF05C7B03EA010B002200235046594606
:10720000FFF712FB0028A4D1099B00930A992B4693
:107210003A46204600F0EFFE099000283FF424AFE4
:10722000079B9E1B089B002BB4BF33460023109383
:10723000089B002523EAE37318932E46099B2046FA
:10724000596800F04FFE079000283FF411AF099BEA
:107250001A69023203F10C0192000C30FFF7B6FB01
:107260004BEC10AB20AA1FA92046CDE90AAB01F0D8
:10727000B1F91E9000283FF4FBAE0121204600F03A
:1072800048FF064600283FF4F3AE1F9B0499002BED
:10729000ABBF109A189A189FDDF84090ACBF03EB73
:1072A0000209D71A209AA3EB01089044A34B08F1D6
:1072B000FF389845C2F1360280F2CC80A3EB080378
:1072C0001F2BA2EB03024FF0010100F3B68001FA7D
:1072D00003F3119300230C9309EB0208049BC145AF
:1072E00017441F444B46A8BF4346BB42A8BF3B467A
:1072F000002BC2BFA8EB0308FF1AA9EB0309109BE0
:10730000002B17DD31461A46204600F0A7FF06463F
:1073100000283FF4ADAE01461E9A204600F002FF61
:107320000F9000283FF4A4AE1E99204600F00EFEF8
:107330000F9B1E93B8F1000F00F39180089B002B68
:1073400008DD189A0799204600F088FF079000286A
:107350003FF48EAE002F08DD07993A46204600F034
:10736000CBFF079000283FF483AEB9F1000F08DD92
:1073700031464A46204600F0BFFF064600283FF44B
:1073800077AE079A1E99204601F031F8054600288D
:107390003FF46EAEC3680F930023C360314601F023
:1073A0000AF8002865DA0F9B53EA0A0340F0878049
:1073B000CBF31303002B40F082802BF000431B0D16
:1073C0001B05B3F1D66F7AD96B6913B92B69012B01
:1073D00075DD29460122204600F08EFF3146054624
:1073E00000F0E9FF00286ADD0499554A5B46002950
:1073F00000F0858002EA0B01B1F1D66F7FDCB1F1BC
:107400005C7F7FF7AAAE4F4A0023CDE91632504683
:10741000DDE916235946FEF79FFF0B46034308BFDD
:10742000222382468B4608BF23602BE64FF0FF32B3
:1074300002FA03F303EA0A0ADEE6C8F17F4808F518
:107440007F0808F57B4808F1E20801FA08F30C937D
:10745000119141E700230C93012311933CE71E99FE
:107460004246204600F048FF1E9000287FF466AF99
:10747000FEE55F466ED10F9ACBF3130342B3324A57
:10748000934228D1049B5046EBB12D4A3A40B2F1C9
:10749000D46F4FF0FF3119D8120DC2F16B0301FA0E
:1074A00003F3984217D1294B9F4202D101303FF498
:1074B000DFAD234B3B4003F5801B4FF0000A049BDC
:1074C000002BA0D1DEE54FF0FF33EAE70B46E8E7FB
:1074D00053EA0A0388D00C9BDBB13B42EFD00F9BF1
:1074E000049A50465946C3B1FFF759FB02460B4672
:1074F000DDE90A01FEF77AFD82468B46DFE713409D
:10750000A3F580136FEA135B6FEA0B5B4FF0FF3A52
:10751000D5E7119B13EA0A0FE0E7FFF740FB0246AD
:107520000B46DDE90A01FEF75FFD002200238246DB
:107530008B46FFF779F90028C1D00EE602FCFFFF69
:107540000000F07F00005039FFFF0F00FFFFEF7FCA
:10755000508E0D003146284601F08CF859EC108B06
:1075600010EE100A00224FF080434946FFF770F9F1
:1075700000287CD00F9B002B4CD0954B0022CDE9EE
:107580000C23DFF84C924FF00008924B3B401193D4
:10759000119A914B9A4240F0B280DDE90A23DDE96D
:1075A0000C01A7F1547B4BEC10ABCDE91623CDE9D0
:1075B0000C0100F093FFDDE90C0153EC102BFEF7FA
:1075C000CBFE52465B46FEF711FD0B468149834ACE
:1075D0001940914282465ED90B9B02F1547293424C
:1075E00003D10A9B01333FF443ADDFF8FCB14FF008
:1075F000FF3A1E99204600F0A9FC0799204600F0AA
:10760000A5FC3146204600F0A1FC2946204600F0AA
:107610009DFC13E6BAF1000F1BD1CBF31303F3B9B2
:107620006B4B002240464946FFF708F9D0B9404667
:1076300049466B4B0022FEF78FFE8046894609F1D2
:107640000043CDF868801B93DDE91A23CDE90C23B4
:107650009BE7BAF1010F02D1002F3FF47EAD614BE1
:1076600000228CE7DFF878914FF00008E7E75C4BE9
:10767000404649460022FEF76FFE0F9B8046894632
:1076800033B901F1004312901393DDE91223DDE7D2
:10769000CDE91289F9E703F1547B049B002BA8D1B3
:1076A0002BF00043119A1B0D1B059A42A1D14046B5
:1076B000494601F07BF8FEF721FE02460B464046A4
:1076C0004946FEF791FC0F9ACBF3130343EA0A03F2
:1076D00013438046894653D035A3D3E90023FFF7EF
:1076E000ADF800287FF4CEAC33A3D3E900234046A5
:1076F0004946FFF7C1F800283FF47BAFC2E4049B82
:1077000033B3119BB3F1D46F22D82DA3D3E9002357
:1077100040464946FFF79CF8A0B149464046FFF76E
:10772000B5F8012838BF0120FEF79CFD0F9B80466D
:10773000894613BB01F1004314901593DDE914232E
:10774000CDE90C230D9B119A03F1D6639B1A0D937F
:10775000DDE90C019DED0A0BCDE90C0100F0BEFE48
:10776000DDE90C0153EC102BFEF7F6FDDDE90A23F1
:10777000FEF73CFC82468B468FE7CDE91489DDE7B6
:1077800011A3D3E90023FFF759F8B4E700230E93C0
:10779000199A1D9B1360FFF765BA652B3FF45DAB2B
:1077A000452B3FF45AAB0122FFF792BBAFF30080A9
:1077B0009535A094FFFFDF3F35E5AF350000E03F92
:1077C0000000C0FFFFFFDF419535A094FFFFCF3FD2
:1077D0000000F03F0000F07F0000E07FFFFF9F7C93
:1077E0000000E03F0000F0BFFFFFEF7F0A460146C8
:1077F0000248034B0068FFF7EFB900BF40E30320E6
:10780000A8E303200369B3EB611F2DE9F0434FEABE
:10781000611200F1140445DD11F01F0104EB830631
:1078200004EB82050CD100F110072946B14234D394
:107830009B1A9B00EA1E964238BF0023234415E0A2
:1078400054F82270C1F12008CF4005F1040EA14682
:107850007645F44615D89B1A9A00043A0135AE4293
:1078600038BF0022A318A75007B104331A1BA34244
:107870004FEAA20208BF0023026108BF4361BDE8CE
:10788000F083DCF800C00CFA08FC4CEA070749F862
:10789000047B5EF8047BCF40DAE751F804CB47F86D
:1078A00004CFC3E72346E1E7A0F13003092B02D858
:1078B0002038C0B27047A0F16103052B01D84738CA
:1078C000F7E7A0F14103052B01D82738F1E70020A5
:1078D000704700002DE9F04F2DED028B89B008EEC6
:1078E000100A0493BC4B1B68019318468B469046C4
:1078F000FFF706F9019BDBF800200344824613F8EA
:10790000013C0593931CC2F1FF2202F57F02FE3277
:10791000D1181F4613F8010B00913028F8D0FFF75B
:10792000C3FF044600283AD1019952463846FFF772
:1079300011F90546002868D117F80A0007EB0A0676
:10794000FFF7B2FF002862D03346187830281F4670
:1079500003F10103F9D0FFF7A7FF0123B0FA80F488
:107960006409354600933A46164601323078FFF7EF
:107970009BFF0028F8D1019952463046FFF7EAF8FC
:1079800080B94DB906EB0A052A4616460132307811
:10799000FFF78AFF0028F8D1AD1BAD0004E00024FA
:1079A0002546E0E7002DF7D1337803F0DF03502BB5
:1079B0003BD173782B2B2CD02D2B2ED0711C4FF05C
:1079C00000090878FFF770FF431EDBB2182B2CD894
:1079D000A0F1100211F8010FFFF766FF431EDBB2A2
:1079E000182B1DD9B9F1000F00D052421544CBF825
:1079F0000010E4B1009B002B14BF00270627384677
:107A000009B0BDEC028BBDE8F08F3E46254601244F
:107A1000CAE74FF00009B11CD3E74FF00109FAE7BC
:107A20000A2303FB0202103AD4E73146DFE7F31BD7
:107A3000013B2146072B52DC18EE100A00F052FAE7
:107A40004FF0000B00F11409CAF101030446CDF810
:107A50000890CDF800B00693B74243D30298009B3C
:107A600040F8043BA0EB0900801046012061184655
:107A700000F0FFFA301AD8F80060B04266DD871BCC
:107A80003946204600F04CFE8246A8B17B1E5911B3
:107A900003F01F0259F821104FF0010A0AFA02F20E
:107AA0000A4209D0534505DDB91E204600F038FED4
:107AB000002848D14FF0020A39462046FFF7A2FEBF
:107AC0003D44D8F80830AB424FDA18EE100A214690
:107AD00000F03CFA149A00231360A3278FE70131CA
:107AE0005B10A7E7731E059A039316F8013C9342B7
:107AF00019D0BBF1200F07D1029B009A43F8042B49
:107B00000293002300939B4616F8010CFFF7CCFE6E
:107B1000009B00F00F0000FA0BF0034300930BF101
:107B2000040B039B0DE0039B069A1344BB42E0D376
:107B30001846019907935246FFF70CF8079B002857
:107B4000D7D11E4688E74FF0030AB5E70ADA371A9D
:107B5000214618EE100A3A4600F0CEFBED1B044613
:107B600000F114094FF0000AABE7D8F80400A8426E
:107B70006DDD451BAE4231DCD8F80C30022B23D032
:107B8000032B25D0012B15D1AE4213D1012E0BD1E1
:107B9000049AD8F80430136001232361C9F8003037
:107BA000149B62271C602AE7711E204600F0B8FD76
:107BB0000028EDD118EE100A214600F0C7F9149AFA
:107BC0000023136050271AE7159B002BF2D1DFE743
:107BD000159B002BDCD1EDE77C8F0D006F1EBAF1F9
:107BE000000F31D127B13946204600F099FD824679
:107BF0007B11012159F8233007F01F0701FA07F71D
:107C00001F422946204618BF4AF0020A761BFFF79A
:107C1000F9FDD8F804500227BAF1000F48D0D8F87F
:107C20000C30022B15D0032B17D0012B09D11AF0E1
:107C3000020F06D0D9F800004AEA000A1AF0010F34
:107C40000ED147F0100733E04FF0010AD0E70127CB
:107C5000E2E7159BC3F101031593159B002BF0D0B0
:107C6000D4F8109004F114034FEA890B03EB890157
:107C70004FF0000C184653F8042BB2F1FF3F1CD014
:107C800001320260022F04F114033AD1D8F8002027
:107C9000013AB2420AD17111012253F8213006F0A3
:107CA0001F0602FA06F61E4218BF174647F02007C5
:107CB000149B1C60049B1D60A1E6994243F804CC10
:107CC000D8D8A368994514DB616818EE100A013111
:107CD00000F008F92269023204F10C018246920098
:107CE0000C30FEF773FE214618EE100A00F02EF954
:107CF000544623695A1C04EB8303226101225A6112
:107D0000C0E722694A450BDD01212046FFF77AFDD5
:107D1000D8F808300135AB42FFF6D7AE0127C5E7EA
:107D200016F01F06FAD09B44C6F120065BF8040C3F
:107D300000F09FF9B042E7DBF0E700BFC2F10802B4
:107D4000920070B5C2F120064368046803FA06F594
:107D50002C43D340046040F8043F8842F4D370BD04
:107D600030B50368013311F8014B14B903600120E9
:107D700030BD13F8012BA2F14105192D98BF203217
:107D8000A242F0D00020F3E72DE9F04F0B68016824
:107D90005E1102EB860613F01F0387B018BF04368E
:107DA0000025371F82469046019346F8045CB94689
:107DB0003C460295AB464A784B1C039342B31046AF
:107DC00005910492FFF770FD00284FD1049A0599A0
:107DD000202A18D8029B9B4513DD4C4506D2072D5F
:107DE00004DC2A4649462046FFF7A8FF444550D9FF
:107DF0000023A4F1040944F8043CCDF808B04C4633
:107E00001D460399D7E7292A56D10231CAF8001036
:107E1000BBF1000F50D04C4506D2072D04DC2A469A
:107E200049462046FFF78AFF444534D9A8F10402A9
:107E3000234653F8041B42F8041F9F42F9D23B1B10
:107E400023F0030304330134033EB44288BF042308
:107E50004344002243F8042B9F42FBD23B681BB9EA
:107E6000474527D101233B60052026E00135082D39
:107E70000BF1010B06DD4445C3D9002344F8043C53
:107E80000125043C226800F00F0040EA0212226043
:107E9000B7E70825B5E7019B002BDFD04FF0FF3295
:107EA000C3F1200322FA03F356F8042C1A4046F8D3
:107EB000042CD3E7043FD1E7042007B0BDE8F08FDE
:107EC00082B001B901A942B14BB113780B601278AD
:107ED000101E18BF012002B070471046FBE76FF07C
:107EE0000100F8E770B5466A04460D463EB9102019
:107EF000FCF7E8FFC0E9016660620660C660666A7A
:107F0000F36883B1636ADB6853F82500B8B90121CF
:107F100001FA05F6721D9200204600F022FC60B1C5
:107F2000C0E901560EE021220421204600F019FC90
:107F3000636AF060DB68002BE4D1002070BD02684A
:107F400043F825200023C0E90333F7E770B5466AFC
:107F500005460C463EB91020FCF7B4FFC0E90166A7
:107F600068620660C6603CB16B6A6268DB6853F8A1
:107F70002210216043F8224070BD2DE9F0410E69C6
:107F8000074698460C4601F1140000230568A9B283
:107F900002FB01814FEA114C2D0C02FB05C589B291
:107FA000013301EB05419E4240F8041B4FEA15489E
:107FB000ECDCB8F1000F1BD0A368B34212DC61689F
:107FC00038460131FFF78EFF2269023204F10C01BD
:107FD000054692000C30FEF7F9FC21463846FFF7C3
:107FE000B5FF2C4604EB86030136C3F814802661E6
:107FF0002046BDE8F0812DE9F8430C4615461F46A2
:1080000009220833064693FBF2F3002101229A422B
:1080100020DB3046FFF766FF089B4361092D4FF0D8
:108020000103036119DD04F10909C8462C4418F85D
:10803000013B0146303B0A223046FFF79EFFA04538
:10804000F5D1A5F108044C442D1B6319BB4207DB95
:10805000BDE8F88352000131D9E70A340925F3E776
:1080600014F8013B0146303B0A223046FFF785FFFA
:10807000EBE7030C1B04D3B90004102310F07F4F6F
:1080800004BF0002083310F0704F04BF0001043336
:1080900010F0404F04BF80000233002805DB10F0D1
:1080A000804F03F1010308BF2023184670470023C7
:1080B000E4E7036813F0070201460BD0DA0724D483
:1080C000980749BF5B089B0801200B605CBF0B60F1
:1080D0000220704798B2B0B91B0C102013F0FF0FAC
:1080E00004BF1B0A08301A0704BF1B0904309A0793
:1080F00004BF9B080230DA0703D45B0800F10100DB
:1081000005D00B6070471046E8E70020704720203C
:10811000704710B50C460121FFF7E4FE01224461CF
:10812000026110BD2DE9F04F15460A692B699A428C
:10813000B8BF0B460C46BCBF2C461D462769D5F878
:108140001090A368616807EB0906B342B8BF01311C
:1081500085B0FFF7C7FE00F1140101EB86080B465E
:10816000002243451DD304F1140305F1140203EB6F
:10817000870702EB890302933B1B153B23F00303A4
:10818000043304F11505AF4238BF04230193029B69
:108190000392934208D8002E5ADC066105B0BDE870
:1081A000F08F43F8042BDCE7B2F800A0BAF1000F1F
:1081B00024D004F1140E89464FF0000C5EF8045BE5
:1081C000D9F800B0ABB21FFA8BFB0AFB03B34FEA3E
:1081D000154BD9F8005063444FEA154C0AFB0BC508
:1081E00005EB13459BB243EA0543774549F8043B49
:1081F0004FEA154CE2D8019B41F803C0039BB3F84A
:1082000002900432B9F1000F20D00B6804F1140C75
:108210008E464FF0000ABCF80050BEF802B009FBD1
:1082200005B5AA449BB243EA0A434EF8043B5CF806
:10823000043BBEF800501B0C09FB035303EB1A432D
:1082400067454FEA134AE6D8019D4B5104319EE73A
:1082500058F8043D002BA0D1013E9CE72DE9F843DE
:10826000154612F0030206460F4607D0214C013A8C
:10827000002354F82220FFF780FE0746AD1035D0CA
:10828000746A3CB91020FCF71DFEC0E9014470621D
:108290000460C460D6F82480D8F808404CB940F295
:1082A00071213046FFF735FF0023C8F80800044667
:1082B00003604FF00009EB070AD5394622463046E5
:1082C000FFF730FF394680463046FFF73FFE47460E
:1082D0006D100BD0206838B9224621463046FFF792
:1082E00021FF2060C0F800900446E4E73846BDE86E
:1082F000F88300BF80900D002DE9F0470C464968D7
:10830000236903EB6218A368074691464FEA621A95
:1083100008F10106B3423FDB3846FFF7E3FD0023D7
:10832000054600F1140100F110021846534536DBF2
:1083300020692AEAEA7A04F1140319F01F0901EB13
:108340008A0103EB800C2ED0C9F1200E8A46002250
:10835000186800FA09F002434AF8042B53F8042B7A
:108360009C4522FA0EF2F3D8ACEB0403153B23F044
:108370000303043304F11500604588BF0423CA5089
:108380000AB108F10206013E38462E612146FFF788
:10839000DDFD2846BDE8F08701315B00BAE742F811
:1083A000040F0133C2E7043953F8042B41F8042FBA
:1083B0009C45F9D8E7E730B502690C69121B0ED16C
:1083C00000F11403143103EB840001EB840150F835
:1083D000045D51F8044DA54203D005D30122104697
:1083E00030BD8342F3D3FAE74FF0FF32F7E72DE9D0
:1083F000F84F0C460646114620461746FFF7DBFFAE
:10840000051E08D129463046FFF76CFD0123C0E95F
:108410000435BDE8F88FA4BF3B462746304679684F
:10842000A6BF1C4600250125FFF75CFD3E69C5601F
:10843000256907F1140104F1140900F1140E07F184
:10844000100201EB860C09EB8505F246002759F86E
:10845000043B52F804BF1FFA83F817FA8BF71B0C82
:10846000A7EB0808C3EB1B4303EB28431FFA88F86C
:108470001F144D4548EA03434AF8043BE7D82B1B39
:10848000153B23F0030304331534A54238BF0423FE
:10849000194473449E460D4665450ED30CF1030204
:1084A000521A22F0030203398C4538BF00221A44C5
:1084B00052F8043D7BB10661ABE755F8048B17FA1F
:1084C00088F4221402EB1842A4B244EA02444EF8A3
:1084D000044B1714E0E7013EEAE7000082B08DED9F
:1084E000000B019B12491940A1F15071002905DDD3
:1084F00000220B4643EC102B02B070474942B1F109
:10850000A07F4FEA21504FF000024FF0000304DA41
:108510004FF4002141FA00F3ECE7A0F114011E2909
:10852000DABF4FF0004020FA01F101210A46E1E7ED
:108530000000F07FF8B5056900F1140707EB850529
:108540002E1F55F8044C2046FFF793FDC0F1200381
:108550000A28DFF87CC00B6014DCC0F10B0E24FA93
:108560000EF1B74241EA0C0334BF55F8081C002154
:10857000153004FA00F021FA0EF140EA010243EC52
:10858000102BF8BDB7423ABF55F8081CA5F10806F4
:1085900000210B3817D0C0F1200C04FA00F5BE42C0
:1085A00021FA0CF445EA04058CBF56F8044C00246B
:1085B00045F07F5301FA00F024FA0CF443F4401321
:1085C00040EA0402DBE744EA0C030A46D7E700BFAF
:1085D0000000F03F2DE9F7438946012157EC106B6D
:1085E0009046FFF77FFCC7F30A550446C7F3130311
:1085F00035BB002E019328D068460096FFF759FD41
:10860000009900B3019AC0F1200302FA03F30B436F
:10861000C24063610192019BA361002B14BF02223F
:1086200001222261D5B1A5F233450544C9F80050B5
:10863000C0F13500C8F80000204603B0BDE8F08363
:1086400043F48013D5E76161E5E701A8FFF731FD49
:10865000019B6361012222612030E3E704EB820386
:10866000A0F23240C9F800001869FFF702FDC0EB24
:108670004210DFE72DE9F74F884669468146FFF74C
:1086800059FF01A9404655EC104BFFF753FFD9F8AD
:108690001030D8F81020A3EB020CDDE900329B1A51
:1086A00003EB4C1351EC100B002BD6BF0A462A46A5
:1086B000C3EB03338B462F46D4BF02EB035B02EBC5
:1086C0000357204610EE102A5B463946FDF76EFF31
:1086D00041EC100B03B0BDE8F08F013970B54911C2
:1086E0001469013102F1140300EB810103EB8404EE
:1086F000051FA3420CD3A31A113B23F0030311322D
:10870000A24288BF002318440023884205D370BDCD
:1087100053F8046B45F8046FEBE740F8043BF4E7CB
:1087200000F1140200694B11984210B511DB0ADD0B
:1087300011F01F0107D052F8234024FA01F000FA8B
:1087400001F18C420BD102EB8303934203D800204A
:1087500010BD0346F7E753F8041D0029F5D00120AA
:10876000F6E713B54A4311460192FCF7CBFB0446EA
:1087700018B1019A0021FEF751F9204602B010BD50
:108780009FED010B704700BF000000000000F87F64
:1087900049B1FF2A85BF8A2303600A704FF0FF307A
:1087A00098BF0120704708467047000038B5002286
:1087B000002304460D46FEF741F828B92046294615
:1087C000BDE83840FEF7D2B8204605F10041FEF77B
:1087D000CDF8404261EB410138BD00BF21400D00A2
:1087E0005D400D0085400D0089400D000000000037
:1087F000436F6E6E656374696E6720746F204D51B0
:1088000054542E2E2E200025730A0052657472795E
:10881000696E67204D51545420636F6E6E656374AA
:10882000696F6E20696E2035207365636F6E6473A7
:108830002E2E0A004D51545420436F6E6E656374A2
:108840006564210A0050696E67696E67204D515456
:1088500054200A00446973636F6E6E656374696EB9
:1088600067200A005075626C697368696E6720251D
:10887000302E3266200A0052656365697665642091
:1088800025302E32662066726F6D204164616672FB
:108890007569742E696F2066656564204665656438
:1088A0004E616D6542200A003C757365726E616DA4
:1088B000653E00696F2E61646166727569742E632E
:1088C0006F6D003C6B65793E003C757365726E613F
:1088D0006D653E2F66656564732F3C466565644E25
:1088E000616D6541003C757365726E616D653E2F0B
:1088F00066656564732F466565644E616D6542000B
:108900000000000000000000C5400D0061430D00A4
:1089100029440D00D5440D0007450D003D440D00D0
:108920007D440D0044726F70706564206120706139
:10893000636B657400556E6B6E6F776E2065727237
:108940006F72004D51545400252525642E25646610
:10895000004661696C656420746F2073756273638F
:108960007269626500436F6E6E656374696F6E2035
:108970006661696C6564005468652053657276654C
:108980007220646F6573206E6F7420737570706FE2
:10899000727420746865206C6576656C206F662043
:1089A000746865204D5154542070726F746F636FFA
:1089B0006C20726571756573746564005468652018
:1089C000436C69656E74206964656E746966696577
:1089D0007220697320636F72726563742055544608
:1089E0002D3820627574206E6F7420616C6C6F7707
:1089F00065642062792074686520536572766572BB
:108A000000546865204D5154542073657276696333
:108A10006520697320756E617661696C61626C6551
:108A200000546865206461746120696E2074686513
:108A30002075736572206E616D65206F72207061A4
:108A40007373776F7264206973206D616C666F72E7
:108A50006D6564004E6F7420617574686F72697A19
:108A6000656420746F20636F6E6E65637400457873
:108A7000636565646564207265636F6E6E656374BB
:108A80002072617465206C696D69742E20506C656C
:108A90006173652074727920616761696E206C6111
:108AA0007465722E00596F75206861766520626565
:108AB000656E2062616E6E65642066726F6D206304
:108AC0006F6E6E656374696E672E20506C6561739E
:108AD0006520636F6E7461637420746865204D5106
:108AE0005454207365727665722061646D696E6995
:108AF00073747261746F7220666F72206D6F72652D
:108B00002064657461696C732E0000000000000031
:108B1000000000000000000000000000A1400D0067
:108B2000A1400D00A1400D00A1400D00A1400D008D
:108B300051890D0065890D0035890D0077890D007B
:108B4000BC890D00018A0D00218A0D00548A0D0098
:108B50006E8A0D00A58A0D000000000000000000D4
:108B6000934F0D00894F0D007F4F0D00754F0D0085
:108B7000694F0D005D4F0D00815C0D00895C0D009B
:108B8000514F0D00494F0D003F4F0D00354F0D0067
:108B9000B95C0D0000000000000000006170700072
:108BA00025592D256D2D25645425483A254D3A2506
:108BB00053257A0061736374696D650000000000DD
:108BC0000000000011530D0001530D0003530D0070
:108BD00000000000000000001D540D0085540D0031
:108BE0005B540D0055500D004D540D001F540D00E9
:108BF0002F540D007F540D003F540D0019540D00EB
:108C0000000000000000000031550D009D550D00D2
:108C100075550D0055500D0045550D0061550D0061
:108C200053550D006F550D0033550D0037550D0090
:108C3000776972696E670072656376206572726F1C
:108C400072203D20256400000000000000000000AC
:108C5000D9560D00FD560D00CF5A0D000B570D00D3
:108C6000DD560D000000000000000000C9400D00AE
:108C700029410D0057560D0071560D0065590D0024
:108C8000D7570D00A9570D009B560D006F580D00CA
:108C9000D55A0D000B580D00195A0D009D560D00A8
:108CA000CF560D0083560D000F570D0089570D004C
:108CB0000000000000000000235C0D00195C0D00A6
:108CC0000F5C0D00D15B0D007D510D00035C0D00AC
:108CD000815C0D00895C0D00F75B0D00EF5B0D0002
:108CE000E55B0D00DB5B0D00B95C0D0000000000D2
:108CF00000000000415C0D004B5C0D00555C0D0058
:108D00005F5C0D00695C0D00755C0D00815C0D0001
:108D1000895C0D00915C0D009D5C0D00A55C0D0053
:108D2000AF5C0D00B95C0D00537431395F53705F57
:108D30006D616B655F7368617265645F7461670024
:108D4000808D0D00288D0D00E08D0D00548D0D00DF
:108D5000048E0D004E31305F5F6378786162697612
:108D60003131375F5F636C6173735F747970655F16
:108D7000696E666F4500000000000000488D0D0020
:108D8000095E0D001D5E0D00B15F0D00B15F0D00AD
:108D9000875E0D00C95D0D006F5E0D00315E0D0038
:108DA000FD5D0D00E08D0D00B08D0D00488D0D00B6
:108DB0004E31305F5F637878616269763132305F5F
:108DC0005F73695F636C6173735F747970655F690A
:108DD0006E666F450000000000000000A48D0D00CD
:108DE000B15E0D00C55E0D00B15F0D00B15F0D00FD
:108DF000875E0D00C95D0D00855F0D00115F0D00E0
:108E0000D95E0D00808D0D000C8E0D0053743974E9
:108E10007970655F696E666F006E6600696E697471
:108E20007900616E0000000035000000CEFBFFFFFE
:108E3000CB0300000100000000000000340000002F
:108E4000CEFBFFFFCB03000001000000000000008C
:108E5000BC89D897B2D29C3C33A7A8D523F6493910
:108E60003DA7F444FD0FA5329D978CCF08BA5B2532
:108E7000436FAC64280668110020202020202020A9
:108E800020202828282828202020202020202020BA
:108E900020202020202020202088101010101010CA
:108EA0001010101010101010100404040404040416
:108EB00004040410101010101010414141414141B0
:108EC0000101010101010101010101010101010192
:108ED00001010101101010101010424242424242A2
:108EE0000202020202020202020202020202020262
:108EF000020202021010101020000000000000000A
:108F00000000000000000000000000000000000061
:108F10000000000000000000000000000000000051
:108F20000000000000000000000000000000000041
:108F30000000000000000000000000000000000031
:108F40000000000000000000000000000000000021
:108F50000000000000000000000000000000000011
:108F60000000000000000000000000000000000001
:108F7000000000000000000000000000A38A0D00B7
:108F8000A7880D00A4E303204300504F5349580025
:108F90000080E03779C34143176E05B5B5B89346F5
:108FA000F5F93FE9034F384D321D30F94877825AC1
:108FB0003CBF737FDD4F1575000000000000F03FDF
:108FC00000000000000024400000000000005940A4
:108FD0000000000000408F40000000000088C340F7
:108FE00000000000006AF8400000000080842E416C
:108FF00000000000D01263410000000084D79741B8
:109000000000000065CDCD41000000205FA00242BD
:10901000000000E876483742000000A2941A6D4232
:10902000000040E59C30A2420000901EC4BCD64225
:1090300000003426F56B0C430080E03779C34143D0
:1090400000A0D8855734764300C84E676DC1AB4346
:10905000003D9160E458E143408CB5781DAF154464
:1090600050EFE2D6E41A4B4492D54D06CFF080443F
:10907000F64AE1C7022DB544B49DD9794378EA4454
:1090800005000000190000007D00000071430D0084
:109090009D4F0D00B14F0D002D500D0089510D0059
:1090A00099510D00C1510D002D5C0D00995D0D0011
:0490B00000000000BC
:1090B400B48B0D0044E30320000000000000000016
:1090C400000000000000000000000000000000009C
:1090D400000000000000000000000000000000008C
:1090E400000000000000000000000000000000007C
:1090F400000000000000000000000000000000006C
:10910400000000000000000000000000000000005B
:109114000000000000000000FF0000004300000009
:10912400000000000000000000000000000000003B
:1091340000000000000000000000000043000000E8
:10914400000000000000000000000000000000001B
:1091540000000000000000000000000043000000C8
:1091640000000000000000000000000000000000FB
:1091740000000000000000000000000043000000A8
:1091840000000000000000000000000000000000DB
:109194000000000000000000000000004300000088
:1091A40000000000000000000000000000000000BB
:1091B4000000000000000000000000004300000068
:1091C400000000000000000000000000000000009B
:1091D4000000000000000000000000004300000048
:1091E400000000000000000000000000000000007B
:1091F40000000000000000000000000091870D0046
:10920400C17E0D0000000000788E0D00A38A0D00C1
:10921400A7880D00A7880D00A7880D00A7880D005A
:10922400A7880D00A7880D00A7880D00A7880D004A
:10923400A7880D00FFFFFFFFFFFFFFFFFFFFFFFFFA
:10924400FFFF0000010041534349490000000000B2
:10925400000000000000000000000000000000000A
:109264000000000000004153434949000000000091
:1092740000000000000000000000000000000000EA
:089284000000000000000000E2
:10928C00FFFFFFFF00000102030405060708090A9F
:10929C000B0C0D0E0F101112131415161718191A9A
:0892AC001B1C1D1E1F202800E1
:0492B40078563412A2
:04000003D0004020C9
:00000001FF
