:02000002D0002C
:1040000000400D0070560D00000006000C00050178
:0840100004014E040000000051
:1040180028520D0009480A49884208B505D0094ABE
:10402800824202D0121A01F0B7F80748074A002165
:10403800121A01F0BCF8014808BD00BF64E3032070
:10404800E0550D00CCE30320CCE30320F0E7032088
:1040580070B500F097FD074C074BE41AA40800253B
:104068001E46A54204D056F8253098470135F8E792
:1040780070BD00BFDC550D00A0550D0000F014B850
:1040880008B500F02BF8BDE8084000F049BD00F085
:1040980033BA00F031BA0078B0FA80F040097047BE
:1040A800012303707047000008B500F0D7FE00F048
:1040B80013FC00F073FC4FF4165100F05DFC00F0A7
:1040C8006DFC00F060FC0028F9D000F067FC0249A4
:1040D800BDE8084000F0CFBD3C520D0038B500F0F7
:1040E8005DFC2A4900F0C7FD41F2883000F0F7FC7A
:1040F8000025012400F0B2FE214600F0F3FB00F099
:10410800ADFE00F0F7FBC0B900F048FC204900F014
:104118009FFD0F2C04D800F041FC1E4900F098FDCB
:1041280000F03CFC1022214600F0DCFD00F036FCDB
:10413800194900F0A0FD013513E0042811D100F061
:104148002DFC164900F084FD0F2C04D800F026FC45
:10415800104900F07DFD00F021FC1022214600F0FE
:10416800C3FD0134E4B27F2CC4D11DB900F016FCA4
:104178000B4902E000F012FC0A4900F07CFD41F214
:104188008830BDE8384000F0AABC00BF49520D0095
:1041980055520D0074520D0076520D007A520D00E2
:1041A80095520D00AB520D0000F00AB900F008B9A5
:1041B80008B5024B1B681B68019308BD4C0203003D
:1041C80008B5024B1B685B68019308BD4C020300ED
:1041D80008B5024B1B681B69019308BD4C0203001C
:1041E80008B5024B1B685B69019308BD4C020300CC
:1041F80008B5024B1B689B69019308BD4C0203007C
:1042080008B5024B1B68DB69019308BD4C0203002B
:1042180008B5024B1B681B6A019308BD4C020300DA
:1042280008B5024B1B685B6A019308BD4C0203008A
:1042380008B5024B1B68DB68019308BD2802030020
:1042480008B5024B1B689B69019308BD280203004F
:1042580008B5024B1B68DB69019308BD28020300FF
:1042680008B5024B1B681B6A019308BD28020300AE
:1042780008B5024B1B685B6A019308BD280203005E
:1042880008B5024B1B689B6A019308BD280203000E
:1042980008B5024B1B68DB6A019308BD28020300BE
:1042A80008B5024B1B681B6B019308BD280203006D
:1042B80008B5024B1B681B6C019308BD280203005C
:1042C80008B5024B1B681B68019308BD3C0203003C
:1042D80008B5024B1B68DB68019308BD3C0203006C
:1042E80008B5024B1B681B69019308BD3C0203001B
:1042F80008B5024B1B685B69019308BD3C020300CB
:1043080008B5024B1B689B69019308BD3C0203007A
:1043180008B5024B1B68DB69019308BD3C0203002A
:1043280008B5024B1B689B6A019308BD3C02030059
:1043380008B5024B1B685B69019308BD6402030062
:1043480008B5024B1B689B68019308BD480203002F
:1043580008B5024B1B681B69019308BD480203009E
:1043680008B5024B1B685B69019308BD480203004E
:1043780008B5024B1B681B6B019308BD480203007C
:1043880008B5024B1B685B6C019308BD480203002B
:1043980008B5024B1B685B68019308BD180203004F
:1043A80008B5024B1B685B69019308BD180203003E
:1043B80008B5024B1B68DB69019308BD3002030096
:1043C80008B5024B1B681B68019308BD2C0203004B
:1043D80008B5024B1B689B68019308BD680203007F
:1043E80008B5024B1B68DB68019308BD680203002F
:1043F80008B5024B1B68DB6B019308BD4402030040
:1044080008B5024B1B685B68019308BD40020300B6
:1044180008B5024B1B689B68019308BD4002030066
:1044280008B5024B1B68DB68019308BD4002030016
:1044380008B5024B1B681B69019308BD40020300C5
:1044480008B5024B1B685B69019308BD4002030075
:1044580008B5024B1B689B69019308BD4002030025
:1044680008B5024B1B68DB69019308BD40020300D5
:1044780008B5024B1B681B6A019308BD4002030084
:1044880008B5024B1B681B6B019308BD4002030073
:1044980008B5024B1B685B6B019308BD4002030023
:1044A80008B5024B1B685B68019308BD2002030036
:1044B80008B5024B1B685B69019308BD2002030025
:1044C80008B5034B1B68D3F88830019308BD00007A
:1044D8002002030008B5034B1B68D3F894300193FE
:1044E80008BD00002002030008B5024B1B681B68CA
:1044F800019308BD1C02030008B5024B1B685B68EA
:10450800019308BD1C02030000231A464068FFF708
:1045180077BF002202214068FFF782BF00221146C0
:104528004068FFF775BF002211464068FFF780BF5B
:1045380000231A4619464068FFF782BF00231A462F
:1045480019464068FFF784BF002281F001014068E6
:10455800FFF786BF00224068FFF792BF002211468E
:104568004068FFF795BF002211464068FFF780BFFB
:104578002DE9F043002495B016460D46074600F095
:104588006DFA214620220CA8009400F010FE40236A
:104598000C9321466B460CAA3046FFF721FF0446D0
:1045A800002844D1024601216868FFF741FF022133
:1045B800804622466868FFF73BFF009E81462146F9
:1045C800002E34D0002932D17368022B02D00A2B76
:1045D80009D02AE0B8F1000F27D0716938460431B4
:1045E80000F069FA20E0B9F1000F1ED074691122B9
:1045F80001A800F0DCFD06238DF8143001AD04F1AC
:1046080008031834186859682A4603C20833A342B5
:104618001546F7D101A906A807AD00F02DFA0FCD70
:104628003C1D0FC42B6823700121F669C8E7009868
:10463800FFF7CEFE384615B0BDE8F083024B034ABB
:104648001A6000225A607047D0E30320BC520D0064
:10465800002211464068FFF7EBBE00221146406871
:10466800FFF706BF002211464068FFF711BF00227E
:104678004068FFF705BF002281F001014068FFF79D
:10468800EFBE00231A4619464068FFF7E1BE002333
:104698001A4619464068FFF7D3BE00221146406803
:1046A800FFF7B6BE002202214068FFF7B9BE00231B
:1046B8001A464068FFF7A4BE024B04225A60024A19
:1046C8001A607047D8E30320F0520D00002211460B
:1046D8004068FFF7CDBE002211464068FFF7D8BEFC
:1046E80000224068FFF7CCBE002281F0010140683B
:1046F800FFF7B6BE00231A4619464068FFF7A8BE62
:1047080000231A4619464068FFF79ABE0022114650
:104718004068FFF78DBE002211464068FFF778BE5B
:10472800002202214068FFF77BBE00231A4640683A
:10473800FFF766BE38B5054678B1046844B1A3688A
:104748001BB103222146204698472046FFF79FFCCD
:104758002846BDE83840FFF79ABC38BD10B1036859
:104768005B681847704710B503680446BBB15868C2
:10477800FFF7E6FD78B923685A7C12B95868FFF745
:10478800E7FD23685868FFF7EBFD206800232360E6
:1047980028B1FFF7CFFF206808B1FFF7CBFF20460D
:1047A80010BD000038B50B4B03600446D0F8CC01AF
:1047B80008B1FFF76EFCD4F8C4512DB12846FFF7B5
:1047C800D2FF2846FFF763FCA06808B1FFF7C6FFD1
:1047D800204638BD24530D0038B50D4C0D4B2360D1
:1047E8000025022304F5E4706360A560C4F8C45191
:1047F800C4F8C851FFF7C4FD074BC4F8CC51236077
:104808002046064A0649BDE8384000F069BB00BFAB
:10481800E0E30320BC520D0024530D00CCE3032039
:10482800AD470D00704710B50446FFF730FC204631
:1048380010BD000070B5084B0360044600250E4605
:1048480040F80C5FFFF794FD30462671FFF7B0FD86
:10485800A560204670BD00BF58530D007047F8B5DD
:10486800064615460C468F18BC4206D0336814F825
:10487800011B9B6830469847F6E72846F8BD00229A
:10488800007CFFF7EDBC0021007CFFF7F1BC0021A4
:10489800007CFFF7F5BC0021007CFFF7F9BC002184
:1048A800007CFFF7FDBC10B50446FFF7F0FB20467F
:1048B80010BD000010B504464FF47A730846A36093
:1048C8000021044B207461602360FFF7F1FC20464F
:1048D80010BD00BF68530D0000231A461946007C1E
:1048E800FFF7A6BC0022007CFFF7AABC0022007CD0
:1048F800FFF7AEBC0121FFF7F9BF4174704770475D
:104908000021007CFFF774BC0121007CFFF770BC1C
:10491800007CFFF765BC007CFFF75ABC38B504463D
:10492800007C0D46FFF75CFC002801DC607C20B1B0
:104938002946207CFFF764FC012038BD007CFFF786
:1049480067BC10B50446FFF7A2FB204610BD000067
:1049580010B50446002363604FF47A73A360054BD7
:10496800236001230846217463741146FFF720FC75
:10497800204610BD90530D000022007CFFF720BC9C
:10498800007CFFF74DBCFFF7FBBF10B514220446AF
:10499800002100F00CFC204610BD000030B50E4D83
:1049A80087B001A8FFF7F1FF296811F0010410D1C1
:1049B8002846FFF770FB60B101AA21460748FFF7B8
:1049C800C7FF2846FFF76CFB054A0649034800F075
:1049D80087FA024807B030BDB0E50320B4E50320EC
:1049E800CCE3032007490D00704710B50446FFF7D4
:1049F8004EFB204610BDF0B5037D062B8DB00E464C
:104A080000F104074FF0000402D000F1080518E097
:104A18000CAD394605F8304D2F232A460A20FFF7FA
:104A280087FC284600F0F4FB33680246DB68294619
:104A3800304698470FE024B12E21304600F00CF99B
:104A4800044415F8011D0A22304600F04BF9BD4216
:104A58000444F0D120460DB0F0BD000010B5054B60
:104A68000446112240F8043B002100F0A0FB204638
:104A780010BD00BFC0530D000346074A10B543F8E8
:104A8800042B01F1100251F8044B43F8044B9142F6
:104A9800F9D10A781A7010BDC0530D0010B59DF8F1
:104AA800084044EA032343EA024242EA016104233C
:104AB8004160037510BD37B50D788B784A78C97891
:104AC80000912946FFF7EAFF03B030BD10B58368AF
:104AD800044613B1032201469847204610BD002121
:104AE800FFF7E6BC08B50C4B33B1FFF757FF036877
:104AF8001B699847002809DC084B63B100F03EF9B0
:104B080003681B699847002803DC08BDAFF30080E1
:104B1800F2E7AFF3008008BD0000000000000000CD
:104B280008B5FFF7DFFFFFF73BFC014B186008BD36
:104B38002CE7032007B5002300931A466FF077018E
:104B4800FFF7C8FC03B05DF804FB000007B5438815
:104B58000A2B08D0502B09D1094B1B683BB103B075
:104B68005DF804EB1847FFF7E5FF06E00023009324
:104B78001A466FF07701FFF7ADFC03B05DF804FB50
:104B8800C8E5032010B5FFF703FC044600F018FB46
:104B9800074B13B12046AFF3008000210448FFF70C
:104BA80027FC00210348BDE81040FFF789BC00BF7F
:104BB80000000000554B0D0010B50446FFF786FFB6
:104BC800204610BD0348044A04490023836000F0CE
:104BD80087B900BFCCE50320CCE30320C14B0D000F
:104BE800024B1A68024B1A60704700BF64E3032047
:104BF800DCE50320014B024A1A607047E0E5032018
:104C0800AD540D00F8B506460D468F180024BD4278
:104C18000CD0336815F8011B9B683046984700286C
:104C280001DB0444F3E7002C08BF04462046F8BD26
:104C380070B505460C46084649B100F0E9FA2B68FC
:104C4800024621462846DB68BDE87040184770BD1B
:104C580008B5FFF7EDFF08BD03689B68184738B52E
:104C68000D210546FFF7F8FF0A2104462846FFF7FD
:104C7800F3FF204438BD38B50546FFF7D9FF044691
:104C88002846FFF7ECFF204438BD30B58BB00B4603
:104C980000218DF82410012A98BF0A220DF123045F
:104CA800B3FBF2F505FB123303F0FF03092B94BFA6
:104CB80030333733DBB2214604F801392B46002D57
:104CC800EED1FFF7B5FF0BB030BD10B42AB90368B9
:104CD8005DF8044B9B68C9B21847D2B25DF8044B23
:104CE800FFF7D3BFFFF7F1BF38B50546FFF7EDFF74
:104CF80004462846FFF7B3FF204438BD7047417487
:104D08007047007CFFF70CBB007CFFF7E9BA007C1A
:104D1800FFF7F6BA007CFFF7EBBA007CFFF7F8BAAA
:104D280010B50446FFF7B3F9204610BD70B5457CB1
:104D380004460E4625B9007CFFF7F2FA002805DD87
:104D48003146207CBDE87040FFF7C2BA284670BDE6
:104D580010B5044608461146002262604FF47A7284
:104D6800A260054A22600122207462741A46FFF785
:104D7800A7FA204610BD00BFE0540D0038B50C4D11
:104D8800296811F0010411D12846FFF784F968B1A8
:104D9800084A094B09482146FFF7DAFF2846FFF77A
:104DA8007FF9074A0749054800F09AF8034838BDD3
:104DB8007CE6032080E60320F8E50320E4E50320F1
:104DC800CCE30320054D0D00044B00204FF6FF7285
:104DD800187058809A80FFF763BB00BF04E7032070
:104DE800002211464068FFF743BB00221146406885
:104DF800FFF74EBB00224068FFF742BB002281F05C
:104E080001014068FFF72CBB00231A461946406889
:104E1800FFF71EBB00231A4619464068FFF710BB70
:104E2800002211464068FFF703BB00221146406884
:104E3800FFF7EEBA002202214068FFF7F1BA00231B
:104E48001A464068FFF7DCBA024B03225A60024A4E
:104E58001A6070470CE7032010550D0038B50B4D4C
:104E6800296811F001040FD12846FFF714F958B149
:104E780021460748FFF71EFD2846FFF711F9054AA6
:104E88000549034800F02CF8014838BD14E7032011
:104E980018E70320CCE3032065480D0070B50C4CDF
:104EA8000C4E0D4D00212046FFF7C4FC20460B4C4C
:104EB8003246294600F014F801212046FFF7BAFCD3
:104EC800324629462046BDE8704000F009B800BFC8
:104ED80030E70320CCE303202D480D0040E70320F2
:104EE8000B460146184600F049B90000184B1A68ED
:104EF800D1075CBF01221A60164B1A68D2075CBF43
:104F080001221A60144B1A68D0075CBF01221A608C
:104F1800124B1A68D1075CBF01221A60104B1A683D
:104F2800D2075CBF01221A600E4B1A68D0075CBF1B
:104F380001221A600C4B1A68D1075CBF01221A6063
:104F48000A4B1A68D2075CBF01221A60704700BF7B
:104F58006CE7032068E7032064E7032060E7032089
:104F68005CE7032058E7032054E7032050E70320B9
:104F7800244B1A68D0075CBF01221A60224B1A68BA
:104F8800D1075CBF01221A60204B1A68D2075CBFA8
:104F980001221A601E4B1A68D0075CBF01221A60F2
:104FA8001C4B1A68D1075CBF01221A601A4B1A6899
:104FB800D2075CBF01221A60184B1A68D0075CBF81
:104FC80001221A60164B1A68D1075CBF01221A60C9
:104FD800144B1A68D2075CBF01221A60124B1A6878
:104FE800D0075CBF01221A60104B1A68D1075CBF5A
:104FF80001221A600E4B1A68D2075CBF01221A60A0
:10500800704700BF9CE7032098E7032094E703203C
:1050180090E703208CE7032088E7032084E7032038
:1050280080E703207CE7032078E7032074E7032068
:1050380070E70320244B1A68D0075CBF01221A606E
:10504800224B1A68D1075CBF01221A60204B1A68EC
:10505800D2075CBF01221A601E4B1A68D0075CBFDA
:1050680001221A601C4B1A68D1075CBF01221A6022
:105078001A4B1A68D2075CBF01221A60184B1A68CB
:10508800D0075CBF01221A60164B1A68D1075CBFB3
:1050980001221A60144B1A68D2075CBF01221A60F9
:1050A800124B1A68D0075CBF01221A60104B1A68AD
:1050B800D1075CBF01221A600E4B1A68D2075CBF89
:1050C80001221A60704700BFCCE70320C8E703201D
:1050D800C4E70320C0E70320BCE70320B8E70320A8
:1050E800B4E70320B0E70320ACE70320A8E70320D8
:1050F800A4E70320A0E70320184B1A68D1075CBF78
:1051080001221A60164B1A68D2075CBF01221A6086
:10511800144B1A68D0075CBF01221A60124B1A6838
:10512800D1075CBF01221A60104B1A68D2075CBF16
:1051380001221A600E4B1A68D0075CBF01221A6060
:105148000C4B1A68D1075CBF01221A600A4B1A6817
:10515800D2075CBF01221A60704700BFECE703204A
:10516800E8E70320E4E70320E0E70320DCE7032087
:10517800D8E70320D4E70320D0E7032010B5054C77
:1051880013462CB10A4601460220AFF3008010BD39
:10519800204610BD0000000010B5431E0A4491428D
:1051A80004D011F8014B03F8014FF8E710BD024491
:1051B8000346934202D003F8011BFAE77047000048
:1051C80038B5124B1C68A36B0546D3B91820FFF7F6
:1051D8008BF943F20E33A06303804AF6CD33438044
:1051E80041F2342383804EF26D63C3804DF6EC6345
:1051F8000381052343810B23838101220023C0E916
:105208000423A36B00221D615A6138BDC8E3032043
:10521800034613F8012B002AFBD1181A01387047EE
:105228001D400D0059400D0085400D0089400D00BE
:10523800000000000A493243205363616E6E6572B4
:10524800005363616E6E696E672E2E2E00493243DD
:105258002064657669636520666F756E6420617485
:1052680020616464726573732030780030002020F8
:105278002100556E6B6E6F77206572726F722061B8
:10528800742061646472657373203078004E6F20F7
:10529800493243206465766963657320666F756E6D
:1052A800640A00646F6E650A0000000000000000D8
:1052B8000000000011450D001B450D0025450D009F
:1052C8002F450D0039450D0045450D0051450D0090
:1052D8005D450D0065450D006F450D0079450D00D4
:1052E8000000000000000000B7460D00AD460D00AC
:1052F800A3460D0059460D0097460D008B460D003C
:105308007F460D0077460D006D460D0063460D0083
:1053180079450D00000000000000000033470D0033
:1053280029470D001F470D0015470D0009470D00BF
:10533800FD460D00F1460D00E9460D00DF460D0063
:10534800D5460D0079450D00000000000000000062
:105358002D480D002F480D0000000000000000003F
:1053680065480D00AF480D0087480D0067480D00DF
:105378008F480D0097480D009F480D00A7480D0065
:10538800000000000000000007490D004B490D0017
:1053980025490D000D4C0D001F490D0009490D0050
:1053A80011490D0045490D0019490D0003490D002B
:1053B8000000000000000000FF490D00F1490D0049
:1053C800F3490D005A00252B3033643A25303275E5
:1053D8000025592D256D2D25645425483A254D3A2B
:1053E8002553257A0061736374696D650066006CE6
:1053F8006E00666E00636F64650064657461696C55
:10540800000D0A00253031307520005D200025642C
:10541800002C200028293A2000205B00636F646577
:10542800203D200025690064657461696C73203D26
:105438002000626175640053657269616C00536590
:105448007269616C31007479706500706172616DA8
:1054580000636D6400696400686E64007374726D43
:105468000066696C74006C766C0061646448616EF7
:10547800646C65720072656D6F766548616E646C08
:10548800657200656E756D48616E646C6572730057
:105498004A534F4E53747265616D4C6F6748616E25
:1054A800646C657200617070006E6F6E6500747276
:1054B80061636500696E666F007761726E00657280
:1054C800726F720070616E696300616C6C0000003D
:1054D8000000000000000000054D0D00294D0D00E2
:1054E800354D0D000D4C0D00114D0D001D4D0D00DD
:1054F800174D0D00234D0D00074D0D000B4D0D00F0
:105508000000000000000000474E0D003D4E0D0059
:10551800334E0D00294E0D001D4E0D00114E0D008D
:10552800054E0D00FD4D0D00F34D0D00E94D0D002C
:1055380079450D0000000000000000000000000098
:105548000000000000000000000000000000000053
:105558000000000000000000000000000000000043
:105568000000000000000000000000000000000033
:105578000000000000000000000000000000000023
:105588000000000000000000000000000000000013
:105598000000000043000000B1410D00B5410D00BE
:1055A80045460D00C1460D00E1470D00CD4B0D00ED
:1055B800E94B0D00FD4B0D00D14D0D00514E0D0076
:1055C800A54E0D00F54E0D00794F0D003D500D0014
:0855D80001510D00000000006C
:1055E000ED530D00000000003C550D005C550D0012
:1055F0007C550D00000000000000000000000000CD
:10560000000000009C550D0000000000000000009C
:10561000000000000000000000000000000000008A
:10562000000000000000000000000000000000007A
:10563000000000000000000000000000000000006A
:085640000000000068E30320F4
:10564800FFFFFFFF00000102030405060708090A1F
:105658000B0C0D0E0F101112131415161718191A1A
:085668001B1C1D1E1F20280061
:045670007856341222
:04000003D0004018D1
:00000001FF
