:02000002D0002C
:1040000000400D0024580D00000006000C000501C2
:084010000401E80500000000B6
:0440180098530D00AC
:10401C0009480A49884208B505D0094A824202D0AB
:10402C00121A01F06FF90748074A0021121A01F021
:10403C0074F9014808BD00BF64E3032094570D00D8
:10404C00CCE30320CCE30320F0E7032070B500F0B1
:10405C0009FC074C074BE41AA40800251E46A54290
:10406C0004D056F8253098470135F8E770BD00BFED
:10407C0088570D0038570D0000F014B808B500F043
:10408C002BF8BDE8084000F0AFBB00F02FBA00F0F1
:10409C002DBA0078B0FA80F0400970470123037004
:1040AC007047000008B500F08FFF00F0C3FD00F072
:1040BC00DFFC4FF4165100F0C9FC00F0D9FC00F005
:1040CC00CCFC0028F9D000F0D3FC0249BDE8084034
:1040DC0000F0D5BAAC530D002DE9F04100F0C8FC4E
:1040EC00244D254A254CDFF8AC80002100F0F1FA74
:1040FC0000232B6001232370274623787E2B24D8A2
:10410C0000F062FF397800F09BFD00F05DFF00F0DD
:10411C009FFD064688F8000050B900F0A9FC3B78DA
:10412C00174A314600F0D5FA2B6801332B6008E0B2
:10413C00042806D100F09CFC3B78124A002100F0C8
:10414C00C8FA237801332370D7E72C682CB900F018
:10415C008FFC0D4A214600F0BCFA00F089FC0B4A9A
:10416C00002100F0B6FA0A4BBDE8F041186800F0E7
:10417C00FDBA00BFD4E30320B9530D00D8E30320EC
:10418C00DA530D00FE530D001F540D0035540D0075
:10419C00D0E30320D9E3032000F01CB800F01AB8D8
:1041AC0000F018B800F016B800F014B800F012B80F
:1041BC0000F010B808B5024B1B689B68019308BD52
:1041CC006802030008B5024B1B68DB68019308BD4D
:1041DC006802030008B5024B1B681B68019308BDFD
:1041EC002C02030008B5024B1B685B68019308BDE9
:1041FC001802030008B5024B1B685B69019308BDEC
:10420C001802030008B5024B1B689B68019308BD9C
:10421C004802030008B5024B1B681B69019308BDDB
:10422C004802030008B5024B1B685B69019308BD8B
:10423C004802030008B5024B1B685B6C019308BD78
:10424C004802030008B5024B1B689B6C019308BD28
:10425C004802030008B5024B1B685B69019308BD5B
:10426C006402030008B5024B1B681B68019308BD70
:10427C003C02030008B5024B1B68DB68019308BDC8
:10428C003C02030008B5024B1B681B69019308BD77
:10429C003C02030008B5024B1B685B69019308BD27
:1042AC003C02030008B5024B1B689B69019308BDD7
:1042BC003C02030008B5024B1B68DB69019308BD87
:1042CC003C02030008B5024B1B689B6A019308BDB6
:1042DC003C02030008B5024B1B68DB68019308BD68
:1042EC002802030008B5024B1B689B69019308BDAB
:1042FC002802030008B5024B1B68DB69019308BD5B
:10430C002802030008B5024B1B681B6A019308BD09
:10431C002802030008B5024B1B685B6A019308BDB9
:10432C002802030008B5024B1B689B6A019308BD69
:10433C002802030008B5024B1B68DB6A019308BD19
:10434C002802030008B5024B1B681B6B019308BDC8
:10435C002802030008B5024B1B681B6C019308BDB7
:10436C002802030008B5024B1B681B68019308BDAB
:10437C004C02030008B5024B1B685B68019308BD37
:10438C004C02030008B5024B1B681B69019308BD66
:10439C004C02030008B5024B1B685B69019308BD16
:1043AC004C02030008B5024B1B689B69019308BDC6
:1043BC004C02030008B5024B1B68DB69019308BD76
:1043CC004C02030008B5024B1B681B6A019308BD25
:1043DC004C02030008B5024B1B685B6A019308BDD5
:1043EC004C02030008B5024B1B685B68019308BDC7
:1043FC002002030008B5024B1B685B69019308BDE2
:10440C002002030008B5034B1B68D3F888300193D6
:10441C0008BD00002002030008B5034B1B68D3F84D
:10442C009430019308BD00002002030008B5024B34
:10443C001B685B68019308BD4002030008B5024B82
:10444C001B689B68019308BD4002030008B5024B32
:10445C001B68DB68019308BD4002030008B5024BE2
:10446C001B681B69019308BD4002030008B5024B91
:10447C001B685B69019308BD4002030008B5024B41
:10448C001B689B69019308BD4002030008B5024BF1
:10449C001B68DB69019308BD4002030008B5024BA1
:1044AC001B681B6A019308BD4002030008B5024B50
:1044BC001B681B6B019308BD4002030008B5024B3F
:1044CC001B685B6B019308BD4002030008B5024BEF
:1044DC001B68DB6B019308BD4402030008B5024B5B
:1044EC001B681B68019308BD1C02030008B5024B36
:1044FC001B685B68019308BD1C02030008B5024BE6
:10450C001B685B6A019308BD1C0203000022114664
:10451C004068FFF7C3BF002211464068FFF7CEBFCB
:10452C0000224068FFF7C2BF002281F00101406801
:10453C00FFF7ACBF00231A4619464068FFF79EBF31
:10454C0000231A4619464068FFF790BF0022114617
:10455C004068FFF783BF002211464068FFF76EBF2B
:10456C00002202214068FFF771BF00231A46406801
:10457C00FFF75CBF024B03225A60024A1A60704775
:10458C00DCE3032060540D0010B50446006818B13C
:10459C00FFF7ACFF0023236010BD10B50446FFF7F6
:1045AC00F3FF204610BD000010B5094C00204FF65B
:1045BC00FF732060A080A07120816381FFF712FF40
:1045CC002046044A0449BDE8104000F023BD00BF5A
:1045DC00E4E30320CCE30320A7450D0010B504460B
:1045EC00006808B1FFF72EFE204610BD10B5064C32
:1045FC00002320462360FFF71DFE2046034A044992
:10460C00BDE8104000F006BDF0E30320CCE303202E
:10461C00E9450D00F8B506460D468F180024BD423D
:10462C000CD0336815F8011B9B683046984700285E
:10463C0001DB0444F3E7002C08BF04462046F8BD18
:10464C0070B505460C46084649B100F097FE2B683C
:10465C00024621462846DB68BDE87040184770BD0D
:10466C0003689B68184738B50D210546FFF7F8FF1E
:10467C000A2104462846FFF7F3FF204438BD38B51D
:10468C000546FFF7DDFF04462846FFF7ECFF204404
:10469C0038BD30B58BB00B4600218DF82410012AA3
:1046AC0098BF0A220DF12304B3FBF2F505FB12337C
:1046BC0003F0FF03092B94BF30333733DBB22146B1
:1046CC0004F801392B46002DEED1FFF7B9FF0BB0E2
:1046DC0030BD0CB42DE9F04387B000AF07F13804BE
:1046EC00054654F8049B3C600E4623464A4614216A
:1046FC00381DFFF703FF132805D8391D2846FFF78F
:10470C009FFF044613E000F1080323F00703E8467B
:10471C00ADEB030D411C23464A4668463C60FFF74F
:10472C00EDFE69462846FFF78BFF0446C5461EB1D1
:10473C002846FFF798FF044420461C37BD46BDE8C9
:10474C00F04302B070470000014B024A1A607047F8
:10475C00F4E30320FF540D00024B1A68024B1A605D
:10476C00704700BF64E30320F8E303200021FFF748
:10477C0041BE10B58368044613B103220146984725
:10478C00204610BD10B50446FFF7F3FF204610BDC0
:10479C000348044A04490023836000F03BBC00BF7B
:1047AC00FCE30320CCE3032091470D0008B50C4B30
:1047BC0033B100F05DF903681B699847002809DCE8
:1047CC00084B63B100F0D2F903681B6998470028C5
:1047DC0003DC08BDAFF30080F2E7AFF3008008BD47
:1047EC00000000000000000008B5FFF7DFFFFFF736
:1047FC0001FD014B186008BD30E703200248034A55
:10480C000349121A00F07EBD00F4032004F40320C7
:10481C0090570D0007B5002300931A466FF07701EF
:10482C00FFF7FAFD03B05DF804FB000007B5438801
:10483C000A2B08D0502B09D1094B1B683BB103B094
:10484C005DF804EB1847FFF7E5FF06E00023009343
:10485C001A466FF07701FFF7DFFD03B05DF804FB3C
:10486C000CE4032038B5104C104D2368AB42104BB0
:10487C000CBF012200221A7002D0FFF7BFFF256087
:10488C00FFF7B0FC044600F051FD0A4B13B1204673
:10489C00AFF3008000210748FFF718FE00210648FF
:1048AC00BDE83840FFF7AEBD00F403201E1C279A6C
:1048BC0010E403200000000039480D00704710B5CB
:1048CC001821044600F0B4FB204610BDF0B5037D62
:1048DC00062B8DB00E4600F104074FF0000402D0F9
:1048EC0000F1080518E00CAD394605F8304D2F23C2
:1048FC002A460A20FFF7AEFC284600F03FFD33683D
:10490C000246DB682946304698470FE024B12E2139
:10491C003046FFF7A5FE044415F8011D0A22304667
:10492C00FFF7B7FEBD420444F0D120460DB0F0BDF8
:10493C0010B5054B0446112240F8043B002100F051
:10494C00ECFC204610BD00BFA0550D000346074AE5
:10495C0010B543F8042B01F1100251F8044B43F845
:10496C00044B9142F9D10A781A7010BDA0550D0074
:10497C0010B59DF8084044EA032343EA024242EA98
:10498C00016104234160037510BD37B50D788B7838
:10499C004A78C97800912946FFF7EAFF03B030BD89
:1049AC0041747047704708B50021007CFFF7FAFC92
:1049BC0030EA200028BF4FF0FF3008BD08B50121B8
:1049CC00007CFFF7EFFC30EA200028BF4FF0FF30EF
:1049DC0008BD08B5007CFFF7DDFC20EAE07008BDDF
:1049EC0008B5007CFFF7CEFC20EAE07008BD007C27
:1049FC00FFF7E8BC10B51421044600F019FB204663
:104A0C0010BD38B50446007C0D46FFF7C3FC0028EA
:104A1C0001DC607C28B12946207CFFF7CBFC20EA26
:104A2C00E07038BD10B50446002363604FF47A7310
:104A3C00A360054B2360012308462174637411465F
:104A4C00FFF790FC204610BDB4550D000022007CF1
:104A5C00FFF790BC007CFFF7BDBCFFF7FBBF10B5A8
:104A6C0014220446002100F058FC204610BD000022
:104A7C0030B50E4D87B001A8FFF7F1FF296811F092
:104A8C00010410D12846FFF704FB60B101AA2146AE
:104A9C000748FFF7C7FF2846FFF700FB054A064902
:104AAC00034800F0B7FA024807B030BD14E4032005
:104ABC0018E40320CCE30320B1490D007047417486
:104ACC00704708B5007CFFF7FDFB20EAE07008BDDD
:104ADC0008B5007CFFF7D6FB20EAE07008BD08B5EE
:104AEC00007CFFF7DFFB30EA200028BF4FF0FF30DF
:104AFC0008BD08B5007CFFF7CDFB30EA200028BFCD
:104B0C004FF0FF3008BD007CFFF7D4BB10B514216B
:104B1C00044600F08DFA204610BD70B5457C044665
:104B2C000E4625B9007CFFF7CDFB002805DD31468C
:104B3C00207CBDE87040FFF79DBB284670BD00008F
:104B4C0010B5044608461146002262604FF47A7292
:104B5C00A260054A22600122207462741A46FFF793
:104B6C0081FB204610BD00BFE4550D0038B50C4D3F
:104B7C00296811F0010411D12846FFF78AFA68B1AF
:104B8C00084A094B09482146FFF7DAFF2846FFF788
:104B9C0085FA074A0749054800F03CFA034838BD36
:104BAC00C4E40320C8E4032040E403202CE40320E5
:104BBC00CCE30320C94A0D007047F8B506461546EC
:104BCC000C468F18BC4206D0336814F8011B9B6846
:104BDC0030469847F6E72846F8BD0022007CFFF7E0
:104BEC0091BB0021007CFFF795BB0021007CFFF7F7
:104BFC0099BB0021007CFFF79DBB0021007CFFF7D7
:104C0C00A1BB10B51421044600F012FA204610BDC9
:104C1C0010B50446002363604FF47A73A360044B11
:104C2C002174084623601146FFF794FB204610BD03
:104C3C0014560D0000231A461946007CFFF74ABB98
:104C4C000022007CFFF74EBB0022007CFFF752BB1A
:104C5C000121FFF7F9BF002211464068FFF71EBC87
:104C6C00002211464068FFF729BC00224068FFF77C
:104C7C001DBC002281F001014068FFF707BC002336
:104C8C001A4601214068FFF7F9BB00231A46194662
:104C9C004068FFF7EBBB002211464068FFF7DEBB14
:104CAC00002211464068FFF7C9BB00220221406870
:104CBC00FFF7CCBB00231A464068FFF7B7BB38B5EB
:104CCC00054688B104684CB1A3681BB10322214688
:104CDC00204698471021204600F0AAF928461421B6
:104CEC00BDE8384000F0A4B938BD10B103685B686A
:104CFC001847704710B503680446BBB15868FFF7F6
:104D0C0081FA78B923685A7C12B95868FFF782FA8D
:104D1C0023685868FFF786FA20680023236028B1BF
:104D2C00FFF7CDFF206808B1FFF7C9FF204610BD83
:104D3C0038B50446D0F8C40108B1FFF7A8F9D4F887
:104D4C00C00108B1FFF77EFAD4F8BC5135B1284642
:104D5C00FFF7D0FF0421284600F06AF9206808B15B
:104D6C00FFF7C3FF204638BD10B5044B044640F88E
:104D7C00083BFFF7DDFF204610BD00BF3C560D0081
:104D8C0038B50E4C0E4B23600025022304F5E4705D
:104D9C006360A560C4F8C451C4F8C851FFF74AFA5F
:104DAC00084BC4F8CC5184F8D05123602046064AF5
:104DBC000649BDE8384000F02DB900BF4CE5032092
:104DCC00A4560D003C560D00CCE30320754D0D0090
:104DDC00002211464068FFF741BB00221146406893
:104DEC00FFF75CBB002211464068FFF767BB00224F
:104DFC004068FFF75BBB002281F001014068FFF7C0
:104E0C0045BB00231A4619464068FFF737BB002301
:104E1C001A4619464068FFF729BB00221146406824
:104E2C00FFF70CBB002202214068FFF70FBB0023E9
:104E3C001A464068FFF7FABA024B04225A60024A3B
:104E4C001A60704720E7032070560D0000231A46A5
:104E5C004068FFF7EBBA002202214068FFF7F6BA70
:104E6C00002211464068FFF7E9BA0022114640685B
:104E7C00FFF7F4BA00231A4619464068FFF7F6BA52
:104E8C0000231A4619464068FFF7F8BA002281F051
:104E9C0001014068FFF7FABA00224068FFF706BB31
:104EAC00002211464068FFF709BB002211464068FA
:104EBC00FFF7F4BA2DE9F043002495B016460D46E1
:104ECC000746FFF735FD214620220CA8009400F080
:104EDC0024FA40230C9321466B460CAA3046FFF76C
:104EEC0071F90446002844D1024601216868FFF795
:104EFC00B5FA0221804622466868FFF7AFFA009E99
:104F0C0081462146002E34D0002932D17368022B01
:104F1C0002D00A2B09D02AE0B8F1000F27D0716912
:104F2C0038460431FFF731FD20E0B9F1000F1ED0F7
:104F3C007469112201A800F0F0F906238DF81430E1
:104F4C0001AD04F108031834186859682A4603C2E5
:104F5C000833A3421546F7D101A906A807ADFFF700
:104F6C00F5FC0FCD3C1D0FC42B6823700121F66995
:104F7C00C8E70098FFF71EF9384615B0BDE8F08376
:104F8C00024B034A1A6000225A60704728E703203C
:104F9C00A4560D0070B5044614252A46094E00216E
:104FAC0000F0BBF9258020253146A56025612846F7
:104FBC0000F040F831466060284600F03BF8E060B5
:104FCC00204670BDD0560D0030B50E4D296811F03D
:104FDC00010487B013D12846FFF75BF878B101A81C
:104FEC00FFF7D8FF01AA21460748FFF711FE284614
:104FFC00FFF754F8054A0649034800F00BF802483D
:10500C0007B030BD34E7032038E70320CCE303209E
:10501C00C54B0D000B460146184600F065B9000063
:10502C00024B1868BFF35F8F704700BF4CE703203B
:10503C00FFF72BB800F000B810B5002814BF0446D9
:10504C0001242046FFF74AFA20B9FFF7E9FF08B11F
:10505C008047F6E710BD0000184B1A68D1075CBFFB
:10506C0001221A60164B1A68D2075CBF01221A6023
:10507C00144B1A68D0075CBF01221A60124B1A68D5
:10508C00D1075CBF01221A60104B1A68D2075CBFB3
:10509C0001221A600E4B1A68D0075CBF01221A60FD
:1050AC000C4B1A68D1075CBF01221A600A4B1A68B4
:1050BC00D2075CBF01221A60704700BF6CE7032067
:1050CC0068E7032064E7032060E703205CE7032024
:1050DC0058E7032054E7032050E70320244B1A68B9
:1050EC00D0075CBF01221A60224B1A68D1075CBF43
:1050FC0001221A60204B1A68D2075CBF01221A6089
:10510C001E4B1A68D0075CBF01221A601C4B1A6830
:10511C00D1075CBF01221A601A4B1A68D2075CBF18
:10512C0001221A60184B1A68D0075CBF01221A6062
:10513C00164B1A68D1075CBF01221A60144B1A680F
:10514C00D2075CBF01221A60124B1A68D0075CBFF1
:10515C0001221A60104B1A68D1075CBF01221A6039
:10516C000E4B1A68D2075CBF01221A60704700BF51
:10517C009CE7032098E7032094E7032090E70320A3
:10518C008CE7032088E7032084E7032080E70320D3
:10519C007CE7032078E7032074E7032070E7032003
:1051AC00244B1A68D0075CBF01221A60224B1A6884
:1051BC00D1075CBF01221A60204B1A68D2075CBF72
:1051CC0001221A601E4B1A68D0075CBF01221A60BC
:1051DC001C4B1A68D1075CBF01221A601A4B1A6863
:1051EC00D2075CBF01221A60184B1A68D0075CBF4B
:1051FC0001221A60164B1A68D1075CBF01221A6093
:10520C00144B1A68D2075CBF01221A60124B1A6841
:10521C00D0075CBF01221A60104B1A68D1075CBF23
:10522C0001221A600E4B1A68D2075CBF01221A6069
:10523C00704700BFCCE70320C8E70320C4E7032076
:10524C00C0E70320BCE70320B8E70320B4E7032042
:10525C00B0E70320ACE70320A8E70320A4E7032072
:10526C00A0E70320184B1A68D1075CBF01221A6013
:10527C00164B1A68D2075CBF01221A60144B1A68CD
:10528C00D0075CBF01221A60124B1A68D1075CBFB1
:10529C0001221A60104B1A68D2075CBF01221A60F7
:1052AC000E4B1A68D0075CBF01221A600C4B1A68AF
:1052BC00D1075CBF01221A600A4B1A68D2075CBF87
:1052CC0001221A60704700BFECE70320E8E70320D7
:1052DC00E4E70320E0E70320DCE70320D8E7032022
:1052EC00D4E70320D0E7032010B5054C13462CB1AE
:1052FC000A4601460220AFF3008010BD204610BDC7
:10530C000000000010B5431E0A44914204D011F86D
:10531C00014B03F8014FF8E710BD024403469342DA
:10532C0002D003F8011BFAE77047000038B5124BA6
:10533C001C68A36B0546D3B91820FFF7CFF843F2CE
:10534C000E33A06303804AF6CD33438041F23423FD
:10535C0083804EF26D63C3804DF6EC6303810523AD
:10536C0043810B23838101220023C0E90423A36B17
:10537C0000221D615A6138BDC8E30320034613F8AF
:10538C00012B002AFBD1181A013870471D400D0063
:10539C0059400D0085400D0089400D0000000000B3
:1053AC000A493243205363616E6E65720053746117
:1053BC007274696E67205363616E3A200A2D2D2D2D
:1053CC002D2D2D2D2D2D2D2D2D2D2D200A0049323D
:1053DC00432064657669636520666F756E64206131
:1053EC007420616464726573732030782532782080
:1053FC000A00556E6B6E6F776E206572726F72203D
:10540C00617420616464726573732030782532781E
:10541C00200A004E6F20493243206465766963652B
:10542C007320666F756E640A002D2D2D2D2D2D2D7C
:10543C002D2D2D2D2D2D2D200A5363616E20436FA4
:10544C006D706C657465210A00000000000000009E
:10545C000000000077450D006D450D0063450D0003
:10546C0059450D004D450D0041450D0035450D00CC
:10547C002D450D0023450D0019450D00C14E0D00A5
:10548C00626175640053657269616C005365726981
:10549C00616C31007479706500706172616D0063CC
:1054AC006D6400696400686E64007374726D0066EC
:1054BC00696C74006C766C0061646448616E646C39
:1054CC0065720072656D6F766548616E646C6572AD
:1054DC0000656E756D48616E646C657273004A533D
:1054EC004F4E53747265616D4C6F6748616E646C9E
:1054FC0065720061707000253031307520005D20C0
:10550C00002564002C200028293A2000205B006331
:10551C006F6465203D200025690064657461696CC9
:10552C0073203D20000D0A0066006C6E00666E0054
:10553C00636F64650064657461696C006E6F6E65A1
:10554C0000747261636500696E666F007761726EDC
:10555C00006572726F720070616E696300616C6CD1
:10556C00005A00252B3033643A253032750025590A
:10557C002D256D2D25645425483A254D3A25532566
:10558C007A0061736374696D6500000000000000AF
:10559C0000000000D9480D00C9480D00CB480D0093
:1055AC000000000000000000B1490D00014A0D0090
:1055BC000F4A0D0021460D00ED490D00B3490D00B9
:1055CC00C9490D00FB490D00DF490D00AD490D0027
:1055DC000000000000000000C94A0D00194B0D002E
:1055EC00274B0D0021460D00DD4A0D00FF4A0D0032
:1055FC00EB4A0D00134B0D00CB4A0D00CF4A0D00AA
:10560C000000000000000000C54B0D000F4C0D0009
:10561C00E74B0D00C74B0D00EF4B0D00F74B0D008A
:10562C00FF4B0D00074C0D000000000000000000B7
:10563C00C14C0D00B74C0D00AD4C0D00A34C0D0032
:10564C00974C0D008B4C0D007F4C0D00774C0D00D2
:10565C006D4C0D00634C0D00C14E0D0000000000A0
:10566C00000000003B4E0D00314E0D00274E0D008A
:10567C00DD4D0D001B4E0D000F4E0D00034E0D00A9
:10568C00FB4D0D00F14D0D00E74D0D00C14E0D0011
:10569C000000000000000000594E0D00634E0D008C
:1056AC006D4E0D00774E0D00814E0D008D4E0D0090
:1056BC00994E0D00A54E0D00AD4E0D00B74E0D00D0
:1056CC00C14E0D00000000000000000000000000B2
:1056DC0000000000000000000000000000000000BE
:1056EC0000000000000000000000000000000000AE
:1056FC00000000000000000000000000000000009E
:10570C00000000000000000000000000000000008D
:10571C00000000000000000000000000000000007D
:10572C00000000000000000043000000A5410D0037
:10573C00A9410D00AD410D00B1410D00B5410D0069
:10574C00B9410D00BD410D0081450D00B5450D0061
:10575C00F9450D0055470D0065470D009D470D009F
:10576C008D4D0D00454E0D008D4F0D0065500D00FB
:10577C00E9500D00AD510D0071520D0000000000FC
:04578C000000000019
:045790000000000015
:105794008E550D0000000000D4560D00F4560D0087
:1057A40014570D000000000000000000000000007D
:1057B4000000000034570D0000000000000000004D
:1057C40000000000000000000000000000000000D5
:1057D40000000000000000000000000000000000C5
:1057E40000000000000000000000000000000000B5
:0857F4000000000068E303203F
:1057FC00FFFFFFFF00000102030405060708090A6A
:10580C000B0C0D0E0F101112131415161718191A64
:08581C001B1C1D1E1F202800AB
:04582400785634126C
:04000003D000401CCD
:00000001FF
