:02000002D0002C
:1040000000400D00F4510D00000006000C000501F9
:084010000401DB0700000000C1
:04401800244F0D0024
:10401C0009480A49884208B505D0094A824202D0AB
:10402C00121A00F037FF0748074A0021121A00F055
:10403C003FFF014808BD00BFD4E5032064510D00CB
:10404C003CE603203CE60320F0E7032070B5074E66
:10405C00074C00F0E3FBA41BA4080025A54200D1EB
:10406C0070BD56F8043B98470135F7E740510D00F9
:10407C0060510D0000F022B808B500F039F8BDE829
:10408C00084000F08DBB00F0FFB900F005BA0078D5
:10409C00B0FA80F0400970470123037070470EB4EA
:1040AC0003B503AB002153F8042B019300F0F3FA92
:1040BC0002B05DF804EB03B07047000008B500F0E7
:1040CC00A9FE00F097FD00F0AFFC4FF4165100F084
:1040DC0099FC00F0A9FC00F09CFC0028F9D000F041
:1040EC00A3FCBDE80840014900F0ADBA384F0D0003
:1040FC002DE9F04100F098FC204D2149214C224E35
:10410C00224FDFF89880FFF7CAFF00232B600123B2
:10411C00237000F07FFE217800F072FD00F07AFE33
:10412C0000F076FD307000BB00F07EFC227841463A
:10413C00FFF7B5FF2B6801332B6023780133DBB21B
:10414C007E2B2370E5D92B6823B900F06DFC104948
:10415C00FFF7A5FF00F068FC0E49FFF7A0FF0E4B20
:10416C00BDE8F041186800F0D9BA0428E5D100F098
:10417C005BFC22783946FFF792FFDEE748E6032026
:10418C00454F0D0040E603204CE603208A4F0D00FE
:10419C00AB4F0D00C14F0D0044E60320664F0D00E0
:1041AC0008B5024B1B689B68019308BD68020300AD
:1041BC0008B5024B1B68DB68019308BD680203005D
:1041CC0008B5024B1B685B68019308BD180203001D
:1041DC0008B5024B1B685B69019308BD180203000C
:1041EC0008B5024B1B685B6C019308BD48020300C9
:1041FC0008B5024B1B689B6C019308BD4802030079
:10420C0008B5024B1B685B69019308BD640203008F
:10421C0008B5024B1B681B68019308BD3C020300E8
:10422C0008B5024B1B68DB68019308BD3C02030018
:10423C0008B5024B1B681B69019308BD3C020300C7
:10424C0008B5024B1B685B69019308BD3C02030077
:10425C0008B5024B1B689B69019308BD3C02030027
:10426C0008B5024B1B68DB69019308BD3C020300D7
:10427C0008B5024B1B689B6A019308BD3C02030006
:10428C0008B5024B1B68DB68019308BD28020300CC
:10429C0008B5024B1B689B69019308BD28020300FB
:1042AC0008B5024B1B68DB69019308BD28020300AB
:1042BC0008B5024B1B681B6A019308BD280203005A
:1042CC0008B5024B1B685B6A019308BD280203000A
:1042DC0008B5024B1B689B6A019308BD28020300BA
:1042EC0008B5024B1B68DB6A019308BD280203006A
:1042FC0008B5024B1B681B6B019308BD2802030019
:10430C0008B5024B1B681B6C019308BD2802030007
:10431C0008B5024B1B681B68019308BD4C020300D7
:10432C0008B5024B1B685B68019308BD4C02030087
:10433C0008B5024B1B681B69019308BD4C020300B6
:10434C0008B5024B1B685B69019308BD4C02030066
:10435C0008B5024B1B689B69019308BD4C02030016
:10436C0008B5024B1B68DB69019308BD4C020300C6
:10437C0008B5024B1B681B6A019308BD4C02030075
:10438C0008B5024B1B685B6A019308BD4C02030025
:10439C0008B5024B1B685B68019308BD2002030043
:1043AC0008B5024B1B685B69019308BD2002030032
:1043BC0008B5034B1B68D3F88830019308BD000087
:1043CC002002030008B5034B1B68D3F8943001930B
:1043DC0008BD00002002030008B5024B1B685B6897
:1043EC00019308BD4002030008B5024B1B689B6893
:1043FC00019308BD4002030008B5024B1B68DB6843
:10440C00019308BD4002030008B5024B1B681B69F1
:10441C00019308BD4002030008B5024B1B685B69A1
:10442C00019308BD4002030008B5024B1B689B6951
:10443C00019308BD4002030008B5024B1B68DB6901
:10444C00019308BD4002030008B5024B1B681B6AB0
:10445C00019308BD4002030008B5024B1B681B6B9F
:10446C00019308BD4002030008B5024B1B685B6B4F
:10447C00019308BD4002030008B5024B1B68DB6BBF
:10448C00019308BD4402030008B5024B1B681B686E
:10449C00019308BD1C02030008B5024B1B685B6846
:1044AC00019308BD1C02030008B5024B1B685B6A34
:1044BC00019308BD1C02030008B5024B1B685B6C22
:1044CC00019308BD1C020300002240681146FFF74F
:1044DC00BBBF002240681146FFF7C6BF40680022F0
:1044EC00FFF7BABF4068002281F00101FFF7A4BFBB
:1044FC00002340681A461946FFF796BF0023406810
:10450C001A461946FFF788BF002240681146FFF78C
:10451C007BBF002240681146FFF766BF406800224F
:10452C000221FFF769BF002340681A46FFF754BF0A
:10453C00024B03225A60024A1A60704750E603206D
:10454C00EC4F0D0010B50446006818B1FFF7A4FF3E
:10455C000023236010BD10B50446FFF7F3FF20467F
:10456C0010BD000010B5094B094C022200201A6046
:10457C00084B2060A080A071A360FFF709FF2046C4
:10458C00054A0649BDE8104000F06CBC64E6032007
:10459C0058E603200000FFFF3CE6032063450D00B6
:1045AC0010B50446006808B1FFF722FE204610BD86
:1045BC0010B5064C002320462360FFF711FE204661
:1045CC00034A0449BDE8104000F04CBC68E60320E7
:1045DC003CE60320AD450D00F8B506460D468F1898
:1045EC000024BD420CD0336815F8011B9B68304683
:1045FC009847031E01DB1C44F3E7002C08BF1C4644
:10460C002046F8BD13B50446084659B1019100F097
:10461C007BFC23680199DB680246204602B0BDE8AA
:10462C001040184702B010BD03689B68184738B596
:10463C000D210546FFF7F8FF0A2104462846FFF72F
:10464C00F3FF204438BD38B50546FFF7DBFF0446C1
:10465C002846FFF7ECFF204438BD30B58BB0002363
:10466C008DF82430012A98BF0A2209AC0D46B1FB03
:10467C00F2F101FB125303F0FF03092B94BF30330B
:10468C003733DBB2AA4204F8013DEFD92146FFF7DC
:10469C00B9FF0BB030BD2DE9F04186B000AF054637
:1046AC000E46381D142114463B60FFF7FDFE1328FF
:1046BC000ED8391D2846FFF7A5FF04461EB1284623
:1046CC00FFF7B5FF044420461837BD46BDE8F0811E
:1046DC0000F1080323F00703E846ADEB030D224677
:1046EC00411C3B686846FFF7DFFE69462846FFF72A
:1046FC0089FF0446C546E1E7014B024A1A60704740
:10470C006CE6032018500D00024B1A68024B1A601D
:10471C00704700BFD4E5032070E603200021FFF7AB
:10472C003FBE10B58368044613B103220146984777
:10473C00204610BD10B50446FFF7F3FF204610BD10
:10474C000348044A04490023836000F08BBB00BF7C
:10475C0074E603203CE6032041470D00014B186032
:10476C00704700BFD8E5032008B50B4B43B100F0F0
:10477C005BF903681B699847002801DDAFF30080E3
:10478C00064B43B100F0CEF903681B69984700282B
:10479C0001DDAFF3008008BD000000000000000048
:1047AC0008B5FFF7E1FFFFF713FD014B186008BDDB
:1047BC00D4E703200248034A0349121A00F06ABBEB
:1047CC0000F4032004F4032060510D0007B500230E
:1047DC0000931A466FF07701FFF7F4FD03B05DF814
:1047EC0004FB000007B543880A2B08D0502B0BD1D3
:1047FC00094B1B684BB103B05DF804EB1847FFF78E
:10480C00E5FF03B05DF804FB002300931A466FF03C
:10481C007701FFF7D7FDF4E788E6032038B5124C93
:10482C001248134D0021FFF747FE2368AB42114B92
:10483C000CBF012200221A7002D0FFF7BBFF2560CB
:10484C00FFF7BEFC044600F03BFB0B4B13B12046BC
:10485C00AFF3008000210848FFF70EFEBDE838409A
:10486C0006480021FFF7A4BD00F4032069470D00A2
:10487C001E1C279A84E6032000000000F1470D005F
:10488C00704710B51821044600F0F1FA204610BD0F
:10489C00F0B5037D062B8DB00E4600F104074FF0EA
:1048AC00000412D000F1080515F8011D0A2230464B
:1048BC00FFF7D3FEAF42044419D0002CF4D02E21C4
:1048CC003046FFF7B1FE0444EEE72F236A46394623
:1048DC000A208DF80040FFF793FC684600F014FBAB
:1048EC0033680246DB6869463046984704462046E2
:1048FC000DB0F0BD10B5054B0446112240F8043B39
:10490C00002100F0D5FA204610BD00BF40500D002C
:10491C000346074A10B543F8042B01F1100251F875
:10492C00044B43F8044B9142F9D10A781A7010BD2C
:10493C0040500D0010B59DF8084044EA032343EAAB
:10494C00024242EA016104234160037510BD13B5B4
:10495C00CB7800938B784A780978FFF7EBFF02B09D
:10496C0010BD41747047704708B50021007CFFF7FB
:10497C00EFFC40EAE07008BD08B50121007CFFF7B0
:10498C00E7FC40EAE07008BD08B5007CFFF7D8FCF6
:10499C0020EAE07008BD08B5007CFFF7C9FC20EAEE
:1049AC00E07008BD13B50446007C0191FFF7C8FC0C
:1049BC000028019901DC607C20B1207CFFF7D0FC41
:1049CC0020EAE07002B010BD007CFFF7D1BC10B53E
:1049DC001421044600F04BFA204610BD10B54FF4DC
:1049EC007A73044608460021C4E90113044B236082
:1049FC000123207463741146FFF78AFC204610BD16
:104A0C0054500D00007C0022FFF78ABC007CFFF79D
:104A1C00B7BCFFF7FBBF10B514220446002100F011
:104A2C0047FA204610BD000010B5104C88B003A802
:104A3C00FFF7F1FF2178BFF35B8F11F0010111D16A
:104A4C0020460191FFF723FB019958B103AA0848AE
:104A5C00FFF7C4FF2046FFF71FFB064A0649044830
:104A6C0000F000FA024808B010BD00BF8CE603202D
:104A7C0090E603203CE6032073490D007047417417
:104A8C00704708B5007CFFF7F3FB20EAE07008BD27
:104A9C0008B5007CFFF7CCFB20EAE07008BD08B538
:104AAC00007CFFF7D5FB40EAE07008BD08B5007C40
:104ABC00FFF7C6FB40EAE07008BD007CFFF7D0BBF7
:104ACC0037B5457C04462DB1207C03B0BDE83040A1
:104ADC00FFF7A6BB007C0191FFF7CAFB00280199E8
:104AEC00F2DC284603B030BD10B51421044600F0AA
:104AFC00BEF9204610BD000010B54FF0000C044666
:104B0C00084611464FF47A72C4E901C2044A226085
:104B1C000122207462741A46FFF77AFB204610BDFE
:104B2C0084500D0013B50E4C2178BFF35B8F11F040
:104B3C00010112D120460191FFF7A9FA019960B148
:104B4C00084A094B0948FFF7D7FF2046FFF7A4FA9C
:104B5C00074A0849054800F085F9044802B010BD21
:104B6C00A4E60320A8E603202CE70320B0E70320EB
:104B7C003CE60320894A0D007047F8B506461546F9
:104B8C000C468F18BC4206D0336814F8011B9B6886
:104B9C0030469847F6E72846F8BD007C0022FFF720
:104BAC0087BB007C0021FFF78BBB007C0021FFF74B
:104BBC008FBB007C0021FFF793BB007C0021FFF72B
:104BCC0097BB10B51421044600F051F9204610BDD6
:104BDC0010B54FF47A73044608460021C4E901135A
:104BEC00034B236020741146FFF78AFB204610BD4F
:104BFC00B4500D000023007C1A461946FFF740BB49
:104C0C00007C0022FFF744BB007C0022FFF748BB6E
:104C1C000121FFF7F9BF002240681146FFF7F4BBF2
:104C2C00002240681146FFF70FBC00224068114675
:104C3C00FFF71ABC40680022FFF70EBC4068002248
:104C4C0081F00101FFF7F8BB002340681A461946B2
:104C5C00FFF7EABB002340681A461946FFF7DCBB96
:104C6C00002240681146FFF7BFBB406800220221BA
:104C7C00FFF7C2BB002340681A46FFF7ADBB00002C
:104C8C00024B04225A60024A1A607047C4E70320A0
:104C9C00DC500D00002340681A46FFF79DBB4068AE
:104CAC0000220221FFF7A8BB002240681146FFF743
:104CBC009BBB002240681146FFF7A6BB002340684F
:104CCC001A461946FFF7A8BB002340681A46194636
:104CDC00FFF7AABB4068002281F00101FFF7ACBBD3
:104CEC0040680022FFF7B8BB002240681146FFF76E
:104CFC00BBBB002240681146FFF7A6BB2DE9F04371
:104D0C00002495B016460D460746FFF7F3FD2146E5
:104D1C0018220EA8009400F0CBF84023CDE90C34F7
:104D2C0021466B460CAA3046FFF742FA044600288F
:104D3C0046D1024601216868FFF766FB02218046D6
:104D4C0022466868FFF760FB009E81462146002ED4
:104D5C0036D0002934D17368022B03D00A2B0BD028
:104D6C00F669F4E7B8F1000F04D0716938460431E4
:104D7C00FFF7EDFD4146F3E7B9F1000F01D14946CC
:104D8C00EEE77469102201A800F092F806238DF862
:104D9C00143001AD04F108031834186859682A4618
:104DAC0003C20833A3421546F7D101A906A807ADE3
:104DBC00FFF7AEFD0FCD3C1D0FC42B682370DEE753
:104DCC000098FFF7EDF9384615B0BDE8F083000008
:104DDC00024B034A1A6000225A607047CCE703204A
:104DEC0010510D0038B500232025438014230446B0
:104DFC000380856005610649284600F03AF80449AD
:104E0C006060284600F035F8E060204638BD00BFF1
:104E1C003C510D0030B50F4D2978BFF35B8F11F06D
:104E2C00010487B013D12846FFF731F978B101A8F6
:104E3C00FFF7D8FF01AA21460748FFF7C9FE28460D
:104E4C00FFF72AF9054A0649034800F00BF8024817
:104E5C0007B030BDD8E70320DCE703203CE6032095
:104E6C00854B0D000B460146184600F005B8FFF7C0
:104E7C000CB9FFF708B9000010B5054C13462CB15E
:104E8C000A4601460220AFF3008010BD2046FCE725
:104E9C00000000000A44914200F1FF3300D170473A
:104EAC0010B511F8014B03F8014F9142F9D110BD27
:104EBC0002440346934200D1704703F8011BF9E703
:104ECC0038B50D4B1D68AB6B04467BB91820FFF74A
:104EDC00DBFA0A4A0A4BA863C0E90023094B83603A
:104EEC000B23838101220023C0E90423AB6B002236
:104EFC001C615A6138BD00BFD8E503200E33CDAB21
:104F0C0034126DE6ECDE0500034613F8012B002A83
:104F1C00FBD1181A013870471D400D0059400D0087
:104F2C0081400D0085400D00000000000A4932430D
:104F3C00205363616E6E6572005374617274696E96
:104F4C0067205363616E3A200A2D2D2D2D2D2D2DAA
:104F5C002D2D2D2D2D2D2D200A0049324320646539
:104F6C007669636520666F756E6420617420616478
:104F7C006472657373203078253278200A00556E80
:104F8C006B6E6F776E206572726F72206174206128
:104F9C00646472657373203078253278200A004E71
:104FAC006F20493243206465766963657320666FB0
:104FBC00756E640A002D2D2D2D2D2D2D2D2D2D2DA5
:104FCC002D2D2D200A5363616E20436F6D706C651F
:104FDC007465210A000000000000000000000000C1
:104FEC0033450D0029450D001F450D0015450D00DD
:104FFC0009450D00FD440D00F1440D00E9440D0080
:10500C00DF440D00D5440D00094D0D00617070009A
:10501C0025592D256D2D25645425483A254D3A25C5
:10502C0053257A0061736374696D6500000000009C
:10503C00000000009D480D008D480D008F480D00AC
:10504C00000000000000000073490D00DB490D005A
:10505C00B1490D00E5450D00A3490D0075490D0042
:10506C0085490D00D5490D0095490D006F490D007E
:10507C000000000000000000894A0D00F54A0D00F8
:10508C00CD4A0D00E5450D009D4A0D00B94A0D00B5
:10509C00AB4A0D00C74A0D008B4A0D008F4A0D001C
:1050AC000000000000000000854B0D00CF4B0D00F0
:1050BC00A74B0D00874B0D00AF4B0D00B74B0D00F0
:1050CC00BF4B0D00C74B0D0000000000000000009E
:1050DC00814C0D00774C0D006D4C0D00234C0D00D8
:1050EC00614C0D00554C0D00494C0D00414C0D0010
:1050FC00374C0D002D4C0D00094D0D00000000002B
:10510C0000000000A14C0D00AB4C0D00B54C0D0087
:10511C00BF4C0D00C94C0D00D54C0D00E14C0D00E1
:10512C00ED4C0D00F54C0D00FF4C0D00094D0D0024
:10513C00000000003D450D0071450D00BD450D0002
:10514C0005470D0015470D004D470D008D4C0D000A
:04515C00DD4D0D0018
:04516000000000004B
:1051640030500D00DCE503200000000000000000CA
:10517400000000000000000000000000000000002B
:10518400000000000000000000000000000000001B
:10519400000000000000000000000000000000000B
:1051A40000000000000000000000000000000000FB
:1051B40000000000000000000000000000000000EB
:0851C4000000000000000000E3
:1051CC00FFFFFFFF00000102030405060708090AA0
:1051DC000B0C0D0E0F101112131415161718191A9B
:0851EC001B1C1D1E1F202800E2
:0451F40078563412A3
:04000003D000401CCD
:00000001FF
