:02000002D0002C
:1040000000400D0084570D00000006000C00050163
:084010000401DE0500000000C0
:0440180030530D0014
:10401C0009480A49884208B505D0094A824202D0AB
:10402C00121A01F03BF90748074A0021121A01F055
:10403C0040F9014808BD00BF70E30320F4560D00A1
:10404C00D8E30320D8E30320F0E7032070B500F099
:10405C00B5FD074C074BE41AA40800251E46A542E3
:10406C0004D056F8253098470135F8E770BD00BFED
:10407C00EC560D009C560D0000F014B808B500F07D
:10408C002BF8BDE8084000F05BBD00F037BA00F03B
:10409C0035BA0078B0FA80F04009704701230370FC
:1040AC007047000008B500F05BFF00F00DFC00F05D
:1040BC0085FC4FF4165100F06FFC00F07FFC00F013
:1040CC0072FC0028F9D000F079FC0249BDE80840E8
:1040DC0000F0FFBD44530D0070B500F06FFC2B4990
:1040EC0000F0F7FD4FF47A7000F009FD0124002573
:1040FC0000F036FFE1B200F0EDFB00F031FF00F014
:10410C00F1FBC0B900F05AFC214900F0CFFD0F2C97
:10411C0004D800F053FC1F4900F0C8FD00F04EFC21
:10412C001022214600F0DFFD00F048FC1A4900F097
:10413C00D0FD013517E0042815D100F03FFC1749DC
:10414C0000F0B4FD0F2C04D800F038FC114900F03D
:10415C00ADFD00F033FC10220646214600F0C3FDF5
:10416C00304600F0AAFD01347F2CC1D11DB900F0FE
:10417C0025FC0B4902E000F021FC0A4900F0A9FDE6
:10418C0041F28830BDE8704000F0B9BC51530D00CD
:10419C005D530D007C530D007E530D0082530D00BA
:1041AC009D530D00B3530D0000F00CB900F00AB98B
:1041BC0000F008B900F006B900F004B900F002B93B
:1041CC0000F000B908B5024B1B681B68019308BDD1
:1041DC004C02030008B5024B1B685B68019308BDD9
:1041EC004C02030008B5024B1B681B69019308BD08
:1041FC004C02030008B5024B1B685B69019308BDB8
:10420C004C02030008B5024B1B689B69019308BD67
:10421C004C02030008B5024B1B68DB69019308BD17
:10422C004C02030008B5024B1B681B6A019308BDC6
:10423C004C02030008B5024B1B685B6A019308BD76
:10424C004C02030008B5024B1B68DB68019308BDE8
:10425C002802030008B5024B1B689B69019308BD3B
:10426C002802030008B5024B1B68DB69019308BDEB
:10427C002802030008B5024B1B681B6A019308BD9A
:10428C002802030008B5024B1B685B6A019308BD4A
:10429C002802030008B5024B1B689B6A019308BDFA
:1042AC002802030008B5024B1B68DB6A019308BDAA
:1042BC002802030008B5024B1B681B6B019308BD59
:1042CC002802030008B5024B1B681B6C019308BD48
:1042DC002802030008B5024B1B681B68019308BD3C
:1042EC003C02030008B5024B1B68DB68019308BD58
:1042FC003C02030008B5024B1B681B69019308BD07
:10430C003C02030008B5024B1B685B69019308BDB6
:10431C003C02030008B5024B1B689B69019308BD66
:10432C003C02030008B5024B1B68DB69019308BD16
:10433C003C02030008B5024B1B689B6A019308BD45
:10434C003C02030008B5024B1B685B69019308BD76
:10435C006402030008B5024B1B689B68019308BDFF
:10436C004802030008B5024B1B681B69019308BD8A
:10437C004802030008B5024B1B685B69019308BD3A
:10438C004802030008B5024B1B685B6C019308BD27
:10439C004802030008B5024B1B689B6C019308BDD7
:1043AC004802030008B5024B1B685B68019308BD0B
:1043BC001802030008B5024B1B685B69019308BD2A
:1043CC001802030008B5024B1B681B68019308BD5B
:1043DC002C02030008B5024B1B689B68019308BDB7
:1043EC006802030008B5024B1B68DB68019308BD2B
:1043FC006802030008B5024B1B68DB6B019308BD18
:10440C004402030008B5024B1B685B68019308BDAE
:10441C004002030008B5024B1B689B68019308BD62
:10442C004002030008B5024B1B68DB68019308BD12
:10443C004002030008B5024B1B681B69019308BDC1
:10444C004002030008B5024B1B685B69019308BD71
:10445C004002030008B5024B1B689B69019308BD21
:10446C004002030008B5024B1B68DB69019308BDD1
:10447C004002030008B5024B1B681B6A019308BD80
:10448C004002030008B5024B1B681B6B019308BD6F
:10449C004002030008B5024B1B685B6B019308BD1F
:1044AC004002030008B5024B1B685B68019308BD12
:1044BC002002030008B5024B1B685B69019308BD21
:1044CC002002030008B5034B1B68D3F88830019316
:1044DC0008BD00002002030008B5034B1B68D3F88D
:1044EC009430019308BD00002002030008B5024B74
:1044FC001B681B68019308BD1C02030008B5024B26
:10450C001B685B68019308BD1C02030000231A465C
:10451C004068FFF777BF002202214068FFF782BF97
:10452C00002211464068FFF775BF00221146406813
:10453C00FFF780BF00231A4619464068FFF782BF79
:10454C0000231A4619464068FFF784BF002281F009
:10455C0001014068FFF786BF00224068FFF792BF59
:10456C00002211464068FFF795BF002211464068B3
:10457C00FFF780BF2DE9F043002495B016460D4699
:10458C00074600F07BFA214620220CA8009400F08C
:10459C0090FE40230C9321466B460CAA3046FFF745
:1045AC0021FF0446002844D1024601216868FFF728
:1045BC0041FF0221804622466868FFF73BFF009EC0
:1045CC0081462146002E34D0002932D17368022B4B
:1045DC0002D00A2B09D02AE0B8F1000F27D071695C
:1045EC003846043100F077FA20E0B9F1000F1ED004
:1045FC007469112201A800F05CFE06238DF81430BA
:10460C0001AD04F108031834186859682A4603C22E
:10461C000833A3421546F7D101A906A807AD00F04F
:10462C003BFA0FCD3C1D0FC42B6823700121F6699A
:10463C00C8E70098FFF7CEFE384615B0BDE8F0830A
:10464C00024B034A1A6000225A607047DCE30320D5
:10465C00C4530D00002211464068FFF7EBBE002248
:10466C0011464068FFF706BF002211464068FFF76D
:10467C0011BF00224068FFF705BF002281F0010145
:10468C004068FFF7EFBE00231A4619464068FFF753
:10469C00E1BE00231A4619464068FFF7D3BE00223C
:1046AC0011464068FFF7B6BE002202214068FFF7B2
:1046BC00B9BE00231A464068FFF7A4BE024B042281
:1046CC005A60024A1A607047E4E30320F8530D0065
:1046DC00002211464068FFF7CDBE0022114640680B
:1046EC00FFF7D8BE00224068FFF7CCBE002281F055
:1046FC0001014068FFF7B6BE00231A46012140684D
:10470C00FFF7A8BE00231A4619464068FFF79ABE69
:10471C00002211464068FFF78DBE0022114640680A
:10472C00FFF778BE002202214068FFF77BBE002312
:10473C001A464068FFF766BE38B5054688B104686E
:10474C004CB1A3681BB10322214620469847102187
:10475C00204600F039FC28461421BDE8384000F012
:10476C0033BC38BD10B103685B681847704710B58F
:10477C0003680446BBB15868FFF7ECFD78B92368B1
:10478C005A7C12B95868FFF7EDFD23685868FFF79B
:10479C00F1FD20680023236028B1FFF7CDFF2068CE
:1047AC0008B1FFF7C9FF204610BD38B50446D0F854
:1047BC00C40108B1FFF76BFCD4F8C00108B1FFF7D6
:1047CC00E9FDD4F8BC5135B12846FFF7D0FF0421E0
:1047DC00284600F0F9FB206808B1FFF7C3FF20461C
:1047EC0038BD000010B5044B044640F8083BFFF7F9
:1047FC00DCFF204610BD00BF2C540D0038B50E4C0C
:10480C000E4B23600025022304F5E4706360A56061
:10481C00C4F8C451C4F8C851FFF7B4FD084BC4F830
:10482C00CC5184F8D05123602046064A0649BDE895
:10483C00384000F0BBBB00BFECE30320C4530D00B9
:10484C002C540D00D8E30320F1470D007047F8B548
:10485C00064615460C468F18BC4206D0336814F831
:10486C00011B9B6830469847F6E72846F8BD0022A6
:10487C00007CFFF7FFBC0021007CFFF703BD00218B
:10488C00007CFFF707BD0021007CFFF70BBD00216A
:10489C00007CFFF70FBD10B51421044600F094FB0B
:1048AC00204610BD10B50446002363604FF47A73A4
:1048BC00A360044B2174084623601146FFF702FDE8
:1048CC00204610BD60540D0000231A461946007C8A
:1048DC00FFF7B8BC0022007CFFF7BCBC0022007CB8
:1048EC00FFF7C0BC0121FFF7F9BF41747047704757
:1048FC0008B50021007CFFF785FC30EA200028BFBA
:10490C004FF0FF3008BD08B50121007CFFF77AFCA1
:10491C0030EA200028BF4FF0FF3008BD08B5007CFE
:10492C00FFF768FC20EAE07008BD08B5007CFFF7D3
:10493C0059FC20EAE07008BD007CFFF773BC10B591
:10494C001421044600F040FB204610BD38B5044647
:10495C00007C0D46FFF74EFC002801DC607C28B182
:10496C002946207CFFF756FC20EAE07038BD000099
:10497C0010B50446002363604FF47A73A360054BB3
:10498C00236001230846217463741146FFF71AFC57
:10499C00204610BD88540D000022007CFFF71ABC85
:1049AC00007CFFF747BCFFF7FBBF10B51422044691
:1049BC00002100F07EFC204610BD000030B50E4DED
:1049CC0087B001A8FFF7F1FF296811F0010410D19D
:1049DC002846FFF75EFB60B101AA21460748FFF7A6
:1049EC00C7FF2846FFF75AFB054A0649034800F063
:1049FC00DDFA024807B030BDC0E50320C4E5032052
:104A0C00D8E30320FB480D00704710B5182104466D
:104A1C0000F0DAFA204610BDF0B5037D062B8DB000
:104A2C000E4600F104074FF0000402D000F1080517
:104A3C0018E00CAD394605F8304D2F232A460A20D4
:104A4C00FFF780FC284600F065FC33680246DB6803
:104A5C002946304698470FE024B12E21304600F00D
:104A6C0029F9044415F8011D0A22304600F03BF9DF
:104A7C00BD420444F0D120460DB0F0BD10B5054B3D
:104A8C000446112240F8043B002100F012FC2046A1
:104A9C0010BD00BFB8540D000346074A10B543F8CB
:104AAC00042B01F1100251F8044B43F8044B9142D2
:104ABC00F9D10A781A7010BDB8540D0010B59DF8D4
:104ACC00084044EA032343EA024242EA0161042318
:104ADC004160037510BD37B50D788B784A78C9786D
:104AEC0000912946FFF7EAFF03B030BD10B583688B
:104AFC00044613B1032201469847204610BD0021FD
:104B0C00FFF7D8BC08B50C4B33B1FFF757FF036860
:104B1C001B699847002809DC084B63B100F078F951
:104B2C0003681B699847002803DC08BDAFF30080BD
:104B3C00F2E7AFF3008008BD0000000000000000A9
:104B4C0008B5FFF7DFFFFFF735FC014B186008BD18
:104B5C0048E703200248034A0349121A00F09EBB9F
:104B6C0000F4032004F40320F0560D0007B50023D5
:104B7C0000931A466FF07701FFF7AEFC03B05DF8B7
:104B8C0004FB000007B543880A2B08D0502B09D131
:104B9C00094B1B683BB103B05DF804EB1847FFF7FA
:104BAC00E5FF06E0002300931A466FF07701FFF74C
:104BBC0093FC03B05DF804FBD8E5032038B5104C2A
:104BCC00104D2368AB42104B0CBF012200221A700F
:104BDC0002D0FFF7BFFF2560FFF7E4FB044600F0AF
:104BEC0071FB0A4B13B12046AFF30080002107483C
:104BFC00FFF700FC00210648BDE83840FFF762BC17
:104C0C0000F403201E1C279ADCE5032000000000A2
:104C1C00914B0D0010B50446FFF768FF204610BD00
:104C2C000348044A04490023836000F0BFB900BF65
:104C3C00E0E50320D8E30320214C0D00024B1A6859
:104C4C00024B1A60704700BF70E30320F0E50320AD
:104C5C00014B024A1A607047F4E5032060550D00C1
:104C6C00F8B506460D468F180024BD420CD03368AB
:104C7C0015F8011B9B6830469847002801DB04445B
:104C8C00F3E7002C08BF04462046F8BD70B5054676
:104C9C000C46084649B100F03DFB2B680246214604
:104CAC002846DB68BDE87040184770BD08B5FFF7B3
:104CBC00EDFF08BD03689B68184738B50D21054604
:104CCC00FFF7F8FF0A2104462846FFF7F3FF2044BC
:104CDC0038BD38B50546FFF7D9FF04462846FFF71F
:104CEC00ECFF204438BD30B58BB00B4600218DF85D
:104CFC002410012A98BF0A220DF12304B3FBF2F50C
:104D0C0005FB123303F0FF03092B94BF3033373309
:104D1C00DBB2214604F801392B46002DEED1FFF70A
:104D2C00B5FF0BB030BD10B50446006808B1FFF7F5
:104D3C0031FB204610BD000010B5064C0023204668
:104D4C002360FFF71FFB2046034A0449BDE81040CF
:104D5C0000F02CB9F8E50320D8E30320334D0D0007
:104D6C0070474174704708B5007CFFF7E3FA20EAFE
:104D7C00E07008BD08B5007CFFF7BCFA20EAE070D3
:104D8C0008BD08B5007CFFF7C5FA30EA200028BF43
:104D9C004FF0FF3008BD08B5007CFFF7B3FA30EADE
:104DAC00200028BF4FF0FF3008BD007CFFF7BABAD7
:104DBC0010B51421044600F007F9204610BD70B55B
:104DCC00457C04460E4625B9007CFFF7B3FA002853
:104DDC0005DD3146207CBDE87040FFF783BA2846DC
:104DEC0070BD000010B504460846114600226260F2
:104DFC004FF47A72A260054A226001222074627418
:104E0C001A46FFF767FA204610BD00BFD8550D00B3
:104E1C0038B50C4D296811F0010411D12846FFF763
:104E2C0038F968B1084A094B09482146FFF7DAFFFF
:104E3C002846FFF733F9074A0749054800F0B6F84A
:104E4C00034838BD94E6032098E6032010E60320BF
:104E5C00FCE50320D8E303206D4D0D0010B504468E
:104E6C00006818B1FFF74AFB0023236010BD10B592
:104E7C000446FFF7F3FF204610BD000010B5094CA7
:104E8C0000204FF6FF732060A080A0712081638109
:104E9C00FFF708FB2046044A0449BDE8104000F027
:104EAC0085B800BF1CE70320D8E303207B4E0D0020
:104EBC00002211464068FFF7DDBA00221146406817
:104ECC00FFF7E8BA00224068FFF7DCBA002281F055
:104EDC0001014068FFF7C6BA00231A46194640681C
:104EEC00FFF7B8BA00231A4619464068FFF7AABA6A
:104EFC00002211464068FFF79DBA00221146406817
:104F0C00FFF788BA002202214068FFF78BBA002312
:104F1C001A464068FFF776BA024B03225A60024ADF
:104F2C001A60704728E7032008560D0070B5044638
:104F3C0014252A46094E002100F0BBF925802025B6
:104F4C003146A5602561284600F040F83146606086
:104F5C00284600F03BF8E060204670BD34560D004A
:104F6C0030B50E4D296811F0010487B013D12846D5
:104F7C00FFF78FF878B101A8FFF7D8FF01AA2146F7
:104F8C000748FFF78FFC2846FFF788F8054A0649C3
:104F9C00034800F00BF8024807B030BD30E703209F
:104FAC0034E70320D8E3032059480D000B46014693
:104FBC00184600F065B90000024B1868BFF35F8F0C
:104FCC00704700BF4CE70320FFF75FB800F000B854
:104FDC0010B5002814BF044601242046FFF786FABA
:104FEC0020B9FFF7E9FF08B18047F6E710BD0000D4
:104FFC00184B1A68D1075CBF01221A60164B1A684D
:10500C00D2075CBF01221A60144B1A68D0075CBF30
:10501C0001221A60124B1A68D1075CBF01221A6078
:10502C00104B1A68D2075CBF01221A600E4B1A682B
:10503C00D0075CBF01221A600C4B1A68D1075CBF09
:10504C0001221A600A4B1A68D2075CBF01221A604F
:10505C00704700BF6CE7032068E7032064E7032078
:10506C0060E703205CE7032058E7032054E70320A4
:10507C0050E70320244B1A68D0075CBF01221A604A
:10508C00224B1A68D1075CBF01221A60204B1A68A8
:10509C00D2075CBF01221A601E4B1A68D0075CBF96
:1050AC0001221A601C4B1A68D1075CBF01221A60DE
:1050BC001A4B1A68D2075CBF01221A60184B1A6887
:1050CC00D0075CBF01221A60164B1A68D1075CBF6F
:1050DC0001221A60144B1A68D2075CBF01221A60B5
:1050EC00124B1A68D0075CBF01221A60104B1A6869
:1050FC00D1075CBF01221A600E4B1A68D2075CBF45
:10510C0001221A60704700BF9CE7032098E7032038
:10511C0094E7032090E703208CE7032088E7032023
:10512C0084E7032080E703207CE7032078E7032053
:10513C0074E7032070E70320244B1A68D0075CBF88
:10514C0001221A60224B1A68D1075CBF01221A6037
:10515C00204B1A68D2075CBF01221A601E4B1A68DA
:10516C00D0075CBF01221A601C4B1A68D1075CBFC8
:10517C0001221A601A4B1A68D2075CBF01221A600E
:10518C00184B1A68D0075CBF01221A60164B1A68BC
:10519C00D1075CBF01221A60144B1A68D2075CBF9E
:1051AC0001221A60124B1A68D0075CBF01221A60E8
:1051BC00104B1A68D1075CBF01221A600E4B1A689B
:1051CC00D2075CBF01221A60704700BFCCE70320F6
:1051DC00C8E70320C4E70320C0E70320BCE7032093
:1051EC00B8E70320B4E70320B0E70320ACE70320C3
:1051FC00A8E70320A4E70320A0E70320184B1A68B4
:10520C00D1075CBF01221A60164B1A68D2075CBF2B
:10521C0001221A60144B1A68D0075CBF01221A6075
:10522C00124B1A68D1075CBF01221A60104B1A6826
:10523C00D2075CBF01221A600E4B1A68D0075CBF04
:10524C0001221A600C4B1A68D1075CBF01221A604C
:10525C000A4B1A68D2075CBF01221A60704700BF64
:10526C00ECE70320E8E70320E4E70320E0E7032072
:10527C00DCE70320D8E70320D4E70320D0E70320A2
:10528C0010B5054C13462CB10A4601460220AFF36B
:10529C00008010BD204610BD0000000010B5431E5C
:1052AC000A44914204D011F8014B03F8014FF8E77E
:1052BC0010BD02440346934202D003F8011BFAE7E7
:1052CC007047000038B5124B1C68A36B0546D3B968
:1052DC001820FFF70BF943F20E33A06303804AF654
:1052EC00CD33438041F2342383804EF26D63C3800F
:1052FC004DF6EC630381052343810B23838101224B
:10530C000023C0E90423A36B00221D615A6138BD40
:10531C00D4E30320034613F8012B002AFBD1181AFF
:10532C00013870471D400D0059400D0085400D009F
:10533C0089400D00000000000A493243205363618C
:10534C006E6E6572005363616E6E696E672E2E2EE3
:10535C00004932432064657669636520666F756E1B
:10536C00642061742061646472657373203078000A
:10537C00300020202100556E6B6E6F7720657272A5
:10538C006F7220617420616464726573732030786D
:10539C00004E6F2049324320646576696365732043
:1053AC00666F756E640A00646F6E650A000000001B
:1053BC00000000000000000019450D0023450D0001
:1053CC002D450D0037450D0041450D004D450D0097
:1053DC0059450D0065450D006D450D0077450D00D7
:1053EC0081450D000000000000000000BF460D00CC
:1053FC00B5460D00AB460D0061460D009F460D00F5
:10540C0093460D0087460D007F460D0075460D0036
:10541C006B460D0081450D000000000000000000EF
:10542C003B470D0031470D0027470D001D470D0070
:10543C0011470D0005470D00F9460D00F1460D0012
:10544C00E7460D00DD460D0081450D000000000013
:10545C000000000059480D00A3480D007B480D00CA
:10546C005B480D0083480D008B480D0093480D00E0
:10547C009B480D000000000000000000FB480D00E0
:10548C004B490D0059490D006D4C0D0037490D006D
:10549C00FD480D0013490D0045490D0029490D002B
:1054AC00F7480D000000000000000000254A0D0028
:1054BC00154A0D00174A0D005A00252B3033643A5B
:1054CC00253032750025592D256D2D256454254820
:1054DC003A254D3A2553257A0061736374696D65DD
:1054EC0000626175640053657269616C005365728A
:1054FC0069616C31007479706500706172616D0066
:10550C00636D6400696400686E64007374726D008E
:10551C0066696C74006C766C0061646448616E64DE
:10552C006C65720072656D6F766548616E646C6552
:10553C007200656E756D48616E646C657273004ABD
:10554C00534F4E53747265616D4C6F6748616E6456
:10555C006C65720061707000253031307520005D13
:10556C0020002564002C200028293A2000205B0014
:10557C00636F6465203D2000256900646574616972
:10558C006C73203D20000D0A0066006C6E00666E88
:10559C0000636F64650064657461696C006E6F6EA6
:1055AC006500747261636500696E666F0077617285
:1055BC006E006572726F720070616E696300616C6F
:1055CC006C00000000000000000000006D4D0D009C
:1055DC00BD4D0D00CB4D0D006D4C0D00814D0D00E2
:1055EC00A34D0D008F4D0D00B74D0D006F4D0D00EF
:1055FC00734D0D0000000000000000001B4F0D005B
:10560C00114F0D00074F0D00FD4E0D00F14E0D001A
:10561C00E54E0D00D94E0D00D14E0D00C74E0D00BC
:10562C00BD4E0D0081450D00000000000000000083
:10563C00000000000000000000000000000000005E
:10564C00000000000000000000000000000000004E
:10565C00000000000000000000000000000000003E
:10566C00000000000000000000000000000000002E
:10567C00000000000000000000000000000000001E
:10568C0000000000000000000000000043000000CB
:10569C00B5410D00B9410D00BD410D00C1410D00DA
:1056AC00C5410D00C9410D00CD410D004D460D0009
:1056BC00C9460D0009480D002D4C0D00494C0D003C
:1056CC005D4C0D00454D0D00894E0D00254F0D0014
:1056DC00FD4F0D0081500D0045510D0009520D007C
:0456EC0000000000BA
:0456F00000000000B6
:1056F400E5540D000000000038560D0058560D000A
:1057040078560D00000000000000000000000000BA
:105714000000000098560D0000000000000000008A
:105724000000000000000000000000000000000075
:105734000000000000000000000000000000000065
:105744000000000000000000000000000000000055
:085754000000000074E30320D3
:10575C00FFFFFFFF00000102030405060708090A0A
:10576C000B0C0D0E0F101112131415161718191A05
:08577C001B1C1D1E1F2028004C
:04578400785634120D
:04000003D000401CCD
:00000001FF
