:02000002D0002C
:1040000000400D0020570D00000006000C000501C7
:0840100004017C050000000022
:04401800BC520D0089
:10401C0009480A49884208B505D0094A824202D0AB
:10402C00121A01F001F90748074A0021121A01F08F
:10403C0006F9014808BD00BF5CE3032090560D0053
:10404C00C4E30320C4E30320F0E7032070B500F0C1
:10405C00BFFD074C074BE41AA40800251E46A542D9
:10406C0004D056F8253098470135F8E770BD00BFED
:10407C0088560D0034560D0000F014B808B500F049
:10408C002BF8BDE8084000F071BD00F03DBA00F01F
:10409C003BBA0078B0FA80F04009704701230370F6
:1040AC007047000008B500F01FFF00F023FC00F083
:1040BC009BFC4FF4165100F085FC00F095FC00F0D1
:1040CC0088FC0028F9D000F08FFC0249BDE80840BC
:1040DC0000F0F7BDD0520D0038B500F085FC2A4930
:1040EC0000F0EFFD4FF47A7000F01FFD0025012465
:1040FC0000F0FAFE214600F003FC00F0F5FE00F0A3
:10410C0007FCC0B900F070FC204900F0C7FD0F2C73
:10411C0004D800F069FC1E4900F0C0FD00F064FCFE
:10412C001022214600F004FE00F05EFC194900F05C
:10413C00C8FD013513E0042811D100F055FC1649D7
:10414C0000F0ACFD0F2C04D800F04EFC104900F030
:10415C00A5FD00F049FC1022214600F0EBFD0134D6
:10416C00E4B27F2CC4D11DB900F03EFC0B4902E037
:10417C0000F03AFC0A4900F0A4FD41F28830BDE899
:10418C00384000F0D2BC00BFDD520D00E9520D00EA
:10419C0008530D000A530D000E530D0029530D004A
:1041AC003F530D0000F014B900F012B900F010B933
:1041BC0000F00EB900F00CB900F00AB900F008B923
:1041CC0008B5024B1B681B68019308BD4C02030029
:1041DC0008B5024B1B685B68019308BD4C020300D9
:1041EC0008B5024B1B681B69019308BD4C02030008
:1041FC0008B5024B1B685B69019308BD4C020300B8
:10420C0008B5024B1B689B69019308BD4C02030067
:10421C0008B5024B1B68DB69019308BD4C02030017
:10422C0008B5024B1B681B6A019308BD4C020300C6
:10423C0008B5024B1B685B6A019308BD4C02030076
:10424C0008B5024B1B68DB68019308BD280203000C
:10425C0008B5024B1B689B69019308BD280203003B
:10426C0008B5024B1B68DB69019308BD28020300EB
:10427C0008B5024B1B681B6A019308BD280203009A
:10428C0008B5024B1B685B6A019308BD280203004A
:10429C0008B5024B1B689B6A019308BD28020300FA
:1042AC0008B5024B1B68DB6A019308BD28020300AA
:1042BC0008B5024B1B681B6B019308BD2802030059
:1042CC0008B5024B1B681B6C019308BD2802030048
:1042DC0008B5024B1B681B68019308BD3C02030028
:1042EC0008B5024B1B68DB68019308BD3C02030058
:1042FC0008B5024B1B681B69019308BD3C02030007
:10430C0008B5024B1B685B69019308BD3C020300B6
:10431C0008B5024B1B689B69019308BD3C02030066
:10432C0008B5024B1B68DB69019308BD3C02030016
:10433C0008B5024B1B689B6A019308BD3C02030045
:10434C0008B5024B1B685B69019308BD640203004E
:10435C0008B5024B1B689B68019308BD480203001B
:10436C0008B5024B1B681B69019308BD480203008A
:10437C0008B5024B1B685B69019308BD480203003A
:10438C0008B5024B1B681B6B019308BD4802030068
:10439C0008B5024B1B685B6C019308BD4802030017
:1043AC0008B5024B1B685B68019308BD180203003B
:1043BC0008B5024B1B685B69019308BD180203002A
:1043CC0008B5024B1B68DB69019308BD3002030082
:1043DC0008B5024B1B681B68019308BD2C02030037
:1043EC0008B5024B1B689B68019308BD680203006B
:1043FC0008B5024B1B68DB68019308BD680203001B
:10440C0008B5024B1B68DB6B019308BD440203002B
:10441C0008B5024B1B685B68019308BD40020300A2
:10442C0008B5024B1B689B68019308BD4002030052
:10443C0008B5024B1B68DB68019308BD4002030002
:10444C0008B5024B1B681B69019308BD40020300B1
:10445C0008B5024B1B685B69019308BD4002030061
:10446C0008B5024B1B689B69019308BD4002030011
:10447C0008B5024B1B68DB69019308BD40020300C1
:10448C0008B5024B1B681B6A019308BD4002030070
:10449C0008B5024B1B681B6B019308BD400203005F
:1044AC0008B5024B1B685B6B019308BD400203000F
:1044BC0008B5024B1B685B68019308BD2002030022
:1044CC0008B5024B1B685B69019308BD2002030011
:1044DC0008B5034B1B68D3F88830019308BD000066
:1044EC002002030008B5034B1B68D3F894300193EA
:1044FC0008BD00002002030008B5024B1B681B68B6
:10450C00019308BD1C02030008B5024B1B685B68D5
:10451C00019308BD1C02030000231A464068FFF7F4
:10452C0077BF002202214068FFF782BF00221146AC
:10453C004068FFF775BF002211464068FFF780BF47
:10454C0000231A4619464068FFF782BF00231A461B
:10455C0019464068FFF784BF002281F001014068D2
:10456C00FFF786BF00224068FFF792BF002211467A
:10457C004068FFF795BF002211464068FFF780BFE7
:10458C002DE9F043002495B016460D46074600F081
:10459C008BFA214620220CA8009400F050FE4023F8
:1045AC000C9321466B460CAA3046FFF721FF0446BC
:1045BC00002844D1024601216868FFF741FF02211F
:1045CC00804622466868FFF73BFF009E81462146E5
:1045DC00002E34D0002932D17368022B02D00A2B62
:1045EC0009D02AE0B8F1000F27D0716938460431A0
:1045FC0000F087FA20E0B9F1000F1ED07469112287
:10460C0001A800F01CFE06238DF8143001AD04F156
:10461C0008031834186859682A4603C20833A342A1
:10462C001546F7D101A906A807AD00F04BFA0FCD3E
:10463C003C1D0FC42B6823700121F669C8E7009854
:10464C00FFF7CEFE384615B0BDE8F083024B034AA7
:10465C001A6000225A607047C8E3032050530D00C3
:10466C00002211464068FFF7EBBE0022114640685D
:10467C00FFF706BF002211464068FFF711BF00226A
:10468C004068FFF705BF002281F001014068FFF789
:10469C00EFBE00231A4619464068FFF7E1BE00231F
:1046AC001A4619464068FFF7D3BE002211464068EF
:1046BC00FFF7B6BE002202214068FFF7B9BE002307
:1046CC001A464068FFF7A4BE024B04225A60024A05
:1046DC001A607047D0E3032084530D00002211466A
:1046EC004068FFF7CDBE002211464068FFF7D8BEE8
:1046FC0000224068FFF7CCBE002281F00101406827
:10470C00FFF7B6BE00231A4601214068FFF7A8BE8A
:10471C0000231A4619464068FFF79ABE002211463C
:10472C004068FFF78DBE002211464068FFF778BE47
:10473C00002202214068FFF77BBE00231A46406826
:10474C00FFF766BE38B5054688B104684CB1A3685E
:10475C001BB103222146204698471021204600F029
:10476C000AFC28461421BDE8384000F004BC38BDD2
:10477C0010B103685B681847704710B503680446AE
:10478C00BBB15868FFF7E4FD78B923685A7C12B9BD
:10479C005868FFF7E5FD23685868FFF7E9FD2068C6
:1047AC000023236028B1FFF7CDFF206808B1FFF785
:1047BC00C9FF204610BD000038B50C4B0360044601
:1047CC00D0F8CC0108B1FFF762FCD4F8C45135B174
:1047DC002846FFF7D2FF0421284600F0CCFBA06846
:1047EC0008B1FFF7C5FF204638BD00BFB8530D0018
:1047FC0038B50E4C0E4B23600025022304F5E470F3
:10480C006360A560C4F8C451C4F8C851FFF7C0FD7B
:10481C00084BC4F8CC5184F8D05123602046064A8A
:10482C000649BDE8384000F0A1BB00BFD8E3032027
:10483C0050530D00B8530D00C4E30320C5470D00C1
:10484C00704710B51021044600F095FB204610BDB2
:10485C0070B5084B0360044600250E4640F80C5F0B
:10486C00FFF78EFD30462671FFF7AAFDA5602046A6
:10487C0070BD00BFEC530D007047F8B506461546E9
:10488C000C468F18BC4206D0336814F8011B9B6889
:10489C0030469847F6E72846F8BD0022007CFFF723
:1048AC00E7BC0021007CFFF7EBBC0021007CFFF78C
:1048BC00EFBC0021007CFFF7F3BC0021007CFFF76C
:1048CC00F7BC10B51421044600F055FB204610BD72
:1048DC0010B504464FF47A730846A3600021044BCC
:1048EC00207461602360FFF7EBFC204610BD00BF15
:1048FC00FC530D0000231A461946007CFFF7A0BCA0
:10490C000022007CFFF7A4BC0022007CFFF7A8BCAF
:10491C000121FFF7F9BF41747047704708B50021BA
:10492C00007CFFF76DFC30EA200028BF4FF0FF3011
:10493C0008BD08B50121007CFFF762FC30EA2000BD
:10494C0028BF4FF0FF3008BD08B5007CFFF750FCC6
:10495C0020EAE07008BD08B5007CFFF741FC20EAB6
:10496C00E07008BD007CFFF75BBC10B51421044659
:10497C0000F001FB204610BD38B50446007C0D4606
:10498C00FFF736FC002801DC607C28B12946207C2E
:10499C00FFF73EFC20EAE07038BD000010B504467D
:1049AC00002363604FF47A73A360054B23600123EB
:1049BC000846217463741146FFF702FC204610BDB3
:1049CC0024540D000022007CFFF702BC007CFFF792
:1049DC002FBCFFF7FBBF10B514220446002100F0DA
:1049EC002EFC204610BD000030B50E4D87B001A83E
:1049FC00FFF7F1FF296811F0010410D12846FFF7E9
:104A0C0048FB60B101AA21460748FFF7C7FF2846BB
:104A1C00FFF744FB054A0649034800F0A7FA024891
:104A2C0007B030BDACE50320B0E50320C4E30320A0
:104A3C0027490D00704710B51821044600F09BFA69
:104A4C00204610BDF0B5037D062B8DB00E4600F14F
:104A5C0004074FF0000402D000F1080518E00CAD7B
:104A6C00394605F8304D2F232A460A20FFF768FCFB
:104A7C00284600F015FC33680246DB6829463046B0
:104A8C0098470FE024B12E21304600F00BF9044476
:104A9C0015F8011D0A22304600F04AF9BD420444C3
:104AAC00F0D120460DB0F0BD10B5054B04461122D7
:104ABC0040F8043B002100F0C2FB204610BD00BFB3
:104ACC0054540D000346074A10B543F8042B01F16A
:104ADC00100251F8044B43F8044B9142F9D10A7877
:104AEC001A7010BD54540D0010B59DF8084044EADE
:104AFC00032343EA024242EA016104234160037545
:104B0C0010BD37B50D788B784A78C9780091294655
:104B1C00FFF7EAFF03B030BD10B58368044613B14C
:104B2C00032201469847204610BD0021FFF7C8BC60
:104B3C0008B50C4B33B1FFF757FF03681B69984757
:104B4C00002809DC084B63B100F05EF903681B69AF
:104B5C009847002803DC08BDAFF30080F2E7AFF301
:104B6C00008008BD000000000000000008B5FFF741
:104B7C00DFFFFFF71DFC014B186008BD2CE703207D
:104B8C0007B5002300931A466FF07701FFF7AAFCD4
:104B9C0003B05DF804FB000007B543880A2B08D06E
:104BAC00502B09D1094B1B683BB103B05DF804EBEA
:104BBC001847FFF7E5FF06E0002300931A466FF055
:104BCC007701FFF78FFC03B05DF804FBC4E503200D
:104BDC0010B5FFF7E5FB044600F03AFB074B13B1A9
:104BEC002046AFF3008000210448FFF709FC0021A8
:104BFC000348BDE81040FFF76BBC00BF000000008D
:104C0C00A54B0D0010B50446FFF786FF204610BDDE
:104C1C000348044A04490023836000F0A7B900BF8D
:104C2C00C8E50320C4E30320114C0D00024B1A68A5
:104C3C00024B1A60704700BF5CE30320D8E50320E9
:104C4C00014B024A1A607047DCE50320FC540D004E
:104C5C00F8B506460D468F180024BD420CD03368BB
:104C6C0015F8011B9B6830469847002801DB04446B
:104C7C00F3E7002C08BF04462046F8BD70B5054686
:104C8C000C46084649B100F00BFB2B680246214646
:104C9C002846DB68BDE87040184770BD08B5FFF7C3
:104CAC00EDFF08BD03689B68184738B50D21054614
:104CBC00FFF7F8FF0A2104462846FFF7F3FF2044CC
:104CCC0038BD38B50546FFF7D9FF04462846FFF72F
:104CDC00ECFF204438BD30B58BB00B4600218DF86D
:104CEC002410012A98BF0A220DF12304B3FBF2F51C
:104CFC0005FB123303F0FF03092B94BF303337331A
:104D0C00DBB2214604F801392B46002DEED1FFF71A
:104D1C00B5FF0BB030BD10B42AB903685DF8044B75
:104D2C009B68C9B21847D2B25DF8044BFFF7D3BFEA
:104D3C00FFF7F1BF38B50546FFF7EDFF04462846EF
:104D4C00FFF7B3FF204438BD024800230360FFF790
:104D5C001FBB00BFE0E5032070474174704708B5E6
:104D6C00007CFFF7E5FA20EAE07008BD08B5007C8E
:104D7C00FFF7BEFA20EAE07008BD08B5007CFFF72B
:104D8C00C7FA30EA200028BF4FF0FF3008BD08B545
:104D9C00007CFFF7B5FA30EA200028BF4FF0FF3057
:104DAC0008BD007CFFF7BCBA10B51421044600F016
:104DBC00E2F8204610BD70B5457C04460E4625B978
:104DCC00007CFFF7B5FA002805DD3146207CBDE8F4
:104DDC007040FFF785BA284670BD000010B5044638
:104DEC0008461146002262604FF47A72A260054AAE
:104DFC0022600122207462741A46FFF769FA204679
:104E0C0010BD00BF74550D0038B50C4D296811F05C
:104E1C00010411D12846FFF73CF968B1084A094B47
:104E2C0009482146FFF7DAFF2846FFF737F9074A0A
:104E3C000749054800F09AF8034838BD7CE6032082
:104E4C0080E60320F8E50320E4E50320C4E3032017
:104E5C00654D0D00044B00204FF6FF721870588002
:104E6C009A80FFF725BB00BF04E703200022114600
:104E7C004068FFF705BB002211464068FFF710BBE6
:104E8C0000224068FFF704BB002281F0010140685A
:104E9C00FFF7EEBA00231A4619464068FFF7E0BA4E
:104EAC0000231A4619464068FFF7D2BA0022114671
:104EBC004068FFF7C5BA002211464068FFF7B0BA48
:104ECC00002202214068FFF7B3BA00231A4640685B
:104EDC00FFF79EBA024B03225A60024A1A607047CF
:104EEC000CE70320A4550D0038B50B4D296811F0C3
:104EFC0001040FD12846FFF7CCF858B121460748DA
:104F0C00FFF7E6FC2846FFF7C9F8054A05490348B0
:104F1C0000F02CF8014838BD14E7032018E70320F3
:104F2C00C4E3032085480D0070B50C4C0C4E0D4DA0
:104F3C0000212046FFF78CFC20460B4C32462946BC
:104F4C0000F014F801212046FFF782FC3246294676
:104F5C002046BDE8704000F009B800BF30E70320E0
:104F6C00C4E303204D480D0040E703200B460146E7
:104F7C00184600F04BB9FFF788B80000184B1A68B8
:104F8C00D1075CBF01221A60164B1A68D2075CBFAE
:104F9C0001221A60144B1A68D0075CBF01221A60F8
:104FAC00124B1A68D1075CBF01221A60104B1A68A9
:104FBC00D2075CBF01221A600E4B1A68D0075CBF87
:104FCC0001221A600C4B1A68D1075CBF01221A60CF
:104FDC000A4B1A68D2075CBF01221A60704700BFE7
:104FEC006CE7032068E7032064E7032060E70320F5
:104FFC005CE7032058E7032054E7032050E7032025
:10500C00244B1A68D0075CBF01221A60224B1A6825
:10501C00D1075CBF01221A60204B1A68D2075CBF13
:10502C0001221A601E4B1A68D0075CBF01221A605D
:10503C001C4B1A68D1075CBF01221A601A4B1A6804
:10504C00D2075CBF01221A60184B1A68D0075CBFEC
:10505C0001221A60164B1A68D1075CBF01221A6034
:10506C00144B1A68D2075CBF01221A60124B1A68E3
:10507C00D0075CBF01221A60104B1A68D1075CBFC5
:10508C0001221A600E4B1A68D2075CBF01221A600B
:10509C00704700BF9CE7032098E7032094E70320A8
:1050AC0090E703208CE7032088E7032084E70320A4
:1050BC0080E703207CE7032078E7032074E70320D4
:1050CC0070E70320244B1A68D0075CBF01221A60DA
:1050DC00224B1A68D1075CBF01221A60204B1A6858
:1050EC00D2075CBF01221A601E4B1A68D0075CBF46
:1050FC0001221A601C4B1A68D1075CBF01221A608E
:10510C001A4B1A68D2075CBF01221A60184B1A6836
:10511C00D0075CBF01221A60164B1A68D1075CBF1E
:10512C0001221A60144B1A68D2075CBF01221A6064
:10513C00124B1A68D0075CBF01221A60104B1A6818
:10514C00D1075CBF01221A600E4B1A68D2075CBFF4
:10515C0001221A60704700BFCCE70320C8E7032088
:10516C00C4E70320C0E70320BCE70320B8E7032013
:10517C00B4E70320B0E70320ACE70320A8E7032043
:10518C00A4E70320A0E70320184B1A68D1075CBFE3
:10519C0001221A60164B1A68D2075CBF01221A60F2
:1051AC00144B1A68D0075CBF01221A60124B1A68A4
:1051BC00D1075CBF01221A60104B1A68D2075CBF82
:1051CC0001221A600E4B1A68D0075CBF01221A60CC
:1051DC000C4B1A68D1075CBF01221A600A4B1A6883
:1051EC00D2075CBF01221A60704700BFECE70320B6
:1051FC00E8E70320E4E70320E0E70320DCE70320F3
:10520C00D8E70320D4E70320D0E7032010B5054CE2
:10521C0013462CB10A4601460220AFF3008010BDA4
:10522C00204610BD0000000010B5431E0A449142F8
:10523C0004D011F8014B03F8014FF8E710BD0244FC
:10524C000346934202D003F8011BFAE770470000B3
:10525C0038B5124B1C68A36B0546D3B91820FFF761
:10526C004BF943F20E33A06303804AF6CD334380EF
:10527C0041F2342383804EF26D63C3804DF6EC63B0
:10528C000381052343810B23838101220023C0E981
:10529C000423A36B00221D615A6138BDC0E30320B7
:1052AC00034613F8012B002AFBD1181A013870475A
:1052BC001D400D0059400D0085400D0089400D002A
:1052CC00000000000A493243205363616E6E657220
:1052DC00005363616E6E696E672E2E2E0049324349
:1052EC002064657669636520666F756E64206174F1
:1052FC002061646472657373203078003000202064
:10530C002100556E6B6E6F77206572726F72206123
:10531C00742061646472657373203078004E6F2062
:10532C00493243206465766963657320666F756ED8
:10533C00640A00646F6E650A000000000000000043
:10534C000000000025450D002F450D0039450D00CE
:10535C0043450D004D450D0059450D0065450D00AB
:10536C0071450D0079450D0083450D008D450D00EF
:10537C000000000000000000CB460D00C1460D00EF
:10538C00B7460D006D460D00AB460D009F460D0057
:10539C0093460D008B460D0081460D0077460D009F
:1053AC008D450D00000000000000000047470D0077
:1053BC003D470D0033470D0029470D001D470D00DB
:1053CC0011470D0005470D00FD460D00F3460D007D
:1053DC00E9460D008D450D000000000000000000A6
:1053EC004D480D004F480D0000000000000000006B
:1053FC0085480D00CF480D00A7480D0087480D00CB
:10540C00AF480D00B7480D00BF480D00C7480D0050
:10541C00000000000000000027490D0077490D0036
:10542C0085490D005D4C0D0063490D0029490D00A7
:10543C003F490D0071490D0055490D0023490D00E0
:10544C000000000000000000514A0D00414A0D0010
:10545C00434A0D005A00252B3033643A25303275FF
:10546C000025592D256D2D25645425483A254D3A96
:10547C002553257A0061736374696D6500626175EB
:10548C00640053657269616C0053657269616C31BB
:10549C00007479706500706172616D00636D6400F9
:1054AC00696400686E64007374726D0066696C7474
:1054BC00006C766C0061646448616E646C657200AB
:1054CC0072656D6F766548616E646C657200656EB1
:1054DC00756D48616E646C657273004A534F4E5320
:1054EC00747265616D4C6F6748616E646C657200B7
:1054FC0061707000253031307520005D200025640E
:10550C00002C200028293A2000205B00636F646582
:10551C00203D200025690064657461696C73203D31
:10552C0020000D0A0066006C6E00666E00636F64EE
:10553C00650064657461696C006E6F6E65007472F1
:10554C0061636500696E666F007761726E006572EB
:10555C00726F720070616E696300616C6C000000A8
:10556C000000000000000000654D0D00B54D0D0061
:10557C00C34D0D005D4C0D00794D0D009B4D0D0084
:10558C00874D0D00AF4D0D00674D0D006B4D0D009F
:10559C000000000000000000D74E0D00CD4E0D00A5
:1055AC00C34E0D00B94E0D00AD4E0D00A14E0D00B9
:1055BC00954E0D008D4E0D00834E0D00794E0D0055
:1055CC008D450D00000000000000000000000000F0
:1055DC0000000000000000000000000000000000BF
:1055EC0000000000000000000000000000000000AF
:1055FC00000000000000000000000000000000009F
:10560C00000000000000000000000000000000008E
:10561C00000000000000000000000000000000007E
:10562C000000000043000000B1410D00B5410D0029
:10563C00B9410D00BD410D00C1410D00C5410D002A
:10564C00C9410D0059460D00D5460D00FD470D0012
:10565C001D4C0D00394C0D004D4C0D00554D0D00E1
:10566C00614E0D00E14E0D00354F0D00894F0D00C0
:10567C000D500D00D1500D0095510D000000000093
:04568C00000000001A
:1056900081540D0000000000D0550D00F0550D00A4
:1056A00010560D0000000000000000000000000087
:1056B0000000000030560D00000000000000000057
:1056C00000000000000000000000000000000000DA
:1056D00000000000000000000000000000000000CA
:1056E00000000000000000000000000000000000BA
:0856F0000000000060E303204C
:1056F800FFFFFFFF00000102030405060708090A6F
:105708000B0C0D0E0F101112131415161718191A69
:085718001B1C1D1E1F202800B0
:045720007856341271
:04000003D000401CCD
:00000001FF
