:02000002D0002C
:1040000000400D00B45B0D00000006000C0005012F
:084010000401E80500000000B6
:0440180020560D0021
:10401C0009480A49884208B505D0094A824202D0AB
:10402C00121A01F0ABFA0748074A0021121A01F0E4
:10403C00B0FA014808BD00BF44DC0320245B0D002E
:10404C00ACDC0320ACDC0320F0E7032070B500F0FF
:10405C00B7FD074C074BE41AA40800251E46A542E1
:10406C0004D056F8253098470135F8E770BD00BFED
:10407C00145B0D00DC5A0D0000F03AB808B500F0E6
:10408C004BF9BDE8084000F05DBD00F02FBB00F01F
:10409C002DBB0078B0FA80F0400970470123037003
:1040AC007047000010B5094C04F1300000F0A6FB7D
:1040BC0004F1200000F0A2FB04F1100000F09EFBC4
:1040CC002046BDE8104000F099BB00BFB4E30320CC
:1040DC0038B5064D002404F150002844103C00F083
:1040EC008DFB14F1600FF6D138BD00BFB4DC03209A
:1040FC002DE9F04790B000F063FE4FF4165100F03C
:10410C0053FE642000F0E0FC00F05AFE6E4A6F4C47
:10411C006F4EDFF8FC91002100F089FC00F050FE9E
:10412C00002211460546606800F078FA811C0AA846
:10413C0000F0BAFD0AA906A800F0EEFB069B654A42
:10414C000021284600F073FC06A800F057FB002263
:10415C0011466068604D00F061FA50F8573F2B60D3
:10416C008388AB8000F02CFE6A792B7804922A7934
:10417C000392EA780292AA7801926A78009200215E
:10418C00564A00F054FC05225549204600F0D8FF51
:10419C00544C306000F014FE3368534A002100F098
:1041AC0046FC00232360CA46236832684D4F934275
:1041BC0057DA4B4ADFF85C8138215943531893F88E
:1041CC002C0093F82D30C8F80030C9F800000023FB
:1041DC00C8181044404F90F82600E8540133062BC1
:1041EC00F6D100F0EDFD23683D49382202FB0312A5
:1041FC000432002100923D4A00F019FC00F0E0FD71
:10420C007B7905933B790493FB780393BB780293FA
:10421C007B7801933B7800932368354A002100F0AA
:10422C0006FC00F0CDFDDAF8003032491A018A584C
:10423C00019200932368304A002100F0F8FB00F053
:10424C00BFFDD8F800302D491A018A58019200930D
:10425C0023682B4A002100F0EAFB2368013323601A
:10426C00A2E700F0ADFD274A002100F0E0FB14228C
:10427C002549164800F052FF154B186000233B608F
:10428C003D46214F226833689A4219DA00F098FDB6
:10429C002B68382202FB037304331A6B039293F8D6
:1042AC002A20029293F82920019293F82820009258
:1042BC000021164A00F0BBFB2B6801332B60E1E7B1
:1042CC0010B0BDE8F08700BF34560D003CE703206A
:1042DC0018DD032057560D001CDD0320AA560D00D7
:1042EC0024DD0320B0DC032068560D0091560D0030
:1042FC00A3560D00B4DC0320CF560D00B4E303200D
:10430C00F3560D0016570D0054DF03203B570D00DC
:10431C0014DD0320F4E303207047000070B500F0B7
:10432C0091F8274D0024382628193822002101F055
:10433C0030F966513834B4F50C7FF5D1214D002499
:10434C00382628193822002101F023F96651383417
:10435C00B4F58C6FF5D11C491C4800F096FA1C4939
:10436C001C4800F092FA1C491C4800F08EFA1C49BB
:10437C001C4800F08AFA1C491C4800F086FA1C49BB
:10438C001C4800F082FA1C4A1C49002000F098FFDF
:10439C001B491C4800F079FA1B491C4800F075FABF
:1043AC001B491C4800F071FA1B491C4800F06DFABF
:1043BC00114A1B490020BDE8704000F081BF00BFCE
:1043CC0024DD032054DF03206F570D00B4DC0320E1
:1043DC007E570D00C4DC03208B570D00D4DC03206A
:1043EC0098570D00E4DC0320A6570D00F4DC0320E5
:1043FC00BE570D0004DD0320ACDC0320DD400D00B6
:10440C00D7570D00B4E30320DB570D00C4E30320A2
:10441C00EB570D00D4E30320FC570D00E4E303201D
:10442C00B1400D0008B5024B1B689B68019308BD99
:10443C006802030008B5024B1B68DB68019308BDDA
:10444C006802030008B5024B1B681B68019308BD8A
:10445C002C02030008B5024B1B685B68019308BD76
:10446C001802030008B5024B1B685B69019308BD79
:10447C001802030008B5024B1B689B68019308BD2A
:10448C004802030008B5024B1B681B69019308BD69
:10449C004802030008B5024B1B685B69019308BD19
:1044AC004802030008B5024B1B685B6C019308BD06
:1044BC004802030008B5024B1B689B6C019308BDB6
:1044CC004802030008B5024B1B685B69019308BDE9
:1044DC006402030008B5024B1B681B68019308BDFE
:1044EC003C02030008B5024B1B68DB68019308BD56
:1044FC003C02030008B5024B1B681B69019308BD05
:10450C003C02030008B5024B1B685B69019308BDB4
:10451C003C02030008B5024B1B689B69019308BD64
:10452C003C02030008B5024B1B68DB69019308BD14
:10453C003C02030008B5024B1B689B6A019308BD43
:10454C003C02030008B5024B1B681B68019308BDB5
:10455C004C02030008B5024B1B685B68019308BD55
:10456C004C02030008B5024B1B681B69019308BD84
:10457C004C02030008B5024B1B685B69019308BD34
:10458C004C02030008B5024B1B689B69019308BDE4
:10459C004C02030008B5024B1B68DB69019308BD94
:1045AC004C02030008B5024B1B681B6A019308BD43
:1045BC004C02030008B5024B1B68DB6D019308BD70
:1045CC007402030008B5024B1B681B6E019308BDF7
:1045DC007402030008B5024B1B685B68019308BDAD
:1045EC002002030008B5024B1B685B69019308BDF0
:1045FC002002030008B5034B1B68D3F888300193E5
:10460C0008BD00002002030008B5034B1B68D3F85B
:10461C009430019308BD00002002030008B5024B42
:10462C001B681B68019308BD4002030008B5024BD0
:10463C001B685B68019308BD4002030008B5024B80
:10464C001B689B68019308BD4002030008B5024B30
:10465C001B68DB68019308BD4002030008B5024BE0
:10466C001B681B69019308BD4002030008B5024B8F
:10467C001B685B69019308BD4002030008B5024B3F
:10468C001B689B69019308BD4002030008B5024BEF
:10469C001B68DB69019308BD4002030008B5024B9F
:1046AC001B681B6A019308BD4002030008B5024B4E
:1046BC001B681B6B019308BD4002030008B5024B3D
:1046CC001B685B6B019308BD4002030008B5024BED
:1046DC001B68DB6B019308BD4402030008B5024B59
:1046EC001B681B68019308BD1C02030008B5024B34
:1046FC001B685B68019308BD1C02030008B5024BE4
:10470C001B689B68019308BD1C02030008B5024B93
:10471C001B685B6A019308BD1C0203000022114652
:10472C004068FFF7BBBF002211464068FFF7C6BFC9
:10473C0000224068FFF7BABF002281F001014068F7
:10474C00FFF7A4BF00231A4619464068FFF796BF2F
:10475C0000231A4619464068FFF788BF002211460D
:10476C004068FFF77BBF002211464068FFF766BF29
:10477C00002202214068FFF769BF00231A464068F7
:10478C00FFF754BF024B03225A60024A1A6070476B
:10479C00F8E303201C580D0010B50446006818B14E
:1047AC00FFF7A4FF0023236010BD10B50446FFF7EC
:1047BC00F3FF204610BD000010B5094C00204FF649
:1047CC00FF732060A080A07120816381FFF702FF3E
:1047DC002046044A0449BDE8104000F071BD00BFFA
:1047EC0000E40320ACDC0320B7470D00704710B584
:1047FC000C21044600F069FD204610BD10B504469E
:10480C000068FFF773FF204610BD10B50446006822
:10481C0008B1FFF76BFF00232360A360636010BD3A
:10482C0038B504460D4600680131FFF767FF10B13B
:10483C0084E82100012038BD10B50368044613B18B
:10484C0043688B4207D22046FFF7EAFF20B1A368EA
:10485C000BB922681370012010BD70B50E461146BD
:10486C0004461546FFF7E8FF18B92046FFF7CDFFC1
:10487C0009E02A463146A560206800F07FFE2268D8
:10488C00A3680021D154204670BD38B500230446DE
:10489C0003604360836003730D4639B1084600F032
:1048AC00B1FE294602462046FFF7D7FF204638BD09
:1048BC0070B504460E4609B9002070BD6AB1836814
:1048CC00D5182946FFF7B8FF0028F5D02068A36853
:1048DC003146184400F08EFEA560012070BD38B53D
:1048EC00044680688568FFF7E3FFA3689868401B5F
:1048FC0038BD07B500238DF80410012201A98DF8ED
:10490C000530FFF7D5FF03B05DF804FB08B58068F0
:10491C00FFF7EFFF08BD000030B585B000230D4652
:10492C00029303604360836003731421064B01936D
:10493C0004460390FFF780FF2B6801A91B682846EB
:10494C009847204605B030BD50580D0010B50446B0
:10495C00006808B1FFF7AEFD204610BD10B5064C3F
:10496C00002320462360FFF79DFD2046034A04499F
:10497C00BDE8104000F0A4BC0CE40320ACDC032028
:10498C0059490D00F8B506460D468F180024BD4256
:10499C000CD0336815F8011B9B68304698470028EB
:1049AC0001DB0444F3E7002C08BF04462046F8BDA5
:1049BC0070B505460C46084649B100F023FE2B683D
:1049CC00024621462846DB68BDE87040184770BD9A
:1049DC0003689B68184738B50D210546FFF7F8FFAB
:1049EC000A2104462846FFF7F3FF204438BD30B5B2
:1049FC008BB00B4600218DF82410012A98BF0A2297
:104A0C000DF12304B3FBF2F505FB123303F0FF03A6
:104A1C00092B94BF30333733DBB2214604F801390C
:104A2C002B46002DEED1FFF7C3FF0BB030BD0CB4FD
:104A3C002DE9F04387B000AF07F13804054654F870
:104A4C00049B3C600E4623464A461421381DFFF752
:104A5C005DFE132805D8391D2846FFF7A9FF04462B
:104A6C0013E000F1080323F00703E846ADEB030D58
:104A7C00411C23464A4668463C60FFF747FE6946A0
:104A8C002846FFF795FF0446C5461EB12846FFF79A
:104A9C00A2FF044420461C37BD46BDE8F04302B0DB
:104AAC0070470000014B024A1A60704710E4032063
:104ABC00D3580D00024B1A68024B1A60704700BFA6
:104ACC0044DC032014E403200021FFF78BBD10B558
:104ADC008368044613B1032201469847204610BD53
:104AEC0010B50446FFF7F3FF204610BD0348044AF7
:104AFC0004490023836000F0E3BB00BF18E40320EB
:104B0C00ACDC0320ED4A0D0008B50C4B33B100F0C2
:104B1C0057F903681B699847002809DC084B63B1F7
:104B2C0000F0CCF903681B699847002803DC08BD2A
:104B3C00AFF30080F2E7AFF3008008BD0000000087
:104B4C000000000008B5FFF7DFFFFFF78BFC014BFF
:104B5C00186008BD4CE703200248034A0349121AA7
:104B6C0000F00CBD00F4032004F40320205B0D00C6
:104B7C0007B5002300931A466FF07701FFF744FD49
:104B8C0003B05DF804FB000007B543880A2B08D07E
:104B9C00502B09D1094B1B683BB103B05DF804EBFA
:104BAC001847FFF7E5FF06E0002300931A466FF065
:104BBC007701FFF729FD03B05DF804FB28E403201F
:104BCC0038B5104C104D2368AB42104B0CBF012272
:104BDC0000221A7002D0FFF7BFFF2560FFF73AFCE6
:104BEC00044600F0DFFC0A4B13B12046AFF3008003
:104BFC0000210748FFF76AFD00210648BDE8384050
:104C0C00FFF7F8BC00F403201E1C279A2CE40320A9
:104C1C0000000000954B0D00704710B5182104469C
:104C2C0000F053FB204610BDF0B5037D062B8DB074
:104C3C000E4600F104074FF0000402D000F1080505
:104C4C0018E00CAD394605F8304D2F232A460A20C2
:104C5C00FFF738FC284600F0D5FC33680246DB68C9
:104C6C002946304698470FE024B12E213046FFF7F5
:104C7C00AFFE044415F8011D0A223046FFF7B7FEBB
:104C8C00BD420444F0D120460DB0F0BD10B5054B2B
:104C9C000446112240F8043B002100F07AFC204627
:104CAC0010BD00BF74590D000346074A10B543F8F8
:104CBC00042B01F1100251F8044B43F8044B9142C0
:104CCC00F9D10A781A7010BD74590D0010B59DF801
:104CDC00084044EA032343EA024242EA0161042306
:104CEC004160037510BD37B50D788B784A78C9785B
:104CFC0000912946FFF7EAFF03B030BD41747047BD
:104D0C00704708B50021007CFFF73CFC30EA20001E
:104D1C0028BF4FF0FF3008BD08B50121007CFFF71C
:104D2C0031FC30EA200028BF4FF0FF3008BD08B539
:104D3C00007CFFF71FFC20EAE07008BD08B5007C82
:104D4C00FFF710FC20EAE07008BD007CFFF72ABCDE
:104D5C0010B51421044600F0B8FA204610BD38B541
:104D6C000446007C0D46FFF705FC002801DC607C46
:104D7C0028B12946207CFFF70DFC20EAE07038BDF5
:104D8C0010B50446002363604FF47A73A360054B9F
:104D9C00236001230846217463741146FFF7D2FB8C
:104DAC00204610BD88590D000022007CFFF7D2BBB5
:104DBC0010B514220446002100F0EBFB204610BD78
:104DCC0030B50E4D87B001A8FFF7F2FF296811F03E
:104DDC00010410D12846FFF75CF960B101AA214605
:104DEC000748FFF7CDFF2846FFF758F9054A064953
:104DFC00034800F065FA024807B030BD30E40320E8
:104E0C0034E40320ACDC03200D4D0D0070474174DD
:104E1C00704708B5007CFFF78DFB20EAE07008BDF9
:104E2C0008B5007CFFF766FB20EAE07008BD08B50A
:104E3C00007CFFF76FFB30EA200028BF4FF0FF30FB
:104E4C0008BD08B5007CFFF75DFB30EA200028BFE9
:104E5C004FF0FF3008BD007CFFF764BB10B5142188
:104E6C00044600F032FA204610BD70B5457C04466D
:104E7C000E4625B9007CFFF75DFB002805DD3146A9
:104E8C00207CBDE87040FFF72DBB284670BD0000AC
:104E9C0010B5044608461146002262604FF47A723F
:104EAC00A260054A22600122207462741A46FFF740
:104EBC0011FB204610BD00BFB8590D0038B50C4D84
:104ECC00296811F0010411D12846FFF7E2F868B106
:104EDC00084A094B09482146FFF7DAFF2846FFF735
:104EEC00DDF8074A0749054800F0EAF9034838BDE0
:104EFC00E0E40320E4E403205CE4032048E4032022
:104F0C00ACDC0320194E0D00002211464068FFF75F
:104F1C00C5BB002211464068FFF7D0BB0022406899
:104F2C00FFF7C4BB002281F001014068FFF7AEBB64
:104F3C0000231A4601214068FFF7A0BB00231A4644
:104F4C0019464068FFF792BB002211464068FFF7F4
:104F5C0085BB002211464068FFF770BB002202217E
:104F6C004068FFF773BB00231A464068FFF75EBB2F
:104F7C0038B5054688B104684CB1A3681BB103224F
:104F8C002146204698471021204600F09EF92846DD
:104F9C001421BDE8384000F098B938BD10B1036851
:104FAC005B681847704710B503680446BBB1586876
:104FBC00FFF760FA78B923685A7C12B95868FFF782
:104FCC0061FA23685868FFF765FA206800232360AC
:104FDC0028B1FFF7CDFF206808B1FFF7C9FF2046C5
:104FEC0010BD38B50446D0F8C40108B1FFF74FF82E
:104FFC00D4F8C00108B1FFF75DFAD4F8BC5135B153
:10500C002846FFF7D0FF0421284600F05EF92068FF
:10501C0008B1FFF7C3FF204638BD000010B5044BA4
:10502C00044640F8083BFFF7DCFF204610BD00BFEC
:10503C00E8590D0038B50E4C0E4B236000250223A9
:10504C0004F5E4706360A560C4F8C451C4F8C85199
:10505C00FFF728FA084BC4F8CC5184F8D0512360E0
:10506C002046064A0649BDE8384000F029B900BF81
:10507C0068E50320505A0D00E8590D00ACDC032004
:10508C0029500D0030B54B688A68934210DA0A68D3
:10509C005C1C4C600546382404FB03240FCD0FC464
:1050AC000FCD0FC40FCD0FC495E8030084E80300A7
:1050BC0030BD002211464068FFF7D0BA00221146DD
:1050CC004068FFF7EBBA002211464068FFF7F6BACA
:1050DC0000224068FFF7EABA002281F00101406823
:1050EC00FFF7D4BA00231A4619464068FFF7C6BA30
:1050FC0000231A4619464068FFF7B8BA0022114639
:10510C004068FFF79BBA002202214068FFF79EBA65
:10511C0000231A464068FFF789BA00001FB5002328
:10512C0001910648029301A90392FFF743FA039BEE
:10513C009842A8BF184605B05DF804FB91500D00CD
:10514C001FB5002301910648029301A90392FFF7B2
:10515C0039FA039B9842A8BF184605B05DF804FBCA
:10516C0091500D00024B04225A60024A1A6070479B
:10517C003CE703201C5A0D0000231A464068FFF739
:10518C0055BA002202214068FFF760BA002211468E
:10519C004068FFF753BA002211464068FFF75EBA29
:1051AC0000231A4619464068FFF760BA00231A46D6
:1051BC0019464068FFF762BA002281F0010140688D
:1051CC00FFF764BA00224068FFF770BA002211465C
:1051DC004068FFF773BA002211464068FFF75EBAC9
:1051EC002DE9F043002495B016460D460746FFF70F
:1051FC004DFD214620220CA8009400F0CAF9402352
:10520C000C9321466B460CAA3046FFF713F9044663
:10521C00002844D1024601216868FFF71FFA0221D9
:10522C00804622466868FFF719FA009E814621469F
:10523C00002E34D0002932D17368022B02D00A2BF5
:10524C0009D02AE0B8F1000F27D071693846043133
:10525C00FFF749FD20E0B9F1000F1ED0746911224F
:10526C0001A800F096F906238DF8143001AD04F175
:10527C0008031834186859682A4603C20833A34235
:10528C001546F7D101A906A807ADFFF70DFD0FCD07
:10529C003C1D0FC42B6823700121F669C8E70098E8
:1052AC00FFF7C0F8384615B0BDE8F083024B034A4F
:1052BC001A6000225A60704744E70320505A0D00D0
:1052CC000B460146184600F04BB9FEF7DEBE000057
:1052DC00184B1A68D1075CBF01221A60164B1A686A
:1052EC00D2075CBF01221A60144B1A68D0075CBF4E
:1052FC0001221A60124B1A68D1075CBF01221A6096
:10530C00104B1A68D2075CBF01221A600E4B1A6848
:10531C00D0075CBF01221A600C4B1A68D1075CBF26
:10532C0001221A600A4B1A68D2075CBF01221A606C
:10533C00704700BF6CE7032068E7032064E7032095
:10534C0060E703205CE7032058E7032054E70320C1
:10535C0050E70320244B1A68D0075CBF01221A6067
:10536C00224B1A68D1075CBF01221A60204B1A68C5
:10537C00D2075CBF01221A601E4B1A68D0075CBFB3
:10538C0001221A601C4B1A68D1075CBF01221A60FB
:10539C001A4B1A68D2075CBF01221A60184B1A68A4
:1053AC00D0075CBF01221A60164B1A68D1075CBF8C
:1053BC0001221A60144B1A68D2075CBF01221A60D2
:1053CC00124B1A68D0075CBF01221A60104B1A6886
:1053DC00D1075CBF01221A600E4B1A68D2075CBF62
:1053EC0001221A60704700BF9CE7032098E7032056
:1053FC0094E7032090E703208CE7032088E7032041
:10540C0084E7032080E703207CE7032078E7032070
:10541C0074E7032070E70320244B1A68D0075CBFA5
:10542C0001221A60224B1A68D1075CBF01221A6054
:10543C00204B1A68D2075CBF01221A601E4B1A68F7
:10544C00D0075CBF01221A601C4B1A68D1075CBFE5
:10545C0001221A601A4B1A68D2075CBF01221A602B
:10546C00184B1A68D0075CBF01221A60164B1A68D9
:10547C00D1075CBF01221A60144B1A68D2075CBFBB
:10548C0001221A60124B1A68D0075CBF01221A6005
:10549C00104B1A68D1075CBF01221A600E4B1A68B8
:1054AC00D2075CBF01221A60704700BFCCE7032013
:1054BC00C8E70320C4E70320C0E70320BCE70320B0
:1054CC00B8E70320B4E70320B0E70320ACE70320E0
:1054DC00A8E70320A4E70320A0E70320184B1A68D1
:1054EC00D1075CBF01221A60164B1A68D2075CBF49
:1054FC0001221A60144B1A68D0075CBF01221A6093
:10550C00124B1A68D1075CBF01221A60104B1A6843
:10551C00D2075CBF01221A600E4B1A68D0075CBF21
:10552C0001221A600C4B1A68D1075CBF01221A6069
:10553C000A4B1A68D2075CBF01221A60704700BF81
:10554C00ECE70320E8E70320E4E70320E0E703208F
:10555C00DCE70320D8E70320D4E70320D0E70320BF
:10556C0010B5054C13462CB10A4601460220AFF388
:10557C00008010BD204610BD0000000010B5431E79
:10558C000A44914204D011F8014B03F8014FF8E79B
:10559C0010BD02440346934202D003F8011BFAE704
:1055AC007047000038B5124B1C68A36B0546D3B985
:1055BC001820FFF793F843F20E33A06303804AF6EA
:1055CC00CD33438041F2342383804EF26D63C3802C
:1055DC004DF6EC630381052343810B238381012268
:1055EC000023C0E90423A36B00221D615A6138BD5E
:1055FC00A8DC0320034611F8012B03F8012B002A29
:10560C00F9D17047034613F8012B002AFBD1181A65
:10561C00013870471D400D0059400D0085400D00AC
:10562C0089400D00000000005363616E20417267D9
:10563C006F6E20666F7220536176656420437265CD
:10564C0064656E7469616C73200A00697020616412
:10565C0064726573733A202573200A004372656483
:10566C00656E7469616C7320666F722025642041CD
:10567C00636365737320506F696E747320466F7526
:10568C006E64200A0041502564202D2073736964D8
:10569C003A202573200A0041502564202D206D618D
:1056AC00633A20253032583A253032583A25303278
:1056BC00583A253032583A253032583A253032583B
:1056CC00200A0041502564202D2073656375726992
:1056DC0074793A202564202873656375726974792E
:1056EC0020257329200A0041502564202D20636950
:1056FC00706865723A2020202564202863697068E0
:10570C00657220257329200A0A000A200A57696647
:10571C0069205363616E206F6620617661696C61EC
:10572C00626C65206E6574776F726B73200A007300
:10573C007369643D25732073656375726974793D73
:10574C002564206369706865723D25642C2063684C
:10575C00616E6E656C3D256420727373693D2564C2
:10576C00200A00574C414E5F5345435F554E5345FD
:10577C004300574C414E5F5345435F5745500057CC
:10578C004C414E5F5345435F57504100574C414E7F
:10579C005F5345435F5750413200574C414E5F5366
:1057AC0045435F5750415F454E5445525052495303
:1057BC004500574C414E5F5345435F575041325F54
:1057CC00454E5445525052495345004E2F410057B7
:1057DC004C414E5F4349504845525F414553005739
:1057EC004C414E5F4349504845525F544B49500021
:1057FC00574C414E5F4349504845525F4145535FBA
:10580C00544B495000000000000000000000000054
:10581C0087470D007D470D0073470D0069470D004C
:10582C005D470D0051470D0045470D003D470D00EC
:10583C0033470D0029470D00ED510D00000000000D
:10584C0000000000F9470D00FB470D0019490D0041
:10585C00EB480D00626175640053657269616C0000
:10586C0053657269616C3100747970650070617296
:10587C00616D00636D6400696400686E640073742C
:10588C00726D0066696C74006C766C0061646448BF
:10589C00616E646C65720072656D6F766548616EE1
:1058AC00646C657200656E756D48616E646C6572D2
:1058BC0073004A534F4E53747265616D4C6F674859
:1058CC00616E646C657200617070002530313075EA
:1058DC0020005D20002564002C200028293A20009F
:1058EC00205B00636F6465203D20002569006465C2
:1058FC007461696C73203D20000D0A0066006C6EAB
:10590C0000666E00636F64650064657461696C00A9
:10591C006E6F6E6500747261636500696E666F0010
:10592C007761726E006572726F720070616E69637E
:10593C0000616C6C005A00252B3033643A253032F0
:10594C00750025592D256D2D25645425483A254D76
:10595C003A2553257A0061736374696D6500000004
:10596C000000000000000000354C0D00254C0D001F
:10597C00274C0D0000000000000000000D4D0D0034
:10598C005D4D0D006B4D0D0091490D00494D0D0005
:10599C000F4D0D00254D0D00574D0D003B4D0D00CD
:1059AC00094D0D000000000000000000194E0D0014
:1059BC00694E0D00774E0D0091490D002D4E0D00D6
:1059CC004F4E0D003B4E0D00634E0D001B4E0D0057
:1059DC001F4E0D000000000000000000734F0D0072
:1059EC00694F0D005F4F0D00554F0D00494F0D00D5
:1059FC003D4F0D00314F0D00294F0D001F4F0D0075
:105A0C00154F0D00ED510D000000000000000000CE
:105A1C001D510D0013510D0009510D00BF500D000B
:105A2C00FD500D00F1500D00E5500D00DD500D0046
:105A3C00D3500D00C9500D00ED510D0000000000B9
:105A4C000000000085510D008F510D0099510D0083
:105A5C00A3510D00AD510D00B9510D00C5510D00F4
:105A6C00D1510D00D9510D00E3510D00ED510D0038
:105A7C00000000000000000000000000000000001A
:105A8C00000000000000000000000000000000000A
:105A9C0000000000000000000000000000000000FA
:105AAC0000000000000000000000000000000000EA
:105ABC0000000000000000000000000000000000DA
:105ACC0000000000000000000000000000000000CA
:105ADC0029430D0091470D00C5470D0069490D0084
:105AEC00B14A0D00C14A0D00F94A0D0041500D009C
:105AFC0071510D00B9520D00DD520D0061530D00B6
:105B0C0025540D00E9540D000000000000000000B9
:045B1C000000000085
:045B20000000000081
:105B240062590D00000000007C5A0D009C5A0D00C3
:105B3400BC5A0D000000000000000000000000003E
:105B4400000000007C570D00000000000000000071
:105B54000000000000000000000000000000000041
:105B64000000000000000000000000000000000031
:105B74000000000000000000000000000000000021
:085B84000000000048DC0320D2
:105B8C00FFFFFFFF00000102030405060708090AD6
:105B9C000B0C0D0E0F101112131415161718191AD1
:085BAC001B1C1D1E1F20280018
:045BB40078563412D9
:04000003D000401CCD
:00000001FF
