:02000002D0002C
:1040000000400D0074570D00000006000C00050173
:084010000401E80500000000B6
:0440180058530D00EC
:10401C0009480A49884208B505D0094A824202D0AB
:10402C00121A01F047F90748074A0021121A01F049
:10403C004CF9014808BD00BFFCDC0320E4560D0020
:10404C0064DD032064DD0320F0E7032070B500F08D
:10405C0053FC074C074BE41AA40800251E46A54246
:10406C0004D056F8253098470135F8E770BD00BFED
:10407C00D4560D009C560D0000F014B808B500F095
:10408C0089F8BDE8084000F0F9BB00F003BA00F075
:10409C0001BA0078B0FA80F0400970470123037030
:1040AC007047000070B58EB000F026FD4FF416512D
:1040BC0000F016FD00F020FD2C4C002211460546A8
:1040CC00606800F07FF9811C08A800F089FC08A941
:1040DC0004A800F0BFFA049B254A0021284600F0F2
:1040EC0044FB04A800F05EFA204605222149224C2C
:1040FC0000F0C2FE00250646B54219DA00F0FCFCC1
:10410C0023461E4A002100F030FB00F0F5FC94F829
:10411C0028301B4A002100F028FB00F0EDFC94F83D
:10412C002930184A002100F020FB01353834E3E730
:10413C00142215490D48154C00F08CFE002506463E
:10414C00B54211DA00F0D8FC236B029394F82A30B4
:10415C00019394F8283000930D4A2346002100F077
:10416C0004FB01353834EBE70EB070BD3CE703209F
:10417C006C530D0068DD03206CDD03207D530D00B6
:10418C0088530D0097530D0098DF03209CDF03200C
:10419C00A4530D007047000070B500F02FF80D4DC2
:1041AC000024382628193822002101F08EF8665197
:1041BC003834B4F50C7FF5D1074D00243826281976
:1041CC003822002101F081F866513834B4F58C6F37
:1041DC00F5D170BD68DD032098DF032008B5024BD4
:1041EC001B689B68019308BD6802030008B5024B6D
:1041FC001B68DB68019308BD6802030008B5024B1D
:10420C001B681B68019308BD2C02030008B5024B08
:10421C001B685B68019308BD1802030008B5024BCC
:10422C001B685B69019308BD1802030008B5024BBB
:10423C001B689B68019308BD4802030008B5024B3C
:10424C001B681B69019308BD4802030008B5024BAB
:10425C001B685B69019308BD4802030008B5024B5B
:10426C001B685B6C019308BD4802030008B5024B48
:10427C001B689B6C019308BD4802030008B5024BF8
:10428C001B685B69019308BD6402030008B5024B0F
:10429C001B681B68019308BD3C02030008B5024B68
:1042AC001B68DB68019308BD3C02030008B5024B98
:1042BC001B681B69019308BD3C02030008B5024B47
:1042CC001B685B69019308BD3C02030008B5024BF7
:1042DC001B689B69019308BD3C02030008B5024BA7
:1042EC001B68DB69019308BD3C02030008B5024B57
:1042FC001B689B6A019308BD3C02030008B5024B86
:10430C001B681B68019308BD4C02030008B5024BE7
:10431C001B685B68019308BD4C02030008B5024B97
:10432C001B681B69019308BD4C02030008B5024BC6
:10433C001B685B69019308BD4C02030008B5024B76
:10434C001B689B69019308BD4C02030008B5024B26
:10435C001B68DB69019308BD4C02030008B5024BD6
:10436C001B681B6A019308BD4C02030008B5024B85
:10437C001B68DB6D019308BD7402030008B5024B8A
:10438C001B681B6E019308BD7402030008B5024B39
:10439C001B685B68019308BD2002030008B5034B42
:1043AC001B68D3F88830019308BD0000200203007D
:1043BC0008B5034B1B68D3F89430019308BD00007B
:1043CC002002030008B5024B1B681B68019308BD53
:1043DC004002030008B5024B1B685B68019308BDE3
:1043EC004002030008B5024B1B689B68019308BD93
:1043FC004002030008B5024B1B68DB68019308BD43
:10440C004002030008B5024B1B681B69019308BDF1
:10441C004002030008B5024B1B685B69019308BDA1
:10442C004002030008B5024B1B689B69019308BD51
:10443C004002030008B5024B1B68DB69019308BD01
:10444C004002030008B5024B1B681B6A019308BDB0
:10445C004002030008B5024B1B681B6B019308BD9F
:10446C004002030008B5024B1B685B6B019308BD4F
:10447C004002030008B5024B1B68DB6B019308BDBF
:10448C004402030008B5024B1B681B68019308BD6E
:10449C001C02030008B5024B1B685B68019308BD46
:1044AC001C02030008B5024B1B689B68019308BDF6
:1044BC001C02030008B5024B1B685B6A019308BD24
:1044CC001C020300002211464068FFF7BBBF00220C
:1044DC0011464068FFF7C6BF00224068FFF7BABF1D
:1044EC00002281F001014068FFF7A4BF00231A46A7
:1044FC0019464068FFF796BF00231A4619464068D4
:10450C00FFF788BF002211464068FFF77BBF0022EF
:10451C0011464068FFF766BF002202214068FFF792
:10452C0069BF00231A464068FFF754BF024B0322B1
:10453C005A60024A1A607047F8E30320D8530D0002
:10454C0010B50446006818B1FFF7A4FF00232360E0
:10455C0010BD10B50446FFF7F3FF204610BD000058
:10456C0010B5094C00204FF6FF732060A080A0719D
:10457C0020816381FFF70AFF2046044A0449BDE805
:10458C00104000F039BD00BF00E4032064DD0320BF
:10459C005F450D00704710B50C21044600F031FD4D
:1045AC00204610BD10B504460068FFF773FF204687
:1045BC0010BD38B504460D4600680131FFF772FF97
:1045CC0010B184E82100012038BD10B50368044601
:1045DC0013B143688B4207D22046FFF7EAFF20B1A4
:1045EC00A3680BB922681370012010BD70B5044686
:1045FC000E4609B9002070BD6AB18368D5182946EA
:10460C00FFF7E3FF0028F5D02068A3683146184473
:10461C0000F08CFEA560012070BD38B504468068A2
:10462C008568FFF7E3FFA3689868401B38BD07B5A2
:10463C0000238DF80410012201A98DF80530FFF735
:10464C00D5FF03B05DF804FB08B58068FFF7EFFFFA
:10465C0008BD000030B585B000230D460293036001
:10466C004360836003731421064B0193044603904B
:10467C00FFF7ABFF2B6801A91B682846984720461B
:10468C0005B030BD0C540D0010B50446006808B1DF
:10469C00FFF7ECFD204610BD10B5064C002320465C
:1046AC002360FFF7DBFD2046034A0449BDE81040B8
:1046BC0000F0A2BC0CE4032064DD032095460D0041
:1046CC00F8B506460D468F180024BD420CD0336851
:1046DC0015F8011B9B6830469847002801DB044401
:1046EC00F3E7002C08BF04462046F8BD70B505461C
:1046FC000C46084649B100F021FE2B6802462146C3
:10470C002846DB68BDE87040184770BD03689B689D
:10471C00184738B50D210546FFF7F8FF0A21044666
:10472C002846FFF7F3FF204438BD30B58BB00B465D
:10473C0000218DF82410012A98BF0A220DF12304C0
:10474C00B3FBF2F505FB123303F0FF03092B94BF07
:10475C0030333733DBB2214604F801392B46002DB8
:10476C00EED1FFF7C3FF0BB030BD0CB42DE9F04315
:10477C0087B000AF07F13804054654F8049B3C6041
:10478C000E4623464A461421381DFFF793FE132884
:10479C0005D8391D2846FFF7A9FF044613E000F1A0
:1047AC00080323F00703E846ADEB030D411C234639
:1047BC004A4668463C60FFF77DFE69462846FFF78F
:1047CC0095FF0446C5461EB12846FFF7A2FF0444D8
:1047DC0020461C37BD46BDE8F04302B070470000D0
:1047EC00014B024A1A60704710E403208F540D00ED
:1047FC00024B1A68024B1A60704700BFFCDC0320A6
:10480C0014E4032010B58368044613B10322014657
:10481C009847204610BD10B50446FFF7F3FF20461D
:10482C0010BD00000348044A04490023836000F0D3
:10483C00E3BB00BF18E4032064DD032023480D0014
:10484C0008B50C4B33B100F057F903681B69984756
:10485C00002809DC084B63B100F0CCF903681B6934
:10486C009847002803DC08BDAFF30080F2E7AFF3F4
:10487C00008008BD000000000000000008B5FFF734
:10488C00DFFFFFF7CBFC014B186008BD4CE70320A2
:10489C000248034A0349121A00F00CBD00F403202D
:1048AC0004F40320E0560D0007B5002300931A46CC
:1048BC006FF07701FFF77CFD03B05DF804FB00009F
:1048CC0007B543880A2B08D0502B09D1094B1B681C
:1048DC003BB103B05DF804EB1847FFF7E5FF06E0CA
:1048EC00002300931A466FF07701FFF761FD03B0C8
:1048FC005DF804FB28E4032038B5104C104D2368F8
:10490C00AB42104B0CBF012200221A7002D0FFF7F1
:10491C00BFFF2560FFF77AFC044600F0DFFC0A4B72
:10492C0013B12046AFF3008000210748FFF7A2FD2A
:10493C0000210648BDE83840FFF730BD00F40320E5
:10494C001E1C279A2CE4032000000000CD480D000B
:10495C00704710B51821044600F053FB204610BDDB
:10496C00F0B5037D062B8DB00E4600F104074FF019
:10497C00000402D000F1080518E00CAD394605F82A
:10498C00304D2F232A460A20FFF778FC284600F0EA
:10499C00D5FC33680246DB682946304698470FE061
:1049AC0024B12E213046FFF7B1FE044415F8011D49
:1049BC000A223046FFF7B9FEBD420444F0D120462E
:1049CC000DB0F0BD10B5054B0446112240F8043B68
:1049DC00002100F07AFC204610BD00BF30550D00C0
:1049EC000346074A10B543F8042B01F1100251F8A5
:1049FC00044B43F8044B9142F9D10A781A7010BD5C
:104A0C0030550D0010B59DF8084044EA032343EAE5
:104A1C00024242EA016104234160037510BD37B5BF
:104A2C000D788B784A78C97800912946FFF7EAFF10
:104A3C0003B030BD41747047704708B50021007C4D
:104A4C00FFF77CFC30EA200028BF4FF0FF3008BD98
:104A5C0008B50121007CFFF771FC30EA200028BF6B
:104A6C004FF0FF3008BD08B5007CFFF75FFC20EA73
:104A7C00E07008BD08B5007CFFF750FC20EAE07040
:104A8C0008BD007CFFF76ABC10B51421044600F089
:104A9C00B8FA204610BD38B50446007C0D46FFF729
:104AAC0045FC002801DC607C28B12946207CFFF7FE
:104ABC004DFC20EAE07038BD10B50446002363605D
:104ACC004FF47A73A360054B2360012308462174CD
:104ADC0063741146FFF712FC204610BD44550D00BF
:104AEC000022007CFFF712BC10B5142204460021F2
:104AFC0000F0EBFB204610BD30B50E4D87B001A881
:104B0C00FFF7F2FF296811F0010410D12846FFF7D6
:104B1C00C0FA60B101AA21460748FFF7CDFF28462D
:104B2C00FFF7BCFA054A0649034800F065FA02484B
:104B3C0007B030BD30E4032034E4032064DD0320EF
:104B4C00454A0D0070474174704708B5007CFFF76B
:104B5C00CDFB20EAE07008BD08B5007CFFF7A6FB92
:104B6C0020EAE07008BD08B5007CFFF7AFFB30EA27
:104B7C00200028BF4FF0FF3008BD08B5007CFFF7C0
:104B8C009DFB30EA200028BF4FF0FF3008BD007CB1
:104B9C00FFF7A4BB10B51421044600F032FA2046EE
:104BAC0010BD70B5457C04460E4625B9007CFFF758
:104BBC009DFB002805DD3146207CBDE87040FFF7E9
:104BCC006DBB284670BD000010B504460846114662
:104BDC00002262604FF47A72A260054A22600122C0
:104BEC00207462741A46FFF751FB204610BD00BFBB
:104BFC0074550D0038B50C4D296811F0010411D114
:104C0C002846FFF746FA68B1084A094B094821467D
:104C1C00FFF7DAFF2846FFF741FA074A074905482C
:104C2C0000F0EAF9034838BDE0E40320E4E4032093
:104C3C005CE4032048E4032064DD0320514B0D00A9
:104C4C00002211464068FFF7FDBB00221146406868
:104C5C00FFF708BC00224068FFF7FCBB002281F084
:104C6C0001014068FFF7E6BB00231A4601214068AA
:104C7C00FFF7D8BB00231A4619464068FFF7CABB9A
:104C8C00002211464068FFF7BDBB00221146406868
:104C9C00FFF7A8BB002202214068FFF7ABBB002343
:104CAC001A464068FFF796BB38B5054688B10468CC
:104CBC004CB1A3681BB10322214620469847102112
:104CCC00204600F09EF928461421BDE8384000F03B
:104CDC0098B938BD10B103685B681847704710B5B8
:104CEC0003680446BBB15868FFF7A0FA78B923688B
:104CFC005A7C12B95868FFF7A1FA23685868FFF775
:104D0C00A5FA20680023236028B1FFF7CDFF2068A7
:104D1C0008B1FFF7C9FF204610BD38B50446D0F8DE
:104D2C00C40108B1FFF7B3F9D4F8C00108B1FFF71B
:104D3C009DFAD4F8BC5135B12846FFF7D0FF0421B9
:104D4C00284600F05EF9206808B1FFF7C3FF204643
:104D5C0038BD000010B5044B044640F8083BFFF783
:104D6C00DCFF204610BD00BFA4550D0038B50E4C1D
:104D7C000E4B23600025022304F5E4706360A560EC
:104D8C00C4F8C451C4F8C851FFF768FA084BC4F80A
:104D9C00CC5184F8D05123602046064A0649BDE820
:104DAC00384000F029B900BF68E503200C560D000F
:104DBC00A4550D0064DD0320614D0D0030B54B682A
:104DCC008A68934210DA0A685C1C4C6005463824E9
:104DDC0004FB03240FCD0FC40FCD0FC40FCD0FC494
:104DEC0095E8030084E8030030BD002211464068BA
:104DFC00FFF708BB002211464068FFF723BB0022D7
:104E0C0011464068FFF72EBB00224068FFF722BB1B
:104E1C00002281F001014068FFF70CBB00231A4609
:104E2C0019464068FFF7FEBA00231A461946406837
:104E3C00FFF7F0BA002211464068FFF7D3BA002200
:104E4C0002214068FFF7D6BA00231A464068FFF7E4
:104E5C00C1BA00001FB5002301910648029301A9B5
:104E6C000392FFF783FA039B9842A8BF184605B03C
:104E7C005DF804FBC94D0D001FB5002301910648D8
:104E8C00029301A90392FFF779FA039B9842A8BFFA
:104E9C00184605B05DF804FBC94D0D00024B042209
:104EAC005A60024A1A6070473CE70320D8550D003F
:104EBC0000231A464068FFF78DBA00220221406891
:104ECC00FFF798BA002211464068FFF78BBA002210
:104EDC0011464068FFF796BA00231A4619464068F7
:104EEC00FFF798BA00231A4619464068FFF79ABA9A
:104EFC00002281F001014068FFF79CBA0022406853
:104F0C00FFF7A8BA002211464068FFF7ABBA00229F
:104F1C0011464068FFF796BA2DE9F043002495B08E
:104F2C0016460D460746FFF74DFD214620220CA8DC
:104F3C00009400F0CAF940230C9321466B460CAA4E
:104F4C003046FFF753F90446002844D102460121AC
:104F5C006868FFF757FA0221804622466868FFF717
:104F6C0051FA009E81462146002E34D0002932D1C0
:104F7C007368022B02D00A2B09D02AE0B8F1000F7B
:104F8C0027D0716938460431FFF749FD20E0B9F1AB
:104F9C00000F1ED07469112201A800F096F90623A7
:104FAC008DF8143001AD04F10803183418685968F1
:104FBC002A4603C20833A3421546F7D101A906A815
:104FCC0007ADFFF70DFD0FCD3C1D0FC42B682370F3
:104FDC000121F669C8E70098FFF700F9384615B0CB
:104FEC00BDE8F083024B034A1A6000225A607047F6
:104FFC0044E703200C560D000B460146184600F002
:10500C004BB9FFF742B80000184B1A68D1075CBFC8
:10501C0001221A60164B1A68D2075CBF01221A6073
:10502C00144B1A68D0075CBF01221A60124B1A6825
:10503C00D1075CBF01221A60104B1A68D2075CBF03
:10504C0001221A600E4B1A68D0075CBF01221A604D
:10505C000C4B1A68D1075CBF01221A600A4B1A6804
:10506C00D2075CBF01221A60704700BF6CE70320B7
:10507C0068E7032064E7032060E703205CE7032074
:10508C0058E7032054E7032050E70320244B1A6809
:10509C00D0075CBF01221A60224B1A68D1075CBF93
:1050AC0001221A60204B1A68D2075CBF01221A60D9
:1050BC001E4B1A68D0075CBF01221A601C4B1A6881
:1050CC00D1075CBF01221A601A4B1A68D2075CBF69
:1050DC0001221A60184B1A68D0075CBF01221A60B3
:1050EC00164B1A68D1075CBF01221A60144B1A6860
:1050FC00D2075CBF01221A60124B1A68D0075CBF42
:10510C0001221A60104B1A68D1075CBF01221A6089
:10511C000E4B1A68D2075CBF01221A60704700BFA1
:10512C009CE7032098E7032094E7032090E70320F3
:10513C008CE7032088E7032084E7032080E7032023
:10514C007CE7032078E7032074E7032070E7032053
:10515C00244B1A68D0075CBF01221A60224B1A68D4
:10516C00D1075CBF01221A60204B1A68D2075CBFC2
:10517C0001221A601E4B1A68D0075CBF01221A600C
:10518C001C4B1A68D1075CBF01221A601A4B1A68B3
:10519C00D2075CBF01221A60184B1A68D0075CBF9B
:1051AC0001221A60164B1A68D1075CBF01221A60E3
:1051BC00144B1A68D2075CBF01221A60124B1A6892
:1051CC00D0075CBF01221A60104B1A68D1075CBF74
:1051DC0001221A600E4B1A68D2075CBF01221A60BA
:1051EC00704700BFCCE70320C8E70320C4E70320C7
:1051FC00C0E70320BCE70320B8E70320B4E7032093
:10520C00B0E70320ACE70320A8E70320A4E70320C2
:10521C00A0E70320184B1A68D1075CBF01221A6063
:10522C00164B1A68D2075CBF01221A60144B1A681D
:10523C00D0075CBF01221A60124B1A68D1075CBF01
:10524C0001221A60104B1A68D2075CBF01221A6047
:10525C000E4B1A68D0075CBF01221A600C4B1A68FF
:10526C00D1075CBF01221A600A4B1A68D2075CBFD7
:10527C0001221A60704700BFECE70320E8E7032027
:10528C00E4E70320E0E70320DCE70320D8E7032072
:10529C00D4E70320D0E7032010B5054C13462CB1FE
:1052AC000A4601460220AFF3008010BD204610BD17
:1052BC000000000010B5431E0A44914204D011F8BE
:1052CC00014B03F8014FF8E710BD0244034693422B
:1052DC0002D003F8011BFAE77047000038B5124BF7
:1052EC001C68A36B0546D3B91820FFF7CBF843F223
:1052FC000E33A06303804AF6CD33438041F234234E
:10530C0083804EF26D63C3804DF6EC6303810523FD
:10531C0043810B23838101220023C0E90423A36B67
:10532C0000221D615A6138BD60DD0320034611F86F
:10533C00012B03F8012B002AF9D17047034613F80F
:10534C00012B002AFBD1181A013870471D400D00A3
:10535C0059400D0085400D0089400D0000000000F3
:10536C00697020616464726573733A202573200A36
:10537C0000737369643A202573200A0073656375A2
:10538C00726974793A202564200A00636970686533
:10539C00723A202564200A00737369643D257320DA
:1053AC0073656375726974793D2564206368616EF9
:1053BC006E656C3D256420727373693D2564200A0B
:1053CC000000000000000000000000002F450D0050
:1053DC0025450D001B450D0011450D0005450D0023
:1053EC00F9440D00ED440D00E5440D00DB440D00C7
:1053FC00D1440D00254F0D000000000000000000FE
:10540C00A1450D00A3450D0055460D0027460D0086
:10541C00626175640053657269616C0053657269F1
:10542C00616C31007479706500706172616D00633C
:10543C006D6400696400686E64007374726D00665C
:10544C00696C74006C766C0061646448616E646CA9
:10545C0065720072656D6F766548616E646C65721D
:10546C0000656E756D48616E646C657273004A53AD
:10547C004F4E53747265616D4C6F6748616E646C0E
:10548C0065720061707000253031307520005D2030
:10549C00002564002C200028293A2000205B0063A2
:1054AC006F6465203D200025690064657461696C3A
:1054BC0073203D20000D0A0066006C6E00666E00C5
:1054CC00636F64650064657461696C006E6F6E6512
:1054DC0000747261636500696E666F007761726E4D
:1054EC00006572726F720070616E696300616C6C42
:1054FC00005A00252B3033643A253032750025597B
:10550C002D256D2D25645425483A254D3A255325D6
:10551C007A0061736374696D65000000000000001F
:10552C00000000006D490D005D490D005F490D0044
:10553C000000000000000000454A0D00954A0D00D7
:10554C00A34A0D00CD460D00814A0D00474A0D00BF
:10555C005D4A0D008F4A0D00734A0D00414A0D0043
:10556C000000000000000000514B0D00A14B0D008D
:10557C00AF4B0D00CD460D00654B0D00874B0D005C
:10558C00734B0D009B4B0D00534B0D00574B0D00F7
:10559C000000000000000000AB4C0D00A14C0D0001
:1055AC00974C0D008D4C0D00814C0D00754C0D0071
:1055BC00694C0D00614C0D00574C0D004D4C0D000D
:1055CC00254F0D000000000000000000554E0D009E
:1055DC004B4E0D00414E0D00F74D0D00354E0D009C
:1055EC00294E0D001D4E0D00154E0D000B4E0D00DD
:1055FC00014E0D00254F0D000000000000000000C2
:10560C00BD4E0D00C74E0D00D14E0D00DB4E0D00F2
:10561C00E54E0D00F14E0D00FD4E0D00094F0D0035
:10562C00114F0D001B4F0D00254F0D000000000009
:10563C00000000000000000000000000000000005E
:10564C00000000000000000000000000000000004E
:10565C00000000000000000000000000000000003E
:10566C00000000000000000000000000000000002E
:10567C00000000000000000000000000000000001E
:10568C0000000000000000000000000043000000CB
:10569C00A5410D0039450D006D450D00A5460D00C9
:1056AC00ED470D00FD470D0031480D00794D0D0003
:1056BC00A94E0D00F14F0D0015500D0099500D0025
:1056CC005D510D0021520D00000000000000000093
:0456DC0000000000CA
:0456E00000000000C6
:1056E4001E550D000000000038560D0058560D00E0
:1056F40078560D00000000000000000000000000CB
:105704000000000098560D0000000000000000009A
:105714000000000000000000000000000000000085
:105724000000000000000000000000000000000075
:105734000000000000000000000000000000000065
:085744000000000000DD03205D
:10574C00FFFFFFFF00000102030405060708090A1A
:10575C000B0C0D0E0F101112131415161718191A15
:08576C001B1C1D1E1F2028005C
:04577400785634121D
:04000003D000401CCD
:00000001FF
